:020000040800F2
:1000000008BA0020AD9600084D9600084F960008EB
:10001000519600085396000855960008000000000D
:1000200000000000000000000000000057960008DB
:1000300059960008000000005B9600085D960008D5
:10004000C9960008CD960008D1960008D5960008FC
:10005000D9960008DD960008E1960008E5960008AC
:10006000E9960008ED960008F1960008F59600085C
:10007000F9960008FD96000801970008059700080A
:10008000099700080D9700081197000815970008B8
:10009000199700081D970008219700082597000868
:1000A000299700082D970008319700083597000818
:1000B000399700083D9700084197000845970008C8
:1000C000499700084D970008519700085597000878
:1000D000599700085D970008619700086597000828
:1000E00061960008699700086D97000871970008ED
:1000F00075970008799700087D9700088197000898
:1001000085970008899700088D9700089197000847
:1001100095970008999700089D970008A1970008F7
:10012000A5970008A9970008AD970008B1970008A7
:10013000B5970008B9970008BD970008C197000857
:10014000C5970008C9970008CD970008D197000807
:10015000D5970008D9970008DD970008E1970008B7
:10016000E5970008E9970008ED970008F197000867
:10017000F5970008F9970008FD97000800000000B7
:100180000198000805980008000000000000000029
:10019000000000000000000000000000000000005F
:1001A000000000000000000000000000000000004F
:1001B000000000000000000000000000000000003F
:1001C000000000000000000000000000000000002F
:1001D0000000000000000380000380000380000393
:1001E0008000038000038000038000038000038000
:1001F000000100000100000000000000000380007A
:10020000038000000000000000000000000000006B
:1002100000000000000000000000000000000000DE
:10022000000E70000E70000E70000420000420000C
:100230000420000420000000000000000000000076
:1002400000000000000000000000000000000000AE
:10025000000000000000000000000000000000009E
:100260000000000000000660000660000660000656
:1002700060000660003FF8003FF8000660000CC018
:10028000003FF8003FF8000CC0000CC0000CC0009C
:100290000CC0000CC00000000000000000000000C6
:1002A000000000000000000000000001800001804C
:1002B0000007B0000FF0001870001870001C00005C
:1002C0000F800007E00000F0001830001C30001C18
:1002D00070001FE0001BC000018000018000018051
:1002E000000180000000000000000000000000008D
:1002F0000000000000000780000FC0001CE0001894
:1003000060001860001CE0000FF80007E0001FF01C
:100310000007380006180006180007380003F00030
:1003200001E00000000000000000000000000000EC
:1003300000000000000000000000000000000000BD
:100340000000000003F00007F0000C60000C00004B
:100350000C00000600000700000F9C001DFC0018A8
:10036000F0001870000FFC0007DC00000000000027
:10037000000000000000000000000000000000007D
:100380000000000000000000000380000380000364
:1003900080000100000100000100000100000000D9
:1003A000000000000000000000000000000000004D
:1003B000000000000000000000000000000000003D
:1003C0000000000000000000000000000000001815
:1003D0000000380000700000F00000E00000E000C5
:1003E00001C00001C00001C00001C00001C0000147
:1003F000C00000E00000E000007000007000003865
:1004000000001800000000000000000000000000D4
:100410000000000000001800001C00000E00000E8C
:100420000000070000070000038000038000038035
:100430000003800003800003800007000007000025
:100440000F00000E00001C0000180000000000005B
:10045000000000000000000000000000000001801B
:10046000000180000180001DB8001FF80007E000B7
:1004700003C00003C000066000066000000000002A
:10048000000000000000000000000000000000006C
:10049000000000000000000000000000000000005C
:1004A00000000000000000000000000001800001CA
:1004B00080000180000180000180003FFC003FFCC3
:1004C00000018000018000018000018000018000A7
:1004D000000000000000000000000000000000001C
:1004E000000000000000000000000000000000000C
:1004F00000000000000000000000000000000000FC
:1005000000000000000000000000000000000000EB
:10051000000000E00000C00001C000018000018078
:1005200000030000030000000000000000000000C5
:1005300000000000000000000000000000000000BB
:1005400000000000000000000000001FF8001FF87D
:10055000000000000000000000000000000000009B
:10056000000000000000000000000000000000008B
:10057000000000000000000000000000000000007B
:10058000000000000000000000000000000000006B
:10059000000000000000000000000000000000005B
:1005A000000003C00003C00003C000000000000002
:1005B000000000000000000000000000000000003B
:1005C0000018000018000038000030000070000023
:1005D000600000600000C00000C0000180000180D9
:1005E000000300000300000600000600000E0000EB
:1005F0000C00001C000018000018000000000000A3
:10060000000000000000000000000000000003C027
:100610000007E0000C30000C30001818001818001B
:100620001818001818001818001818001818000CCE
:1006300030000C300007E00003C0000000000000A4
:1006400000000000000000000000000000000000AA
:100650000000000000000080000780001F80001DD7
:100660008000018000018000018000018000018085
:10067000000180000180000180000180001FF8005F
:100680001FF8000000000000000000000000000053
:10069000000000000000000000000000000007C093
:1006A000001FF0003830003018003018000018002B
:1006B00000300000600001C0000380000600000C54
:1006C00000001800003FF8003FF8000000000000A4
:1006D000000000000000000000000000000000001A
:1006E00000000000000003C0000FE0000C700000DC
:1006F000300000300000600003C00003E000007024
:10070000000018000018000018001838001FF00042
:100710000FC000000000000000000000000000000A
:10072000000000000000000000000000000000E0E9
:100730000001E00001E000036000066000066000C8
:100740000C60000C60001860003060003FF8003F53
:10075000F80000600003F80003F80000000000004B
:100760000000000000000000000000000000000089
:100770000000000000001FF0001FF000180000182B
:1007800000001800001BC0001FF0001C3000001803
:10079000000018000018000018003030003FF00082
:1007A0000FC000000000000000000000000000007A
:1007B000000000000000000000000000000000F841
:1007C0000003F8000700000E00000C0000180000F5
:1007D0001BC0001FF0001C3000181800181800186B
:1007E00018000C38000FF00003E0000000000000CB
:1007F00000000000000000000000000000000000F9
:100800000000000000001FF8001FF8001818001872
:100810003800003000003000007000006000006010
:100820000000E00000C00000C00001C00001800026
:100830000180000000000000000000000000000037
:10084000000000000000000000000000000007E0C1
:10085000000FF0001C38001818001818000C3000A9
:1008600007E00007E0000C30001818001818001806
:1008700018001C38000FF00007E000000000000026
:100880000000000000000000000000000000000068
:1008900000000000000007C0000FF0001C3000182E
:1008A00018001818001818000C38000FF80003D8AA
:1008B0000000180000300000700000E0001FC000C1
:1008C0001F00000000000000000000000000000009
:1008D0000000000000000000000000000000000018
:1008E0000000000000000000000003C00003C00082
:1008F00003C0000000000000000000000000000035
:10090000000003C00003C00003C00000000000009E
:1009100000000000000000000000000000000000D7
:1009200000000000000000000000000000000000C7
:10093000000000F00000F00000F0000000000000E7
:100940000000000000000000E00001C00001800085
:100950000180000300000200000000000000000011
:100960000000000000000000000000000000000087
:1009700000000000001C00003C0000F00003C0006C
:100980000F00003C0000F000003C00000F000003DE
:10099000C00000F000003C00001C0000000000004F
:1009A0000000000000000000000000000000000047
:1009B0000000000000000000000000000000000037
:1009C00000000000007FFC007FFC00000000000031
:1009D000007FFC007FFC0000000000000000000021
:1009E0000000000000000000000000000000000007
:1009F00000000000000000000000000000000000F7
:100A0000000000007000007800001E000007800059
:100A100001E000007800001E0000780001E00007FF
:100A200080001E0000780000700000000000000040
:100A300000000000000000000000000000000000B6
:100A400000000000000000000007C0000FE00018D8
:100A5000700018300018300000700000E00003C083
:100A600000038000030000000000000000070000F9
:100A7000070000000000000000000000000000006F
:100A8000000000000000000000000000000003E083
:100A90000007F0000E38000C180018780018F80055
:100AA00019D80019980019980019980018F800181A
:100AB00078001800000C00000E180007F80003E092
:100AC0000000000000000000000000000000000026
:100AD0000000000000000000001F80001FC0000197
:100AE000C0000360000360000630000630000C30D8
:100AF000000FF8001FF800180C00300C00FC7F00FD
:100B0000FC7F00000000000000000000000000006A
:100B100000000000000000000000000000000000D5
:100B2000007FE0007FF00018380018180018180047
:100B30001838001FF0001FF800181C00180C0018CF
:100B40000C00180C007FF8007FF00000000000008F
:100B50000000000000000000000000000000000095
:100B600000000000000000000003EC000FFC001C6F
:100B70001C00180C00300C00300000300000300069
:100B800000300000300000180C001C1C000FF800A2
:100B900003F0000000000000000000000000000062
:100BA0000000000000000000000000000000000045
:100BB000007FC0007FF000183800181800180C00E3
:100BC000180C00180C00180C00180C00180C001859
:100BD00018001838007FF0007FE0000000000000DF
:100BE0000000000000000000000000000000000005
:100BF0000000000000000000007FF8007FF80018EF
:100C000018001818001998001980001F80001F8014
:100C1000001980001998001818001818007FF800B3
:100C20007FF800000000000000000000000000004D
:100C300000000000000000000000000000000000B4
:100C4000003FFC003FFC000C0C000C0C000CCC0026
:100C50000CC0000FC0000FC0000CC0000CC0000C86
:100C600000000C00003FC0003FC00000000000007A
:100C70000000000000000000000000000000000074
:100C800000000000000000000003EC000FFC001C4E
:100C90001C00180C00300C0030000030000030FE4A
:100CA0000030FE00300C00380C001C1C000FFC0053
:100CB00003F0000000000000000000000000000041
:100CC0000000000000000000000000000000000024
:100CD000007E7E007E7E001818001818001818008C
:100CE0001818001FF8001FF800181800181800182E
:100CF00018001818007E7E007E7E000000000000B4
:100D000000000000000000000000000000000000E3
:100D10000000000000000000001FF8001FF80001A4
:100D200080000180000180000180000180000180BE
:100D3000000180000180000180000180001FF80098
:100D40001FF800000000000000000000000000008C
:100D50000000000000000000000000000000000093
:100D60000007FE0007FE00003000003000003000E9
:100D700000300000300030300030300030300030C3
:100D800030003060003FE0000F80000000000000F5
:100D90000000000000000000000000000000000053
:100DA0000000000000000000007F3E007F3E0018B1
:100DB000300018600018C0001980001B80001FC0A0
:100DC000001CE0001870001830001838007F1F0069
:100DD0007F1F000000000000000000000000000075
:100DE0000000000000000000000000000000000003
:100DF000007F80007F80000C00000C00000C0000D1
:100E00000C00000C00000C00000C0C000C0C000C82
:100E10000C000C0C007FFC007FFC000000000000B8
:100E200000000000000000000000000000000000C2
:100E3000000000000000000000F00F00F81F003864
:100E40001C003C3C003C3C00366C00366C0033CC53
:100E50000033CC00318C00300C00300C00FE7F00E1
:100E6000FE7F000000000000000000000000000005
:100E70000000000000000000000000000000000072
:100E80000078FE0078FE001C18001E18001F1800D5
:100E90001B18001B980019D80018D80018F8001863
:100EA00078001838007F18007F180000000000004C
:100EB0000000000000000000000000000000000032
:100EC00000000000000000000003C0000FF0001C44
:100ED0003800181800381C00300C00300C00300CA2
:100EE00000300C00381C001818001C38000FF000EF
:100EF00003C000000000000000000000000000002F
:100F000000000000000000000000000000000000E1
:100F1000003FF0003FF8000C1C000C0C000C0C0013
:100F20000C0C000C18000FF8000FE0000C00000C77
:100F300000000C00003FC0003FC0000000000000A7
:100F400000000000000000000000000000000000A1
:100F500000000000000000000003C0000FF0001CB3
:100F60003800181800381C00300C00300C00300C11
:100F700000300C00381C001818001C38000FF0005E
:100F800007C00007CC000FFC000C38000000000078
:100F90000000000000000000000000000000000051
:100FA000007FE0007FF000183800181800181800C3
:100FB0001838001FF0001FC00018E000187000185B
:100FC00030001838007F1E007F0E00000000000077
:100FD0000000000000000000000000000000000011
:100FE00000000000000000000007D8000FF8001CFF
:100FF00038001818001818001E00000FC00003F079
:10100000000078001818001818001C38001FF000A5
:101010001BE00000000000000000000000000000D5
:1010200000000000000000000000000000000000C0
:10103000003FFC003FFC00318C00318C00318C0003
:10104000318C0001800001800001800001800001DE
:1010500080000180000FF0000FF000000000000091
:101060000000000000000000000000000000000080
:101070000000000000000000007E7E007E7E001860
:101080001800181800181800181800181800181858
:10109000001818001818001818000C30000FF00085
:1010A00003C000000000000000000000000000007D
:1010B0000000000000000000000000000000000030
:1010C000007F7F007F7F00180C000C18000C1800B8
:1010D0000C180006300006300003600003600003B7
:1010E000600001C00001C00000800000000000009E
:1010F00000000000000000000000000000000000F0
:10110000000000000000000000FE3F80FE3F803035
:10111000060030060030860019CC0019CC001B6C8C
:10112000001B6C001E7C000E38000E38000C1800EE
:101130000C1800000000000000000000000000008B
:10114000000000000000000000000000000000009F
:10115000007E7E007E7E001818000C3000066000C5
:1011600003C00001800001800003C0000660000C85
:1011700030001818007E7E007E7E00000000000017
:10118000000000000000000000000000000000005F
:101190000000000000000000007C7E007C7E001843
:1011A00018000C300006600006600003C0000180DB
:1011B000000180000180000180000180000FF0002C
:1011C0000FF0000000000000000000000000000020
:1011D000000000000000000000000000000000000F
:1011E000001FF8001FF800181800183000186000E1
:1011F00018C0000180000300000618000C18001839
:1012000018003018003FF8003FF800000000000010
:1012100000000000000000000000000000000000CE
:1012200000000000000001F00001F000018000015A
:1012300080000180000180000180000180000180A9
:101240000001800001800001800001800001800019
:1012500001800001800001F00001F00000000000AA
:1012600000000000000000001800001800001C0032
:10127000000C00000E000006000006000003000045
:1012800003000001800001800000C00000C00000D9
:10129000600000600000700000300000380000189E
:1012A0000000180000000000000000000000000026
:1012B0000000000000000F80000F8000018000018E
:1012C0008000018000018000018000018000018019
:1012D0000001800001800001800001800001800089
:1012E0000180000180000F80000F800000000000DE
:1012F000000000000000000000000000800001C0AD
:101300000003E0000770000630000C1800180C0005
:1013100010040000000000000000000000000000B9
:1013200000000000000000000000000000000000BD
:1013300000000000000000000000000000000000AD
:10134000000000000000000000000000000000009D
:10135000000000000000000000000000000000008D
:10136000000000000000000000000000000000007D
:10137000000000000000000000000000000000006D
:101380000000FFFF00FFFF000000000300000380DB
:101390000000E0000060000000000000000000000D
:1013A000000000000000000000000000000000003D
:1013B000000000000000000000000000000000002D
:1013C000000000000000000000000000000000001D
:1013D000000000000000000000000000000000000D
:1013E00000000FC0001FE00000300000300007F0D8
:1013F000001FF0003830003030003070001FFC005B
:101400000FBC000000000000000000000000000011
:101410000000000000000000000000000000780054
:10142000007800001800001800001BE0001FF80002
:101430001C1800180C00180C00180C00180C0018D0
:101440000C001C18007FF8007BE00000000000008A
:10145000000000000000000000000000000000008C
:10146000000000000000000000000000000000007C
:10147000000003EC000FFC001C1C00380C00300CBA
:1014800000300000300000380C001C1C000FF80079
:1014900003F0000000000000000000000000000059
:1014A00000000000000000000000000000000078C4
:1014B0000000780000180000180007D8001FF8008E
:1014C000183800301800301800301800301800307C
:1014D00018001838001FFE0007DE000000000000A2
:1014E00000000000000000000000000000000000FC
:1014F00000000000000000000000000000000000EC
:10150000000007E0001FF800181800300C003FFC36
:10151000003FFC00300000300000180C001FFC00F1
:1015200007F00000000000000000000000000000C4
:10153000000000000000000000000000000001FCAE
:101540000003FC000600000600003FF8003FF80022
:101550000600000600000600000600000600000667
:1015600000000600003FF0003FF000000000000017
:10157000000000000000000000000000000000006B
:10158000000000000000000000000000000000005B
:10159000000007DE001FFE00183800301800301869
:1015A000003018003018003018001838001FF800FC
:1015B00007D8000018000018000038000FF0000FD6
:1015C000C0000000000000000000000000007800E3
:1015D000007800001800001800001BE0001FF00059
:1015E0001C380018180018180018180018180018CF
:1015F00018001818007E7E007E7E000000000000AB
:1016000000000000000000000000000000000000DA
:1016100000000000000001800001800000000000C8
:1016200000001F80001F80000180000180000180F9
:10163000000180000180000180000180003FFC006B
:101640003FFC00000000000000000000000000005F
:10165000000000000000000000000000000000C0CA
:101660000000C0000000000000001FF0001FF0009C
:10167000003000003000003000003000003000007A
:10168000300000300000300000300000300000303A
:10169000000070001FE0001F80000000000000003C
:1016A0000000000000003C00003C00000C00000CAA
:1016B00000000CF8000CF8000CC0000D80000F803A
:1016C000000F00000F80000DC0000CE0003C7C000B
:1016D0003C7C000000000000000000000000000052
:1016E00000000000000000000000000000001F805B
:1016F000001F800001800001800001800001800047
:101700000180000180000180000180000180000153
:1017100080000180003FFC003FFC00000000000052
:1017200000000000000000000000000000000000B9
:1017300000000000000000000000000000000000A9
:101740000000F77800FFFC0039CC00318C00318CB0
:1017500000318C00318C00318C00318C00FDEF00A9
:10176000FDEF00000000000000000000000000008D
:101770000000000000000000000000000000000069
:10178000000000000000000000007BE0007FF0008F
:101790001C3800181800181800181800181800181D
:1017A00018001818007E7E007E7E000000000000F9
:1017B0000000000000000000000000000000000029
:1017C0000000000000000000000000000000000019
:1017D000000003C0000FF0001C3800381C00300C63
:1017E00000300C00300C00381C001C38000FF000DA
:1017F00003C0000000000000000000000000000026
:1018000000000000000000000000000000000000D8
:10181000000000000000000000007BE0007FF800F6
:101820001C1800180C00180C00180C00180C0018DC
:101830000C001C18001FF8001BE000180000180026
:10184000001800007F00007F000000000000000082
:101850000000000000000000000000000000000088
:10186000000007DE001FFE00183800301800301896
:10187000003018003018003018001838001FF80029
:1018800007D80000180000180000180000FE000033
:10189000FE0000000000000000000000000000004A
:1018A000000000000000000000003E78003EFC0048
:1018B00007CC000700000600000600000600000636
:1018C00000000600003FF0003FF0000000000000B4
:1018D0000000000000000000000000000000000008
:1018E00000000000000000000000000000000000F8
:1018F000000007F8000FF8001818001818001F80E3
:10190000000FF00000F8001818001838001FF00051
:101910001FE00000000000000000000000000000C8
:1019200000000000000000000000000000000C00AB
:10193000000C00000C00000C00003FF0003FF00025
:101940000C00000C00000C00000C00000C00000C4F
:1019500000000C1C0007FC0003F000000000000069
:101960000000000000000000000000000000000077
:101970000000000000000000000000000000000067
:1019800000007878007878001818001818001818E7
:10199000001818001818001818001838000FFE005A
:1019A00007DE000000000000000000000000000052
:1019B0000000000000000000000000000000000027
:1019C000000000000000000000007C3E007C3E00A3
:1019D0001818001818000C30000C300006600006C3
:1019E000600007E00003C00003C00000000000002A
:1019F00000000000000000000000000000000000E7
:101A000000000000000000000000000000000000D6
:101A10000000783C00783C0031180033980033987F
:101A2000001AB0001EF0001EF0001C60000C6000E8
:101A30000C6000000000000000000000000000003A
:101A40000000000000000000000000000000000096
:101A5000000000000000000000003E7C003E7C0012
:101A60000C300006600003C00001800003C00006C7
:101A700060000C30003E7C003E7C00000000000056
:101A80000000000000000000000000000000000056
:101A90000000000000000000000000000000000046
:101AA00000007E1F007E1F00180C000C18000C1890
:101AB0000006300006300003600003E00001C000B3
:101AC00000C0000180000180000300003FC0003F13
:101AD000C000000000000000000000000000000046
:101AE000000000000000000000001FF8001FF800C8
:101AF00018300018600000C00001800003000006DC
:101B000018000C18001FF8001FF80000000000006B
:101B100000000000000000000000000000000000C5
:101B200000000000000000E00001E0000180000172
:101B3000800001800001800001800001800003809E
:101B40000007000003800001800001800001800088
:101B500001800001800001E00000E00000000000C2
:101B600000000000000000000000000000000180F4
:101B700000018000018000018000018000018000E0
:101B800001800001800001800001800001800001CF
:101B90008000018000018000018000018000018040
:101BA00000018000000000000000000000000000B4
:101BB0000000000000000700000780000180000115
:101BC000800001800001800001800001800001C0D0
:101BD0000000E00001C000018000018000018000E1
:101BE0000180000180000780000700000000000065
:101BF00000000000000000000000000000000000E5
:101C000000000000000000000000000000000000D4
:101C10000E00001F18003BB80031F00000E000008B
:101C200000000000000000000000000000000000B4
:101C300000000000000000000000000000000000A4
:101C40000000000000000000000000000010101064
:101C50001010000010000000006C48480000000058
:101C600000000000001414287C287C28505000003C
:101C700000103840403848701010000000205020FC
:101C80000C700814080000000000001820205448C0
:101C900034000000001010101000000000000000D0
:101CA0000008081010101010100808000020201064
:101CB000101010101020200000107C1028280000A8
:101CC000000000000000101010FE101010000000B6
:101CD000000000000000001810302000000000008C
:101CE000007C000000000000000000000000003048
:101CF00030000000000404080810102020400000FC
:101D0000003844444444444438000000003010107B
:101D1000101010107C00000000384404081020440B
:101D20007C0000000038440418040444380000001B
:101D3000000C141424447E040E000000003C2020FB
:101D40003804044438000000001C20407844444417
:101D500038000000007C440408080810100000004F
:101D600000384444384444443800000000384444B7
:101D7000443C0408700000000000003030000030D7
:101D8000300000000000001818000018302000008B
:101D900000000C10608060100C00000000000000CB
:101DA0007C007C00000000000000C0201804182007
:101DB000C0000000000018240408100030000000DB
:101DC0003844444C54544C404438000000301028EF
:101DD00028287C44EE00000000F844447844444441
:101DE000F8000000003C44404040404438000000FF
:101DF00000F0484444444448F000000000FC4450D3
:101E000070504044FC000000007E2228382820202A
:101E100070000000003C4440404E44443800000044
:101E200000EE44447C444444EE000000007C10106A
:101E3000101010107C000000003C080808484848BA
:101E40003000000000EE444850704844E6000000B6
:101E500000702020202024247C00000000EE6C6C08
:101E600054544444EE00000000EE64645454544C56
:101E7000EC0000000038444444444444380000006E
:101E800000782424243820207000000000384444C6
:101E900044444444381C000000F844444478484416
:101EA000E200000000344C40380404645800000094
:101EB00000FE9210101010103800000000EE444494
:101EC000444444443800000000EE444428282810CC
:101ED0001000000000EE4444545454542800000004
:101EE00000C6442810102844C600000000EE442814
:101EF0002810101038000000007C44081010204406
:101F00007C000000003820202020202020203800E5
:101F100000402020201010080808000000380808A1
:101F200008080808080838000010102844000000BD
:101F3000000000000000000000000000000000FEA3
:101F40000010080000000000000000000000003841
:101F5000443C44443E00000000C0405864444444B3
:101F6000F80000000000003C4440404438000000FD
:101F7000000C04344C4444443E000000000000388F
:101F8000447C40403C000000001C207C202020209D
:101F90007C000000000000364C4444443C043800FF
:101FA00000C0405864444444EE000000001000703B
:101FB000101010107C0000000010007808080808BD
:101FC0000808700000C0405C48705048DC00000009
:101FD00000301010101010107C000000000000E80D
:101FE00054545454FE000000000000D8644444449B
:101FF000EE00000000000038444444443800000073
:10200000000000D8644444447840E00000000036FA
:102010004C4444443C040E000000006C302020205E
:102020007C0000000000003C4438044478000000BC
:102030000000207C202020221C000000000000CC9A
:102040004444444C36000000000000EE444428287C
:1020500010000000000000EE44545454280000001A
:10206000000000CC48303048CC000000000000EEFA
:1020700044242818101078000000007C48102044E8
:102080007C00000000081010101020101010080034
:102090000010101010101010101000000020101070
:1020A000101008101010200000000000002458003C
:1020B00000000000000000000000000020202020A0
:1020C0000020000050500000000000002850F85090
:1020D000F850A000203060301060200020201860F0
:1020E00010100000003820605078000020202000F0
:1020F0000000000010202020202010004020202080
:10210000202040002070205000000000002020F817
:1021100020200000000000001020200000000070BF
:10212000000000000000000000200000102020201F
:10213000404080002050505050200000602020205F
:1021400020F8000020502020407000002050102077
:10215000106000001030507810380000704060109F
:10216000502000003040605050600000705010203F
:1021700020200000205020505020000030505030CF
:10218000106000000000200000200000000010008F
:1021900010200000001020C020100000007000700F
:1021A00000000000004020182040000020501020B7
:1021B00000200000304848584840380060205070E7
:1021C00088D80000F048704848F000007050404047
:1021D00040300000F048484848F00000F8486040AF
:1021E00048F80000F848604040E000007040405867
:1021F00050300000E848784848E80000702020206F
:10220000207000003810105050200000D85060702E
:1022100050D80000E040404048F80000D8D8D8A886
:1022200088D80000D868685858E800003048484806
:1022300048300000F048487040E00000304848480E
:1022400048301800F048487048E8000070502010EE
:1022500050700000F8A8202020700000D84848489E
:1022600048300000D888485050300000D888A8A8CE
:10227000A8500000D850202050D80000D888502006
:10228000207000007848102048780000302020207E
:10229000202030008040402020201000602020209E
:1022A00020206000202050000000000000000000FE
:1022B000000000F8201000000000000000003010B6
:1022C00070780000C040704848F000000000704086
:1022D000407000001808384848380000000070704E
:1022E00040300000102070202070000000003848AE
:1022F00048380830C040704848E80000200060209E
:10230000207000002000701010101070C040587035
:1023100050D8000060202020207000000000D0A8CD
:10232000A8A800000000F04848C80000000030489D
:10233000483000000000F048487040E00000384895
:102340004838081800007820207000000000302075
:10235000106000000040F040483000000000D84805
:10236000483800000000C848303000000000D8A8FD
:10237000A850000000004830304800000000D8504D
:102380005020206000007850287800001020206045
:10239000202010002020202020202000402020305D
:1023A00020204000000000285000000003E011F849
:1023B000013B00F8013B13465A1E002BF7D1704732
:1023C000130003D00A46194601F0C8BA7047F0B5A9
:1023D0000022002300F500700C24DFF8105B04FBE2
:1023E000035637686FB1D0F800C0674502BF776801
:1023F000D0F808C0674502BF3689C788BE4201D100
:1024000003E001225B1C0C2BE9D30C2B04D162B935
:1024100002290AD01220F0BD29B904FB03504089DB
:10242000B0F5807F01D11020F0BD0020F0BDF0B5E7
:1024300000F500700368D0F808C0DFF8B05A002239
:102440000C2404FB025637689F4204BF7768674537
:1024500002BF3689C788BE4202D0521C0C2AF0D374
:102460000C2A12D1002204FB0256366816B1521C07
:102470000C2AF8D30C2A0DD004FB02563360836873
:102480007360C08830810020708104FB0250438952
:1024900029B10BB10020F0BD4FF4807100E0591C50
:1024A0004181501CF0BD401E0C2815D20C21484320
:1024B000DFF8381A42185389B3F5807F18BF002B14
:1024C00002D10023538103E05B1E53819BB20BB901
:1024D00000224250002070470220704710B50021B2
:1024E000DFF8082A0C234B439C58844204BF002485
:1024F0009C50491C0C29F5D310BD2DE9F8438146A9
:1025000009F201260024F078C0B109F50677D7F862
:10251000148000F016F808B101240FE0F070B868DC
:102520003968A8EB0000884208D2B57804E0386822
:10253000804400F006F86D1E022DF8D22046BDE85A
:10254000F283307801234246494601F05DBA70B506
:1025500004460D46D4F82C020026854211D02046B0
:10256000FFF7CBFF06000CD194F8010201232A46A5
:10257000214601F043FA10B14FF0FF350126C4F8AF
:102580002C52304670BD38B50446FFF7B6FF050043
:102590005FD194F80002032804BF94F805020128D3
:1025A0004FD101F0C4F9552084F8FE010123AA207F
:1025B00084F8FF0121465220207060706120A070D5
:1025C0004120E070722084F8E40184F8E5014120A4
:1025D00084F8E601612084F8E701D4F8100284F859
:1025E000E801D4F810020004000E84F8E901D4F8E0
:1025F0001002000C84F8EA01D4F81002000E84F8EE
:10260000EB01D4F80C0284F8EC01D4F80C020004BD
:10261000000E84F8ED01D4F80C02000C84F8EE01F1
:10262000D4F80C02000E84F8EF01D4F81C02421C0E
:10263000C4F82C2294F8010201F0E6F9002084F895
:102640000502002294F80102002101F0EBF900B12B
:102650000125284632BD00F50572891E13689B1EB0
:10266000994201D30020704790F80202526900FBA2
:10267000012070472DE9F8430D46022D804650D3C6
:1026800008F50076706985424BD2307801284FF00A
:10269000FF3704D045D303282CD01CD341E0306A47
:1026A00005EB550400F0B0F800283BD1E005C00D63
:1026B000641C10F80890306A00F0A6F890BBE005A2
:1026C000C00D10F8080049EA0021E8075ABF0F05BD
:1026D0003F0D0F0926E0306A00EB152100F096F857
:1026E00000BB6800C00508EBD0504178007840EA94
:1026F000012717E0306A00EBD51100F087F888B9A0
:10270000A800C00508EBD0508278C178120442EAD4
:1027100001614278007841EA0221084307013F093C
:1027200000E001273846BDE8F2832DE9F0410C4670
:10273000022C8046154664D308F500767069844201
:102740005FD23078012804D05BD303283FD02FD349
:1027500057E0306A04EB540700EB572100F056F8BD
:1027600000284FD1F8057F1C08EBD05114F001046C
:102770001DBF087800F00F0040EA051028460870D9
:1027800001203071306A00EB572100F03FF800283B
:1027900038D1F90508EBD1510CB12A0906E00A78C5
:1027A0002B0A02F0F00203F00F031A430A7025E02F
:1027B000306A00EB142100F029F818BB6100C9054C
:1027C00008EBD1510D702D042A0E4A7016E0306AC4
:1027D00000EBD41100F01AF8A0B9A100C90508EB6C
:1027E000D151CA78120602F0704215432A04120E23
:1027F0004A700D702A0C8A702A0ECA70012131713C
:1028000000E00220BDE8F08100EB542140469EE646
:102810002DE9F0410C46022C80460DD308F50475D5
:102820006868844208D2002721464046FFF722FF0D
:1028300006001BD0012E01D1022717E016F1010F6F
:1028400001D1012712E0002221464046FFF76DFF2B
:1028500007000BD1286810F1010F03D0401C28603D
:1028600000F058F8344668688442DDD33846BDE845
:10287000F0812DE9F04180460E0008F5037506D180
:102880002C6814B1A86884420ED301240CE0FFF731
:10289000F1FE022838BF01203AD310F1010F37D0E2
:1028A000A968884234D334462746A8687F1C8742EB
:1028B00002D30227022C23D339464046FFF7DAFE23
:1028C000B8B96FF0704239464046FFF72EFF28B97D
:1028D0002EB13A4631464046FFF727FF90B9686867
:1028E0002F6010F1010F12D0401E686000F012F846
:1028F0000DE010F1010F18BF012809D0A742D4D173
:10290000002005E001280CBF4FF0FF3701273846B3
:10291000BDE8F08198F8050240F0010088F8050252
:10292000704700F50070490A426A006890F8020298
:10293000121DB1FBF0F001E0401A0832116809B92C
:10294000002070478842F7D2516808187047F8B5E0
:1029500000F500750C46AE68EC80012E2CD028687E
:1029600000F5007041698E4226D21EB90178032914
:1029700001D1466A26B901898C421DD2406A19E00C
:102980008078070100E0E41B2868BC4231460FD381
:10299000FFF770FE064616F1010F01D10120F2BDCE
:1029A000022E09D32868D0F814028642EBD303E044
:1029B000FFF751FEEE6008B90220F2BD00EB1410E3
:1029C000286104F00F01286800EB411068610020C5
:1029D000F2BDF8B500F500740F46E088451C2804E8
:1029E0001CBF2069002820D015F00F0F5FD1401CBC
:1029F00020612068E16800F2022219B9D08885427E
:102A000055D312E01278521E12EA151F4FD1FFF76C
:102A100031FE0646022E13D316F1010F3BD020687B
:102A2000D0F814128E423DD30FB90420F2BDE168F4
:102A3000FFF71FFF060001D10720F2BD012E01D1D3
:102A40000220F2BD16F1010F25D02068FFF755FDD9
:102A500008BB20684FF4007200F0ADF820683146E2
:102A6000FFF7F9FD2168C1F82C02002706E0206875
:102A7000D0F82C12491CC0F82C127F1C206800F2E0
:102A800002210A78974208D2012088702068FFF757
:102A900034FD0028EBD00120F2BDD0F82C12C91B68
:102AA000C0F82C12E660314600F050FD206105F0C0
:102AB0000F012068E58000EB411060610020F2BD4D
:102AC00090F80002CA7E8B7E032843EA022205D1D9
:102AD000487D097D41EA002042EA004210467047E5
:102AE00081760A04090C0175120E090AC276417535
:102AF000704770B505460E46042005F5007421693F
:102B0000F1B12068FFF723FDD0B961690A780AB9ED
:102B1000042016E0C97A01F03F01E52A1CBF2E2AE5
:102B20000F2907D021F0200108290CBF0121002125
:102B3000B14208D000212846FFF74BFF0028DED025
:102B400008B10021216170BDF8B504460021FFF7EE
:102B5000FEFE050004F5007615D1002731693068C6
:102B6000FFF7F5FC05000ED170690078E5281CBF61
:102B70000028002702D17F1C012F07D0012100F07F
:102B800063F90500EAD0042D08BF072585B931692E
:102B90003068FFF7DCFC05000AD1706900F00AF824
:102BA000B16970690B22FFF701FC316800F0BBFED0
:102BB0002846F2BD20220021FFF702BC30B500F507
:102BC000047001F10902036843B3406800231C5CF0
:102BD0005B1C202C09D0052C08BFE524092B04BF61
:102BE0002E2502F8015B02F8014B0B2BEFD3C37AC1
:102BF0000B72847FC37F240444EA0363447F43EA67
:102C00000423047F23430B60047E437E44EA0323B2
:102C10008B80C37D807D40EA0320C8800020107037
:102C200030BD2DE9F8430C46256800E06D1C29787D
:102C30002F2918BF5C29F9D0D0F818620B22202167
:102C40003046FFF7BDFB00200022804608210FF22E
:102C5000C40C0FF2D00E04E0082940D108200B214B
:102C60003A4618F805309700212B08F10108FFB209
:102C700003DB2F2B18BF5C2B06D14544212B25608D
:102C8000B4BF0423002329E02E2BE5D0884226D2AE
:102C9000802B04DB734442F0030213F8803CE146CE
:102CA00001E009F1010999F80070002F18BF9F4257
:102CB000F7D1A7B9A3F141071A2F03D242F00202BC
:102CC000D2B208E0A3F161071A2F04D242F0010248
:102CD000203BD2B2DBB28355401CC2E708B90620C4
:102CE00015E03078E52804BF05203070082908BFBA
:102CF0003A4602F00300012808BF43F0100302F037
:102D00000C00042808BF43F00803F3720020BDE85C
:102D1000F2830000222A2B2C3A3B3C3D3E3F5B5D78
:102D20007C7F0000808182838485868788898A8B66
:102D30008C8D8E8F90919293949596979899AD9B48
:102D40008C9DAE9FA021A2A3A4A5A6A7A8A9AAABCB
:102D5000ACADAEAFB0B1B2B3B4B5B6B7B8B9BABB3B
:102D6000BCBDBEBFC0C1C2C3C4C5C6C7C8C9CACB2B
:102D7000CCCDCECFD0D1D2D3D4D5D6D7D8D9DADB1B
:102D8000DCDDDEDFC0C1C2C3C4C5C6C7C8C9CACB8B
:102D9000CCCDCECFD0D1D2D3D4D5D6F7D8D9DADBDB
:102DA000DCDDDE9FF2B5044608782F2812BF5C28D0
:102DB000481C009004F500750020A8600098007879
:102DC000202808D200F0A3FD00216961F2BD286827
:102DD000FFF776FEA86000A92046FFF722FF002833
:102DE00030D100F094FDE8B929692868FFF7AFFBFE
:102DF000C0B969690A780AB9042013E0CA7A1207CF
:102E00000CD4AB690B22002617467A1E2FB111F89D
:102E1000016B13F8017BF61BF6D01EB100F013F81E
:102E20000028E1D0A969C97A01F0040120B1042881
:102E300008BF002906D104E021B96969C87AC00633
:102E4000C5D40520F2BD00212046C2E510B50268B8
:102E50004FF0FF31BAB1134600E05B1C1C78212C07
:102E600001D33A2CF9D13A2C0CD112F8014B303C59
:102E70000A2C08D29A4208BF002C04D15A1C002107
:102E8000026000E00021084610BD38B5044604F594
:102E9000FF750020A8714FF0FF30C4F82C022046C7
:102EA000FFF755FB08B1032032BD6878297800F0A0
:102EB00094F901D0022032BD04F13600DFF840154C
:102EC000437882781B0243EA024203781A438A421B
:102ED00008D0437F827F007F1B0243EA02421043F7
:102EE000884201D1002032BD012032BD60B00020F7
:102EF0002DE9F043054685B00020286014460846B9
:102F0000FFF7A4FF070048BF0B2006D4DFF8F484C6
:102F100008EB870046680EB90C205BE12E6096F83E
:102F2000000250B196F8010200F050FDC10704D430
:102F3000002C01D0400710D44BE1002086F800029D
:102F400086F8017296F8010200F049FDC10748BFFA
:102F5000032003D41CB1400701D50A203AE1002127
:102F60003046FFF792FF00270446012C29D10020AC
:102F700000AD06EB001101F5DF710A7952B18B7AD1
:102F8000CA7A1B0443EA02624B7A097A42EA0322B4
:102F9000114300E0002145F82010401C0428E8D32C
:102FA000B94655F8297027B139463046FFF76DFF0D
:102FB00000E00220040004D009F10109B9F1040F76
:102FC000EFD3032C08BF0120C8D0002C01BF307BF9
:102FD000F17A41EA0020B0F5007F19D1F07DB17D92
:102FE00051EA00200CD196F8261096F8270000F040
:102FF00011FA96F8251040EA012096F824100843AB
:10300000317CC6F81802012918BF022986F803127C
:1030100075D14843717B86F8021200296FD04A1E91
:1030200011426CD1B27C737C43EA02220F231A4214
:10303000A6F8082263D1337DF47C54EA03240DD131
:1030400096F8224096F82330240444EA036396F865
:10305000214043EA042396F820401C43F37BB57BD0
:1030600055EA03234BD0C51805EB1215AC4246D3E5
:10307000641BB4FBF1F1002941D0012440F6F67E37
:10308000714528BF02244FF6F67E714528BF032400
:10309000891CC6F81412C6F81C72D919C6F8201279
:1030A000E919032CC6F8281211D142BB96F82E104C
:1030B00096F82F0000F0AEF996F82D1040EA0120A6
:1030C00096F82C100843D6F8141289000EE0B2B11D
:1030D000D6F820124018D6F81412022C0FBF49005F
:1030E00001EB410201F0010101EB5201C6F824029B
:1030F00001F2FF11D6F81802B0EB512F01D20D20CA
:1031000068E04FF0FF30C6F81002C6F80C028020CD
:1031100086F80502032C01BF96F8310096F83010AE
:1031200041EA0020012848D1791C3046FFF70FFA08
:10313000002842D186F8050296F8FE1196F8FF01A4
:1031400000F04BF839D1B178F07800F063F971787C
:1031500040EA012031780843AB4988422DD196F8E6
:10316000E61196F8E70100F055F996F8E51140EA06
:10317000012096F8E4110843A44988421DD196F82D
:10318000EA1196F8EB0100F045F996F8E91140EAEA
:10319000012096F8E8110843C6F8100296F8EE11DF
:1031A00096F8EF0100F036F996F8ED1140EA0120AB
:1031B00096F8EC110843C6F80C0286F80042B8F8FD
:1031C0000000401CA8F80000A6F806023046FFF7F1
:1031D00085F9002005B0BDE8F08341EA00204AF6F9
:1031E00055218842704780B500281EBF00F5007049
:1031F000016800290CD001F500710A7842B1CA8833
:103200008088824204D1487800F0E0FBC00701D5F5
:10321000092002BD002002BD73B582B014460091A2
:1032200000A8FFF713FE002848BF0B201FD47549E4
:1032300001EB80056E682EB13046FFF74FF9002094
:1032400086F80002029808B9686009E00299002037
:1032500081F8000202986860029808B1012C01D040
:10326000002004E0002203A902A8FFF741FE04B0F9
:1032700070BD2DE9F243ADF50C7D08B90920BAE027
:1032800000F500740020206002F01F0505F0FE022A
:1032900000F045FB070068D10DF5037800A8C8F8D9
:1032A000180000F038FB0700D8F814600AD10EB9F6
:1032B000062707E015F0FE0118BF012103A8FFF75C
:1032C00086F807461C2005426CD0002F62D0042FE0
:1032D00011D100204E490C2202FB0012126812B1DB
:1032E000401C0C28F7D30C2808BF122703D003A8D2
:1032F000FFF72AFC0746D8F8146045F008059FBB85
:10330000280737D500F09CFB01460004B173000E7E
:10331000F073080C3074080E707431460020F0729F
:1033200030777077B077F0778398FFF7C9FB8146E5
:1033300000213046FFF7D4FB83990120B9F1000F3B
:1033400081F8040212D08398D0F82C824946FFF706
:103350005FFA070008D18398A9F10101C0F80C12A7
:103360004146FFF7F4F80746002F43D1280748BF2E
:1033700045F020058398D0F82C02E06115F0FE019D
:10338000266218BF012103A8FFF751F8A062B0B967
:1033900002272FE0F07A112108420ED16807AFD53D
:1033A000082727E0002FDFD1F07AC10648BF0427A5
:1033B00020D4A907DAD5C007D8D507271AE0A57108
:1033C0000020E0713146839D2846FFF779FB20619C
:1033D000B17FF07F00F01EF8717F40EA0120317F5D
:1033E00025600843E0600020A060A0616062B5F83D
:1033F0000602A08038460DF50D7DBDE8F083000083
:103400004641540094B100205252614172724161B0
:1034100060B00020090441EA006070472DE9F84FD0
:1034200081461F4600203860924688464846FFF78E
:10343000DAFE002802BF09F50074E079002840F0A8
:103440008280A079C00758BF07207CD5E068A168BA
:10345000401A504517D8824615E0A66100F07FF863
:1034600055468A4588BF0D4600EB09012A4640466D
:10347000FEF79CFFA0682818A060A84438682818A8
:103480003860AAEB050ABAF1000F5BD0A168C80545
:10349000E4D100F06FF88DB909B9206908E0626ADB
:1034A0001AB14846FFF73DFA02E06169FFF7E2F81A
:1034B000022806D310F1010F41D0606100F045F8F9
:1034C00008B902203CE02E185FEA5A2B21D0206870
:1034D00000F201200BEB050241780078914238BFE1
:1034E000A1EB050B5B463246414600F087FA30BB44
:1034F000A07940060AD5A069801B584506D24FF432
:103500000072494608EB4020FEF750FF4FEA4B257A
:10351000B0E7A269B242A0D0A079400605D52068E4
:1035200000F017F858B900F020F80123206890F84F
:1035300001023246494600F061FA00288DD0012090
:10354000E07100E00020BDE8F28F61692068FFF7BC
:1035500082B890F801020123494600F055BAA068EC
:10356000C005C00DC0F500717047A07900F0BF0024
:10357000A0717047206890F802325B1E03EA512563
:10358000EDB2704738B50546FFF72DFE002842D151
:1035900005F50074A1798A063DD5480608D520684E
:1035A000A26900F039F808B1012032BDFFF7DDFF54
:1035B000E1692068FEF7CBFF68BB256AE87A40F036
:1035C0002000E872E0682877E0680004000E687761
:1035D000E068000CA877E068000EE87728462169CB
:1035E000FFF77EFA00F02CFAA8750104090EE975C0
:1035F000010C000E687629760020A874E874A07982
:10360000216800F0DF00A07100F08DF92068BDE8AE
:103610003240FEF7B8BF32BD90F8010201232946BF
:1036200000F0F2B910B50446FFF7ACFF58B92046D8
:10363000FFF7D9FD38B904F50074A06AFEF733FF2F
:1036400008B90021216010BD2DE9F84F81460F46D1
:10365000FFF7C9FD5FEA00083AD109F50075E8797E
:10366000002840F0E380686A002865D017F1010F58
:103670002FD18146286959F8047B0226F8B1044607
:103680004FF0000AB61C834601462868FEF7F2FF99
:1036900002280AF1010AC0F0A38010F1010F74D0D2
:1036A0000BF101018842EED0B74224BF49F804ABC8
:1036B00049F8044B2968D1F814128842DFD3686AAC
:1036C0000660B74232BF4FF011080020C9F8000071
:1036D000ABE0E868B84298BF0746002FAF60F7D06C
:1036E0007F1E39464846FFF71CF968610146286885
:1036F000FEF7B1FF040073D0286800F20120417882
:10370000491E01EA57210C19A968C9051CBFAA69FD
:10371000944210D0A979490608D50078FFF71BFF1D
:10372000002875D1A87900F0BF00A87100F080F8DA
:1037300000286DD1AC6178E0E868B84203D2A9797D
:10374000890758BF0746A9680024002FAC604BD0FA
:10375000286890F80222560271B1491E7B1EB1FB07
:10376000F6F2B3FBF6F3934206D3701E21EA000093
:103770006969A8603F1A0BE0296941B9FFF779F838
:10378000014601292CD011F1010F41D02961696155
:1037900091B929E0FEF76EFF014611F1010F37D014
:1037A00002291DD32868D0F81402814218D2A868D3
:1037B00069613018A860BF1BBE4208D2AA79286888
:1037C0009207E7D5FFF755F80100E6D13746A8681C
:1037D0003818A860F80507D02868FEF73CFF08B93C
:1037E000022016E000EB5724A868C0051CBFAA6998
:1037F000944211D0A879400607D52868FFF7A9FEA2
:1038000030B9A87900F0BF00A87100F011F810B12C
:103810000120E8710AE0AC61A868E968814204D23D
:10382000E860A87940F02000A8714046BDE8F28F1A
:103830000123286890F801022246494600F0DEB8CC
:1038400072B5040085B008BF092039D0002205A94F
:1038500000A8FFF74DFB060004F500752CD1009879
:10386000286001A8A86120460599FFF79BFA060089
:103870001ED1696931B1C87AC0061BD50098FFF71F
:103880001FF9A86000210098B0F80602A880204621
:10389000FFF75DF806000BD1A86808B9E8610EE0F3
:1038A00000212046FEF7C3FDE86140B9122604E07E
:1038B000042E01D1052600E00EB10020286030461C
:1038C00006B070BD70B584B004460D46FFF78BFCA2
:1038D000D8B915B900F01BF817E004F5047600A874
:1038E000B06000212046FFF704F9042802D100202F
:1038F000306000E048B929462046FFF75FF9FFF73E
:10390000A2FA042804BF0020306004B070BD00217A
:103910002046FFF71CB803A88C99FFF743BA8CA97F
:1039200083A8FFF7E5BA012081F8040270474FF43D
:10393000007200212046FEF743BD50F8041B61B120
:1039400050F8042BD30744BFA9F101039A180023B0
:10395000091F42F8043BFAD1EFE7704762F30F22E8
:1039600062F31F42401810F0030308D0C91A1FD396
:10397000DB0748BF00F8012D28BF20F8022D1300F7
:1039800030B414461546103928BF20E93C00FAD857
:10399000490728BF20E90C0048BF40F8042D8900E2
:1039A00028BF20F8022D48BF00F8012D30BC704719
:1039B000C91818BF00F8012DCB0728BF00F8012D4A
:1039C00070470268531C03601170704701461B4A20
:1039D000881802EB81014968007A49680847174A4C
:1039E000014600208B5C43B901208854881802EB03
:1039F00081014968007A09680847704738B500F0C6
:103A000009F8A468A04732BD38B500F003F8E468AF
:103A1000A04732BD0446094D601905EB8404646873
:103A2000007A704710B50346044C181904EB830361
:103A30005B68007A1B69BDE81040184788B1002018
:103A40000020704700F5E0700268914203D343689C
:103A50009A18914202D380680028F5D17047DFF8A8
:103A60005807016891B94FF4803181604FF480515B
:103A700041604FF0FF31C16001610421DFF83C2754
:103A80004161C2F8BC11DFF83817016001207047AE
:103A900001F1080313F0070305D001F10803C3F196
:103AA000080303F007035918D21A8161C26042F07B
:103AB00001034B60511828234B60DFF8FC1609699D
:103AC000C16170472DE9F84F064601F1080010F07A
:103AD000070008BF884607D001F10800C0F10800C0
:103AE00000F0070000EB010802F1080010F00700E9
:103AF00006D002F10800C0F1080000F007008218AB
:103B00001546A5EB0800A0EB030903EB080B43F0F7
:103B10000300C8F80400AB4528BF01F01BFA287960
:103B2000C00758BF01F016FAB9F1100F38BF01F005
:103B300011FAB069854209D1F0684844F060C6F8CE
:103B400018B040F00100CBF804006DE170698542C7
:103B50000BD1B0684844B060C6F814B040F0010121
:103B6000CBF8041040F80B005EE1686800F0030138
:103B7000012940F0AD80C008C0000190C008202895
:103B80003AD2D5F808A0EF680090BD4208BF01F016
:103B9000E1F9554508BF01F0DDF968680099C008F2
:103BA000C000B0EBC10F18BF01F0D4F9009806EBCC
:103BB000C00000F128018A4507D031698A45C0F06C
:103BC0008280DAF80C10A9427DD1574506D1009ABF
:103BD0003068012191408843306076E02830874288
:103BE00005D0306987426ED3B868A8426BD1CAF855
:103BF0000C70C7F808A068E0EF68D5F818A0AF42CD
:103C00000CD0A8683169884223D3C168A94204BF97
:103C1000B968A9421DD1C760B8601CE005F1140065
:103C2000076837B905F110000768A7B101E0084639
:103C3000076807F114010A68002A02BF07F11001A2
:103C40000A68002AF3D13169884202D30021016059
:103C500001E001F07FF9BAF1000F36D0E86906EB18
:103C6000800000F5987001688D4208D10760A7B9FF
:103C7000EA697068012191408843706025E03069ED
:103C8000824508D3DAF81000A84214BFCAF81470AD
:103C9000CAF8107001E001F05DF9B7B130698742F0
:103CA00011D3C7F818A0296929B1814226BF39610B
:103CB0008F6101F04FF9686938B13169884202D3E8
:103CC0007861876101E001F045F901984519814467
:103CD00068684008400068604FEAD90549F0010073
:103CE000CBF8040049F80B90202D23D206EBC50039
:103CF00000F12807BA46B9F1100F38BF01F02AF9D0
:103D0000306820FA05F1C90704D40121A94008430D
:103D1000306006E0B868316988422CBF824601F005
:103D200019F9C7F808B0CAF80CB0CBF808A0CBF85E
:103D30000C7079E05FEA192108BF002023D0B1F5AB
:103D4000803F28BF1F201ED2A1F58070000C00F01C
:103D500008008140A1F58052120C02F0040291404B
:103D6000A1F580431B0CC0F10E0003F00203801A82
:103D7000C01A994000EBD130C11D29FA01F202F0BE
:103D8000010101EB4000CBF81C000022CBF814200D
:103D9000CBF8102006EB8001726822FA00F3DB07F3
:103DA00001F5987107D4012303FA00F01043706005
:103DB000C1F800B01DE01F2809680EBF00204008B0
:103DC000C0F1190009FA00F000E011464A68D20873
:103DD000D2004A4514D0C20F01EB820202F1100357
:103DE00040001A68002AF0D1306983421AD3C3F820
:103DF00000B0CBF81810CBF80CB0CBF808B013E03B
:103E000032698868914228BF90420BD3C0F80CB049
:103E1000C1F808B0CBF80800CBF80C100020CBF8A4
:103E2000180001E001F096F808F10800BDE8E68FFF
:103E30002DE9FA4D0546DFF88003006884B008B923
:103E4000FFF70DFEDFF870030499806841182F31E9
:103E5000401E21EA00000499814280F0A88105F506
:103E6000D876B16839B132688018824280F09F817B
:103E70008142C0F09C8101F071F800281EBF044609
:103E8000D0F8008014F1010F00F091813068716862
:103E900040448142306038BF01467160A86980BBF0
:103EA000286908B1844200D22C610020F06134619D
:103EB000C6F8148005F12801BF48006868624FF019
:103EC000FF302862002001F10802C9601160801CE7
:103ED00010312028D2609260F5D3B848854203D1D2
:103EE000A8F12802214629E055F8040CC00805EB8A
:103EF000C000A0F1080108EB0400401AA0F128025C
:103F00001CE005F5E071084600E08068D0B1026869
:103F100043689A189442F8D1027B120712D4AA6916
:103F200003689A420ED347683B449A420AD208EB90
:103F300007014160E868A96908EB00022846FFF71D
:103F4000A7FD1EE128698442084638BF2C6108EBB2
:103F5000040100E0806880B102688A42FAD1017BE6
:103F600009070AD404604168414441602146049B2A
:103F7000284606B0BDE8F04DA4E5AF6939462846AD
:103F8000FFF760FD01684068401802902F3800F18B
:103F9000080111F0070105D000F10801C1F1080185
:103FA00001F00701081807F11001884234BF00979B
:103FB000009000980830019004F10801009800F189
:103FC000180A11F007014FF0000BA8F1280005D0E6
:103FD00004F10801C1F1080101F007010A19401AB2
:103FE000AA61E86040F00101516080182821416019
:103FF00071480069E861019810F0070018BF00F0EF
:10400000A9FF00991B20486005F5E071B1E80C504C
:104010000198A0E80C503461C6F81480C6F81CB0B2
:104020000198B061029800E08A460722CAF804208D
:104030000AF104010A1D82420BF1010BF4D3BBF11A
:10404000020FB8BF00F086FF0098B84200F09980D8
:10405000C01BC119C4084A68520852004A6040F0A7
:1040600001017960C051202C20D205EBC40101F17F
:104070002806B046102838BF00F06CFF286820FAE8
:1040800004F1C90704D40121A1400843286006E0D7
:10409000B068296988422CBF804600F05BFFB7609A
:1040A000C8F80C70C7F80880FE606AE0010A08BF13
:1040B000002223D0B1F5803F28BF1F221ED2A1F5D8
:1040C0008072120C02F008029140A1F580531B0C83
:1040D00003F004039940A1F58044240CC2F10E02C0
:1040E00004F00204D21A121BA14002EBD131CA1D06
:1040F00020FA02F303F0010202EB4102FA6100230D
:104100007B613B6105EB82016B6823FA02F4E407F3
:1041100001F5987105D401209040184368600F6044
:104120001CE01F2A09680EBF00225208C2F11902C2
:1041300000FA02F200E019464B68DB08DB0083421C
:1041400010D0D30F01EB830303F110045200236856
:10415000002BF0D12869844211D32760B961FF6038
:10416000BF600EE02A698868914228BF904206D35A
:10417000C7608F60B860F9600020B86101E000F0AE
:10418000E9FEE8680499814211D2401AE860A96901
:10419000049A5218AA6140F001005060049840F05F
:1041A0000300486006B001F10800BDE8F08D002072
:1041B00006B0BDE8F08D000070B1002088AE002090
:1041C0006859883C2DE9F04D0446002688465FEA90
:1041D0001820C8F1000B08BF002123D0B0F5803FA4
:1041E00028BF1F211ED2A0F58071090C01F0080123
:1041F0008840A0F58052120C02F004029040A0F515
:1042000080431B0CC1F10E0103F00203891AC91A85
:10421000984001EBD030C11D28FA01F202F00101F3
:1042200001EB400104EB8100D0F8300130B31F29CD
:104230000EBF00224A08C2F1190208FA02F2002356
:1042400000E052004768FF08FF00A7EB08075F4542
:1042500003D25FEA070B06460CD047694FEAD27ECD
:1042600000EB8E00002F00691CBF87423B460028F0
:10427000E7D1184600283CD1002E3CD101208840CF
:104280004000414208436168084000F067814142B4
:104290000840411E080B00F0100021FA00F25109FD
:1042A00001F0080122FA01F39A0802F00407FB402A
:1042B0005A0802F00205081823FA05F23844C2F33E
:1042C00040032818181822FA03F1081804EB80009C
:1042D000D0F830010DE008464168C908C900A1EBDB
:1042E000080159453CBF8B46064601690029F2D1B9
:1042F00040690028F0D1002E00F03081A068A0EBCA
:104300000800834580F02A8120698642C0F024811C
:104310007068C008C00008EB0B0108EB0605884276
:1043200018BF00F017FEAE4280F01681F768D6F88D
:1043300018A0B7420CD0B0682169884223D3C16865
:10434000B14204BFB968B1421DD1C760B8601CE07A
:1043500006F11400076837B906F110000768A7B125
:1043600001E00846076807F114010A68002A02BF45
:1043700007F110010A68002AF3D12169884202D3AB
:104380000021016001E000F0E5FDBAF1000F38D036
:10439000F06904EB800000F5987001688E4209D145
:1043A0000760380014D1F2696068012191408843A8
:1043B000606026E02069824508D3DAF81000B04238
:1043C00014BFCAF81470CAF8107001E000F0C2FD02
:1043D000BFB12069874212D3C7F818A0306930B145
:1043E0002169884226BF3861876100F0B3FD70699A
:1043F00038B12169884202D37861876101E000F019
:10440000A9FDBBF1100F0CD208EB0B0040F003002C
:10441000706008EB0B008019416841F001014160B8
:1044200096E048F0030070604BF0010068604FEACE
:10443000DB004BF805B020281DD204EBC00101F1D0
:104440002807216821FA00F2D207BB4605D40122D1
:1044500002FA00F00843206006E0B868216988424B
:104460002CBF834600F076FDBD60CBF80C50C5F83C
:1044700008B0EF606CE05FEA1B2108BF002023D08A
:10448000B1F5803F28BF1F201ED2A1F58070000C1F
:1044900000F008008140A1F58052120C02F00402E5
:1044A0009140A1F580431B0CC0F10E0003F0020304
:1044B000801AC01A994000EBD130C11D2BFA01F2CD
:1044C00002F0010101EB4000E86100226A612A610B
:1044D00004EB8001626822FA00F3DB0701F59871B2
:1044E00006D4012303FA00F0104360600D601CE065
:1044F0001F2809680EBF00204008C0F119000BFA00
:1045000000F000E011464A68D208D2005A4510D0A7
:10451000C20F01EB820202F1100340001A68002A68
:10452000F0D12069834211D31D60A961ED60AD60B7
:104530000EE022698868914228BF904206D3C56088
:104540008D60A860E9600020A86101E000F002FD34
:1045500006F10800BDE8F08D00F0FCFC0020BDE88D
:10456000F08D2DE9F84F04468846606841420840C6
:10457000411E080B00F0100021FA00F2510901F071
:10458000080122FA01F39A0802F0040223FA02F564
:104590006B0803F00203081825FA03F61018C6F397
:1045A00040051818284426FA05F1081804EB800085
:1045B000D0F830014168C908C9000646A1EB080AD5
:1045C00009E008464168C908C900A1EB0801514546
:1045D0003CBF8A46064601690029F2D1406900289D
:1045E000F0D120698642C0F0C4807068C00808EB32
:1045F0000A09C00008EB060B484518BF00F0AAFCEA
:104600005E4580F0B680F768B569B7420CD0B068F7
:104610002169884223D3C168B14204BFB968B1425D
:104620001DD1C760B8601CE006F11400076837B9F7
:1046300006F110000768A7B101E00846076807F116
:1046400014010A68002A02BF07F110010A68002A53
:10465000F3D12169884202D30021016001E000F01A
:1046600079FC002D34D0F06904EB800000F59870DF
:1046700001688E4209D10760380011D1F269606883
:10468000012191408843606022E02069854205D382
:104690002869B04214BF6F612F6101E000F05AFC3D
:1046A000B7B12069874211D3BD61306930B121694A
:1046B000884226BF3861876100F04CFC706938B1D0
:1046C0002169884202D37861876101E000F042FCF1
:1046D000BAF1100F09D249F00300706009EB06002F
:1046E000416841F0010141603FE048F00300706023
:1046F0004AF00100CBF804004AF80BA0D4F8088077
:104700004FEAD805202D28BF00F024FCB8F1000F97
:1047100027D0D4F81490009504EBC50000F12805CB
:104720002F46B8F1100F38BF00F014FC2068009934
:1047300020FA01F2D10705D4009A012191400843E3
:10474000206006E0A868216988422CBF074600F077
:1047500001FCC5F80890C7F80C90C9F80870C9F8B2
:104760000C50C4F808A0C4F814B006F10800BDE865
:10477000F28F00F0EFFB0020BDE8F28F2DE9F04F43
:1047800083B00546C046C046F52DDFF8C04780F02F
:1047900007810B2D31BF102705F10B00C708FF0063
:1047A0002168FE0821FA06F010F0030F42D0C04342
:1047B00000F00100861904EBC60000F12808F7009C
:1047C000D8F808506868C008C000B84218BF00F0A8
:1047D000C1FBD5F80890454508BF00F0BBFB4D452F
:1047E00008BF00F0B7FB6868C008C000B84218BF37
:1047F00000F0B0FBC84505D120680121B1408843D5
:1048000020600DE02069814508D3D9F80C00A8424A
:1048100004D1C8F80890C9F80C8001E000F09AFBB8
:1048200047F00300686078190835416841F00101DC
:104830004160FDE0A168B94280F0C480002800F02A
:10484000A680012505FA06F149004A42B04011430D
:10485000084041420840411E080B00F0100021FAB8
:1048600000F2510901F0080322FA03F18A0802F06C
:10487000040221FA02F6710801F00208181826FA5B
:1048800008F11018C1F340064044301821FA06F22E
:1048900002EB000804EBC80000F128094FEAC80A3F
:1048A000D9F808607068C008C000504518BF00F013
:1048B00051FBD6F808B04E4508BF00F04BFB5E45F3
:1048C00008BF00F047FB7068C008C000504518BF23
:1048D00000F040FBD94505D1206805FA08F188436E
:1048E00020600DE02069834508D3DBF80C00B0425E
:1048F00004D1C9F808B0CBF80C9001E000F02AFB15
:1049000047F003007060AAEB0708B819019048F05F
:10491000010001994860019848F80080A7684FEAB3
:10492000D70ABAF1200F28BF00F014FB47B3CDF827
:1049300000A004EBCA00D4F8149000F1280AD34672
:10494000102F38BF00F006FB2068009920FA01F212
:10495000D10705D4009905FA01F10843206007E06A
:10496000DAF80800216988422CBF834600F0F2FA89
:10497000CAF80890CBF80C90C9F808B0C9F80CA098
:10498000C4F8088006F108050198606150E060688D
:10499000C0B339462046FFF7E4FD050012D047E0DA
:1049A00015F1400F28BF4FF0FF370BD205F10B0078
:1049B000C7086068FF0028B139462046FFF702FCAF
:1049C000050035D1A068B8421CD3C11B626910290B
:1049D0000AD3B8186061A16041F001034360095037
:1049E00047F0030050600AE00021A160616140F0DF
:1049F000030151608018416841F00101416002F1FA
:104A0000080515E0E06887420DD2C01BA169E0608F
:104A10007A18A26140F00100506001F1080547F0EA
:104A20000300486004E039462046FFF701FA0546D6
:104A3000C046C046284603B0BDE8F08F00B97047B5
:104A40002DE9F047A0F10804C046C046DFF8FC5449
:104A500028698442C0F07482616801F00302012A6F
:104A600000F06E82CA084FEAC208CA0708EB0409C0
:104A700036D4226811F0030F00F06482A41A844235
:104A80009044C0F05D8269698C4200F0D880D608FD
:104A9000202E70D2D4F80CA0A768544508BF00F0AF
:104AA00059FABC4208BF00F055FA6068C008C0005F
:104AB000B0EBC60F18BF00F04DFA05EBC60000F1D1
:104AC00028018F4205D029698F4251D3F968A1424C
:104AD0004ED1BA453DD128680121B14088432860B4
:104AE0004C4580F02D82D9F80400C10740F128829E
:104AF000810700F17A81A969894540F0B580E868AD
:104B0000AC614044E86040F00101616069698C4239
:104B100002D100216961A960E969814280F01282B5
:104B2000DFF82C04006808B9FEF799FFA96900298D
:104B300000F00882E868292824BF2846FEF782FF93
:104B4000E869E968884280F0FD814FF0FF30E86154
:104B5000F8E12830824506D02869824508D3DAF882
:104B60000800A04204D1C7F80CA0CAF80870B7E743
:104B700000F0F0F9B4E7E768A669A7420BD0A16896
:104B8000814222D3C868A04204BFB868A0421CD1A9
:104B9000CF60B9601BE004F114010F6837B904F16C
:104BA00010010F689FB101E011460F6807F1140270
:104BB0001368002B02BF07F110021368002BF3D11A
:104BC000814202D30020086001E000F0C3F9002E0A
:104BD00086D0E06905EB800000F5987001688C4292
:104BE00009D10760380011D1E2696868012191405C
:104BF0008843686074E72869864205D33069A0421B
:104C000014BF7761376101E000F0A4F9002F3FF491
:104C100067AF28698742ABD3BE61216929B1814260
:104C200026BF39618F6100F095F9606900283FF473
:104C300057AF296988429BD37861876150E799F81B
:104C4000040000F0030003287FF44AAFC5F8088091
:104C5000D9F8040040084000C9F8040048F00100F9
:104C6000606048F804806DE16969894508D1A868E9
:104C70006C614044A86040F001016160005161E155
:104C8000C008C0004FEAD00ABAF1200F804436D2E3
:104C9000D9F80C70D9F80860B94508BF00F05AF986
:104CA000B14508BF00F056F9D9F80400C008C000AB
:104CB000B0EBCA0F18BF00F04DF905EBCA0000F1C8
:104CC00028018E4206D029698E42C0F08180F168A9
:104CD00049457DD1B74206D12868012101FA0AF180
:104CE0008843286076E02830874205D028698742CB
:104CF0006ED3B86848456BD1F760BE606AE0D9F8FA
:104D00000C70D9F818604F450DD0D9F80800296902
:104D1000884223D3C168494504BFB96849451DD1BC
:104D2000C760B8601CE009F11400076837B909F1E1
:104D300010000768A7B101E00846076807F11401F1
:104D40000A68002A02BF07F110010A68002AF3D19D
:104D50002969884202D30021016001E000F0FAF8DD
:104D6000002E37D0D9F81C0005EB800000F59870B4
:104D7000016889450AD10760380012D1D9F81C2092
:104D80006868012191408843686023E02869864271
:104D900005D33069484514BF7761376101E000F001
:104DA000D9F8BFB12869874212D3BE61D9F8101073
:104DB00029B1814226BF39618F6100F0CBF8D9F863
:104DC000140038B12969884202D37861876101E013
:104DD00000F0C0F848F00100606048F8048068699D
:104DE00084420BD1C5F80880ACE040084000C9F807
:104DF000040048F00100606048F804804FEAD807DA
:104E0000202F22D205EBC70000F128094E46B8F149
:104E1000100F38BF00F09EF8286820FA07F1C90784
:104E200004D40121B9400843286007E0D9F80800FC
:104E3000296988422CBF064600F08CF8C9F8084062
:104E4000F460A660C4F80C907CE05FEA182008BF0C
:104E5000002123D0B0F5803F28BF1F211ED2A0F52E
:104E60008071090C01F008018840A0F58052120CF5
:104E700002F004029040A0F580431B0CC1F10E012A
:104E800003F00203891AC91A984001EBD030C11D02
:104E900028FA01F202F0010101EB400100226261F7
:104EA0002261E16105EB81006A6822FA01F3DB0708
:104EB00000F5987006D4012303FA01F111436960EB
:104EC00004601CE01F2900680EBF00214908C1F1E1
:104ED000190108FA01F100E010464268D208D20038
:104EE000424510D0CA0F00EB820202F110034900C4
:104EF0001A68002AF0D129698B4211D31C60A06185
:104F0000E460A4600EE02A698168904228BF914263
:104F100006D3CC608460E060A1600020A06101E065
:104F200000F018F8286A401E28620BD1D5F8C80195
:104F300000E080680028FCD14FF0FF30286201E0DB
:104F400000F008F8C046C046BDE8F08788AE0020F3
:104F500070B10020012000F017B800000749086870
:104F600008B1002070470648C008C0000860054925
:104F7000C908C900091A0160704700BFA0B100202C
:104F80000FBA002008BE002080B5C046C046024AC5
:104F900011001820ABBEFBE72600020038B504461E
:104FA00000250CB9012032BDA06D28B9204600F0C3
:104FB000E3F8E56584F8545020688168890003D5DA
:104FC000816821F00051816020688168C9000FD498
:104FD000816841F080518160DFF8B003DFF8B013E1
:104FE0000068B0FBF1F00A21484300E0401EFDD10B
:104FF00020688168C90008D4A16D41F01001A16545
:105000000125E16D41F00101E165A16DC90601D401
:105010008168490700F19F80A16D41F00201A165FF
:10502000816801F00301012902D10168C9073AD45E
:10503000DFF86033DFF86013DFF8602398420AD1AD
:1050400000F095F802D11068C0072CD400F08AF85F
:105050001FD108681AE09042986800F003000BD155
:10506000012802D11868C0071DD400F07BF808BFE2
:10507000086804D0002004E0012803D1186800F07B
:10508000010080B900F073F803D1106800F001004E
:1050900000E0002038B9DFF808030168626821F4F5
:1050A0007C1111430160E069A16BDFF8F83241EA3D
:1050B0004030E1680843A1680843616A40EA014062
:1050C000A16A491E40EA4140E16A01291FBF226BE3
:1050D000002A114308432168CA681A401043C86077
:1050E0002068816811F00C0F20D1C168DFF8B82268
:1050F0001140A26941EA8231626B41EA4201C1601A
:10510000E06B0128206801690DD1DFF8A022114071
:10511000226C1143626C1143A26C1143E26C114387
:1051200041F0010101E049084900016120690128BD
:105130002068016B05D1226A0909521E42EA011159
:1051400001E0090909010163A06D20F0020040F0AF
:105150000100A06504E0A06D40F01000A0650125ED
:10516000284632BD886800F0030001287047906827
:1051700000F0030001287047704770B504462068AE
:105180008068400702D400F0FAF801D1022070BD17
:1051900000F0E9F8002843D1A16DDFF8E824DFF83A
:1051A000F451DFF8F431C90446BFE16D21F0060186
:1051B000002100F0C1F8DFF8E8212168A9421EBFF4
:1051C0009942166816F01F0F00F0C6F80E602168AD
:1051D000A94218BF99420DD0136813F01F0F1EBFCC
:1051E000136803F01F03052B1EBF126802F01F0295
:1051F000092A0CD1CA68920105D5A26D22F4005289
:1052000042F48052A265002284F85420B1E000F0FC
:105210009AF805D5A16D21F4005141F48051A165A2
:1052200086E02DE9F047044601266069DFF87071D9
:10523000DFF860810828894608BF082527D0206844
:1052400040451CBFDFF85411884216D100F0B6F873
:105250001EBF396801F01F0105291EBF396801F022
:105260001F01092909D000F0A3F809D0386800F41B
:105270004040B0F5404F09D102E0C068C00705D5F5
:10528000A06D40F02000A06501204FE0042500F053
:10529000B8FA824620680168294211D119F1010F3C
:1052A000F8D0B9F1000F05D000F0ABFAA0EB0A007E
:1052B0008145EFD2A06D40F00400A065032035E0E9
:1052C0000168090758BF002640451CBFDFF8C81019
:1052D00088420CD000F072F81EBF396801F01F013F
:1052E00005291EBF396801F01F01092901D1C168D4
:1052F00002E0DFF800140968082D08BF082202D078
:105300004A0401D404220260A06D40F40070A0653C
:105310005EB12068C06810F4406F06D1880404D4E0
:1053200000F055F801D400F04DF80020BDE8F087FA
:10533000002184F8541070BDE165A16D114041F465
:105340008071A1657047A16D41F48011A165DFF8FE
:10535000A41309688901704703D1A66D26F480164D
:10536000A6651C267047012084F85400204600F0F2
:10537000CFB98A6842F004028A6070BD044694F88E
:105380005400012870470068006C704744010020F9
:1053900040420F000000045000020450000104507D
:1053A0000803045007C0F0FFFDBFFFFF02F8FFFF36
:1053B000386800F44040B0F5004F7047396811F08C
:1053C0001F0F7047A06D40F00100A0657047A06DF1
:1053D00020F48070A065A06DC0047047F8B5024647
:1053E0000020009092F85430012B01D10220F2BD30
:1053F000012382F8543013689C68640700F13A81F5
:105400004E6806271F250C68052E05D27E431F6BAC
:1054100000F062F91C631AE00A2E07D2761F16FB11
:1054200007F65F6B00F058F95C6310E00F2E07D2AF
:105430000A3E16FB07F69F6B00F04EF99C6306E0F0
:105440000F3E16FB07F6DF6B00F046F9DC6307231F
:105450001468A56815F00C0F59D10E688D680A2ED6
:1054600007D30A3E06EB4606A76900F020F9A561BE
:1054700005E006EB4606676900F019F965611468F6
:105480004D69E6680F69C6F3C1067600B540012F85
:105490007B4E06D018D3032F0DD007D3042F0FD087
:1054A00012E0276E00F010F9256630E0676E00F01C
:1054B0000BF965662BE0A76E00F006F9A56626E0FD
:1054C000E76E00F001F921E0256E00F0F7F803D156
:1054D000256E6D006D0825661468656E00F0EEF8A7
:1054E00003D1656E6D006D0865661468A56E00F0E9
:1054F000E5F803D1A56E6D006D08A5661468E56E2C
:1055000000F0DCF803D1E56E6D006D08E56600F093
:10551000C8F802D12568ED0731D40E680125B540E1
:10552000CE68B6F1804F05D0D4F8B030AB43C4F8A4
:10553000B03018E0D4F8B0603543C4F8B0500E680D
:105540008D681468092E07D3093E06EB4606A76945
:1055500000F09AF8A36106E0761C06EB4606676940
:1055600000F092F863610968DFF89431112902D1E3
:105570001C68240203E0122903D11C68E4017BD4D7
:1055800004E0002978D11C68640275D400F089F821
:1055900002D12568ED076DD4DFF86861DFF8585156
:1055A000DFF85871B4420CD100F074F802D13F68B2
:1055B000FF075FD4AF6807F00307012F2CD12F68D6
:1055C00027E0D6F808C0BC420CF0030C13D1BCF1A4
:1055D000010F04D1D6F800C05FEACC7C4AD4D5F8DC
:1055E00008C00CF0030CBCF1010F08BFD5F800C0D7
:1055F00006D0844606E0BCF1010F06D1D6F800C003
:105600000CF0010CBCF1000F34D100F043F803D1D1
:105610003F6807F0010700E000275FBB112916D1A2
:10562000B44218BFAC4227D1196841F40001196097
:10563000354B36490968B1FBF3F1782359430091A2
:10564000009900291CBF0099491EF8D114E01229C5
:1056500007D1B44218BFAC420ED1196841F0807135
:1056600006E0002908BFB44206D1196841F4800160
:10567000196001E000F036F8002182F85410F2BD04
:1056800000F0FF03FEF1FFFFB34027EA0303B5403C
:105690002B437047D7F808C00CF0030CBCF1010F86
:1056A00070471468A56805F00305012D704703FADB
:1056B00006FC27EA0C07B5403D4370470E6805F02D
:1056C000F845B5EB866F70473E400F6846EA87663F
:1056D000354345F000457047B54027EA0505B4401D
:1056E0002C437047906D40F020009065012070477A
:1056F000806D70470C0004500002045000010450FB
:10570000080304500000045040420F0044010020F0
:1057100038B500F03FF802D10168C90710D481689C
:105720006FF39E1159B900F00DF805462068016825
:10573000C90705D400F006F8401B0328F6D330E073
:10574000002032BD816841F00101816000F059B84C
:1057500038B500F01FF81BD10168C90718D581685A
:1057600001F00D01012912D1816841F0020181602F
:1057700003202168086000F044F80546206880682E
:10578000C00705D500F03DF8401B0328F6D308E01C
:10579000002032BD04462068816801F00301012920
:1057A000704700F001F832BDA06D40F01000A06518
:1057B000E06D40F00100E0650120704780B50320F6
:1057C00000F042F80F2000F005F800F002F8002089
:1057D00002BD704710B5044600F00CFC4FF47A711E
:1057E000B0FBF1F000F069F8002221464FF0FF30E5
:1057F00000F037F8002010BD09480168491C01601D
:10580000704707480068704738B50446FFF7F9FF4E
:105810000546FFF7F6FF401BA042FAD331BD00005A
:105820009CB100202F480068C0F302207047090196
:10583000002806D52C4A00F00F00801800F8041C40
:1058400070472A4A8154704726490A684FF6FF0379
:105850001A4000F0070042EA0020254A1043086081
:10586000704770B504460D461646FFF7DBFF00F0A3
:1058700007000121C0F10702052A2EBF0F2201FAFD
:1058800002F2521E031D072B34BF0020C01E2A4007
:10589000824001FA00F0401E304040EA02012046FA
:1058A000BDE87040C3E7012100F01F029140114A9A
:1058B000FFE7400942F82010704710B5401EB0F1D4
:1058C000807F01D3012010BD0B4C60600F214FF091
:1058D000FF30FFF7ACFF0020A06007202060002011
:1058E00010BD00000CED00E018ED00E000E400E069
:1058F0000000FA0500E100E010E000E02DE9F047CB
:10590000044682B02078DFF88857DFF88067C00649
:1059100025D5B06810F00C0F3AD13068C0F34000C4
:1059200010B1A069002831D0306800074EBF306840
:105930006868000900F0F001206A814206D200F098
:1059400068FB002822D100F0DDF905E000F0DAF96B
:10595000206A00F05EFBC8B90F20FFF73BFF2078FC
:10596000C00741F2893876D500F0D7FA07D000F0A9
:10597000D9FA02BFF06800F0030003282ED100F02E
:10598000BDF9002867D06068002864D10120A3E138
:10599000A0690028306811D040F0010000F0A5F99E
:1059A00007463068C0F3400028B9FFF72AFFC01B44
:1059B0006528F6D38DE100F0A5F9D0E74008400056
:1059C00000F093F907463068C0F340000028C6D0C5
:1059D000FFF717FFC01B6528F5D37AE100F088F9BF
:1059E00020F4802000F081F9074600F087F928B103
:1059F000FFF707FFC01B4045F7D36AE16068B0F5C9
:105A0000803F07D0B0F5A02F00F072F906D140F426
:105A100080203060306840F4803001E020F4802045
:105A20003060606858B1FFF7ECFE074600F066F999
:105A300088B9FFF7E6FEC01B4045F7D349E1FFF701
:105A4000E0FE074600F05AF928B1FFF7DAFEC01B66
:105A50004045F7D33DE12078800718D500F058FA8B
:105A600007D000F05FFA02BFF06800F003000228E0
:105A700025D13068C0F3802010B1E068002885D0BF
:105A80007068216920F0F85040EA01607060207869
:105A9000000748D560690028686834D040F00100EC
:105AA0006860FFF7AEFE07466868C0F34000002854
:105AB00039D1FFF7A6FEC01B6528F5D309E1E068E0
:105AC000002830680FD040F4807000F00EF90746CF
:105AD0003068C0F380200028D2D1FFF792FEC01BAF
