:020000040800F2
:1000000060180120B97E01089D7C01089F7C0108D1
:10001000A17C0108A37C0108A57C01080000000068
:10002000000000000000000000000000651E010844
:10003000A77C0108000000000D1E0108A97C010832
:10004000F17E0108F57E0108F97E0108FD7E0108B8
:10005000017F0108057F0108AD7C0108B37C010820
:10006000B97C0108BF7C0108097F01080D7F0108E8
:10007000117F0108157F0108DB7C0108197F010849
:100080001D7F0108217F0108257F0108297F0108C4
:100090002D7F0108317F0108357F0108C57C0108EB
:1000A000397F01083D7F0108417F0108457F010834
:1000B000497F01084D7F0108517F0108557F0108E4
:1000C000597F01085D7F0108617F0108657F010894
:1000D000697F01086D7F0108717F0108757F010844
:1000E000CB7C0108797F01087D7F0108817F0108B1
:1000F000857F0108897F01088D7F0108917F0108B4
:10010000957F0108997F01089D7F0108A17F010863
:10011000A57F0108A97F0108ABBF0008AD7F0108DA
:10012000D37C0108B17F0108B57F0108B97F0108C0
:10013000BD7F0108C17F0108C57F0108C97F010893
:10014000CD7F0108D17F0108D57F0108D97F010843
:10015000DD7F0108E17F0108E57F0108E97F0108F3
:10016000ED7F0108F17F0108F57F0108F97F0108A3
:10017000FD7F0108018001080580010800000000E2
:10018000098001080D8001080000803F0000000088
:10019000B1FF7F3FC70F493BC4FE7F3F890FC93B7B
:1001A00039FD7F3F59CB163C11FB7F3F900E493CF8
:1001B0004AF87F3F4B517B3CE6F47F3FB6C9963C03
:1001C000E3F07F3F69EAAF3C43EC7F3FB00AC93CB4
:1001D00005E77F3F7B2AE23C29E17F3FB949FB3CB1
:1001E000AFDA7F3F2F340A3D98D37F3F2CC3163DB3
:1001F000E2CB7F3FCC51233D8FC37F3F07E02F3DB4
:100200009EBA7F3FD56D3C3D0FB17F3F2FFB483DF0
:10021000E3A67F3F0E88553D189C7F3F6814623DE2
:10022000B1907F3F38A06E3DAB847F3F742B7B3D08
:1002300008787F3F0ADB833DC76A7F3F0A208A3DFB
:10024000E95C7F3FB464903D6D4E7F3F05A9963DCC
:10025000543F7F3FF9EC9C3D9D2F7F3F8C30A33D69
:10026000491F7F3FBA73A93D580E7F3F80B6AF3D0F
:10027000C9FC7E3FDAF8B53D9DEA7E3FC33ABC3DFE
:10028000D4D77E3F397CC23D6DC47E3F36BDC83D6C
:1002900069B07E3FB7FDCE3DC99B7E3FB93DD53DA0
:1002A0008B867E3F377DDB3DB0707E3F2EBCE13DCF
:1002B000385A7E3F9AFAE73D23437E3F7638EE3D3B
:1002C000722B7E3FC075F43D24137E3F73B2FA3D1E
:1002D00038FA7D3F4577003EB1E07D3F0295033E11
:1002E0008CC67D3F6EB2063ECCAB7D3F86CF093ECD
:1002F0006E907D3F4AEC0C3E74747D3FB708103E13
:10030000DE577D3FCA24133EAC3A7D3F8340163E04
:10031000DD1C7D3FE05B193E73FE7C3FDE761C3EBC
:100320006CDF7C3F7B911F3EC9BF7C3FB6AB223E5A
:100330008A9F7C3F8CC5253EB07E7C3FFCDE283EFC
:100340003A5D7C3F04F82B3E283B7C3FA2102F3EB9
:100350007A187C3FD428323E31F57B3F9840353EB9
:100360004DD17B3FEC57383ECDAC7B3FCF6E3B3E13
:10037000B2877B3F3E853E3EFC617B3F379B413EE3
:10038000AB3B7B3FB9B0443EBE147B3FC2C5473E4A
:1003900037ED7A3F4FDA4A3E16C57A3F60EE4D3E62
:1003A000599C7A3FF101513E02737A3F0115543E48
:1003B00010497A3F8F27573E841E7A3F97395A3E1D
:1003C0005EF3793F1A4B5D3E9DC7793F135C603EFB
:1003D000439B793F836C633E4E6E793F667C663EFD
:1003E000C040793FBA8B693E9812793F7F9A6C3E44
:1003F000D6E3783FB2A86F3E7BB4783F51B6723EE9
:100400008684783F5AC3753EF853783FCCCF783E08
:10041000D122783FA4DB7B3E10F1773FE1E67E3EC0
:10042000B7BE773FC0F8803EC58B773FC07D823E28
:100430003A58773F7002843E1724773FCE86853E38
:100440005BEF763FDA0A873E07BA763F938E883EA7
:100450001B84763FF8118A3E974D763F07958B3E79
:100460007A16763FC0178D3EC6DE753F229A8E3EC5
:100470007BA6753F2C1C903E976D753FDD9D913E90
:100480001D34753F351F933E0BFA743F31A0943EE7
:1004900062BF743FD220963E2284743F17A1973EDC
:1004A0004B48743FFE20993EDD0B743F86A09A3E78
:1004B000D9CE733FAF1F9C3E3F91733F789E9D3EC8
:1004C0000E53733FDF1C9F3E4714733FE59AA03ED7
:1004D000EBD4723F8718A23EF894723FC595A33EB5
:1004E0007054723F9F12A53E5213723F128FA63E68
:1004F0009FD1713F1F0BA83E578F713FC486A93E05
:100500007A4C713F0102AB3E0809713FD47CAC3E8E
:1005100002C5703F3CF7AD3E6680703F3A71AF3E1A
:10052000373B703FCBEAB03E73F56F3FEF63B23EAF
:100530001BAF6F3FA5DCB33E30686F3FEC54B53E58
:10054000B0206F3FC3CCB63E9ED86E3F2A44B83E23
:10055000F88F6E3F1EBBB93EBE466E3FA031BB3E1C
:10056000F2FC6D3FAFA7BC3E93B26D3F4A1DBE3E4D
:10057000A1676D3F6F92BF3E1D1C6D3F1E07C13EC0
:1005800007D06C3F557BC23E5E836C3F15EFC33E88
:1005900024366C3F5C62C53E58E86B3F29D5C63EA9
:1005A000FB996B3F7C47C83E0C4B6B3F53B9C93E30
:1005B0008CFB6A3FAE2ACB3E7BAB6A3F8B9BCC3E2B
:1005C000D95A6A3FEA0BCE3EA7096A3FCA7BCF3EA3
:1005D000E4B7693F2AEBD03E9165693F095AD23EA4
:1005E000AE12693F67C8D33E3CBF683F4136D53E37
:1005F000396B683F99A3D63EA816683F6B10D83E6A
:1006000087C1673FB97CD93ED86B673F80E8DA3E47
:100610009915673FC153DC3ECCBE663F79BEDD3ED7
:100620007167663FA928DF3E880F663F4F92E03E24
:1006300010B7653F6AFBE13E0B5E653FFA63E33E40
:100640007904653FFECBE43E59AA643F7533E63E2C
:10065000AC4F643F5D9AE73E73F4633FB700E93EF9
:10066000AC98633F8166EA3E5A3C633FBBCBEB3EAE
:100670007BDF623F6330ED3E1082623F7994EE3E55
:100680001A24623FFBF7EF3E98C5613FEA5AF13EFC
:100690008A66613F43BDF23EF206613F071FF43EAA
:1006A000CFA6603F3580F53E2146603FCBE0F63E69
:1006B000E9E45F3FC840F83E27835F3F2DA0F93E45
:1006C000DB205F3FF7FEFA3E05BE5E3F275DFC3E46
:1006D000A65A5E3FBBBAFD3EBEF65D3FB217FF3E77
:1006E0004D925D3F063A003F532D5D3FE4E7003FEA
:1006F000D1C75C3F7395013FC7615C3FB142023F88
:1007000034FB5B3F9FEF023F1A945B3F3D9C033FEE
:10071000792C5B3F8948043F50C45A3F84F4043F1E
:10072000A05B5A3F2CA0053F6AF2593F824B063F1F
:10073000AD88593F86F6063F6A1E593F36A1073FEE
:10074000A1B3583F924B083F5348583F9BF5083F91
:100750007FDC573F4E9F093F2670573FAD480A3F09
:100760004803573FB7F10A3FE595563F6B9A0B3F59
:10077000FE27563FC9420C3F93B9553FD0EA0C3F84
:10078000A44A553F81920D3F31DB543FDA390E3F89
:100790003B6B543FDBE00E3FC3FA533F84870F3F70
:1007A000C789533FD52D103F4918533FCDD3103F34
:1007B00049A6523F6B79113FC633523FB01E123FDC
:1007C000C2C0513F9AC3123F3D4D513F2A68133F6B
:1007D00037D9503F5F0C143FAF64503F39B0143FDE
:1007E000A8EF4F3FB753153F1F7A4F3FD9F6153F3C
:1007F00017044F3F9F99163F908D4E3F073C173F80
:1008000089164E3F12DE173F029F4D3FC07F183FB3
:10081000FD264D3F0F21193F79AE4C3F00C2193FD5
:1008200078354C3F93621A3FF8BB4B3FC6021B3FE3
:10083000FA414B3F99A21B3F7FC74A3F0C421C3FE6
:10084000874C4A3F1FE11C3F12D1493FD17F1D3FDA
:100850002155493F221E1E3FB3D8483F12BC1E3FC0
:10086000CA5B483F9F591F3F65DE473FCBF61F3F9E
:100870008560473F9393203F2AE2463FF92F213F6F
:100880005463463FFBCB213F03E4453F9967223F3A
:100890003964453FD302233FF5E3443FA99D233FFD
:1008A0003763443F1A38243F00E2433F25D2243FB8
:1008B0005160433FCB6B253F29DE423F0A05263F6F
:1008C000895B423FE39D263F70D8413F5636273F24
:1008D000E154413F61CE273FDAD0403F0566283FD3
:1008E0005C4C403F41FD283F67C73F3F1594293F7F
:1008F000FC413F3F802A2A3F1BBC3E3F82C02A3F2B
:10090000C5353E3F1B562B3FF9AE3D3F4AEB2B3FD3
:10091000B8273D3F0F802C3F03A03C3F69142D3F7B
:10092000D9173C3F59A82D3F3B8F3B3FDE3B2E3F25
:1009300029063B3FF7CE2E3FA47C3A3FA5612F3FCF
:10094000ACF2393FE6F32F3F4268393FBB85303F79
:1009500065DD383F2217313F1652383F1DA8313F21
:1009600055C6373FAA38323F233A373FC9C8323FCE
:100970007FAD363F7A58333F6C20363FBCE7333F7C
:10098000E792353F8F76343FF304353FF304353F2C
:100990008F76343FE792353FBCE7333F6C20363FDC
:1009A0007A58333F7FAD363FC9C8323F233A373F8D
:1009B000AA38323F55C6373F1DA8313F1652383F3F
:1009C0002217313F65DD383FBB85303F4268393FF4
:1009D000E6F32F3FACF2393FA5612F3FA47C3A3FAD
:1009E000F7CE2E3F29063B3FDE3B2E3F3B8F3B3F62
:1009F00059A82D3FD9173C3F69142D3F03A03C3F18
:100A00000F802C3FB8273D3F4AEB2B3FF9AE3D3FCF
:100A10001B562B3FC5353E3F82C02A3F1BBC3E3F85
:100A2000802A2A3FFC413F3F1594293F67C73F3F3B
:100A300041FD283F5C4C403F0566283FDAD0403FEF
:100A400061CE273FE154413F5636273F70D8413FA2
:100A5000E39D263F895B423F0A05263F29DE423F50
:100A6000CB6B253F5160433F25D2243F00E2433FFB
:100A70001A38243F3763443FA99D233FF5E3443FA1
:100A8000D302233F3964453F9967223F03E4453F42
:100A9000FBCB213F5463463FF92F213F2AE2463FDB
:100AA0009393203F8560473FCBF61F3F65DE473F6E
:100AB0009F591F3FCA5B483F12BC1E3FB3D8483FF7
:100AC000221E1E3F2155493FD17F1D3F12D1493F74
:100AD0001FE11C3F874C4A3F0C421C3F7FC74A3FE7
:100AE00099A21B3FFA414B3FC6021B3FF8BB4B3F4D
:100AF00093621A3F78354C3F00C2193F79AE4C3FA4
:100B00000F21193FFD264D3FC07F183F029F4D3FEB
:100B100012DE173F89164E3F073C173F908D4E3F20
:100B20009F99163F17044F3FD9F6153F1F7A4F3F45
:100B3000B753153FA8EF4F3F39B0143FAF64503F54
:100B40005F0C143F37D9503F2A68133F3D4D513F4A
:100B50009AC3123FC2C0513FB01E123FC633523F2C
:100B60006B79113F49A6523FCDD3103F4918533FEF
:100B7000D52D103FC789533F84870F3FC3FA533F9A
:100B8000DBE00E3F3B6B543FDA390E3F31DB543F25
:100B900081920D3FA44A553FD0EA0C3F93B9553F8F
:100BA000C9420C3FFE27563F6B9A0B3FE595563FD7
:100BB000B7F10A3F4803573FAD480A3F2670573FF9
:100BC0004E9F093F7FDC573F9BF5083F5348583FF6
:100BD000924B083FA1B3583F36A1073F6A1E593FC9
:100BE00086F6063FAD88593F824B063F6AF2593F71
:100BF0002CA0053FA05B5A3F84F4043F50C45A3FE9
:100C00008948043F792C5B3F3D9C033F1A945B3F2E
:100C10009FEF023F34FB5B3FB142023FC7615C3F45
:100C20007395013FD1C75C3FE4E7003F532D5D3F23
:100C3000063A003F4D925D3FB217FF3EBEF65D3F64
:100C4000BBBAFD3EA65A5E3F275DFC3E05BE5E3F39
:100C5000F7FEFA3EDB205F3F2DA0F93E27835F3F82
:100C6000C840F83EE9E45F3FCBE0F63E2146603FF6
:100C70003580F53ECFA6603F071FF43EF206613F88
:100C800043BDF23E8A66613FEA5AF13E98C5613F34
:100C9000FBF7EF3E1A24623F7994EE3E1082623FEA
:100CA0006330ED3E7BDF623FBBCBEB3E5A3C633FA4
:100CB0008166EA3EAC98633FB700E93E73F4633F58
:100CC0005D9AE73EAC4F643F7533E63E59AA643FF8
:100CD000FECBE43E7904653FFA63E33E0B5E653F7D
:100CE0006AFBE13E10B7653F4F92E03E880F663FDA
:100CF000A928DF3E7167663F79BEDD3ECCBE663F08
:100D0000C153DC3E9915673F80E8DA3ED86B673FF8
:100D1000B97CD93E87C1673F6B10D83EA816683FA3
:100D200099A3D63E396B683F4136D53E3CBF683FFC
:100D300067C8D33EAE12693F095AD23E9165693FFA
:100D40002AEBD03EE4B7693FCA7BCF3EA7096A3F92
:100D5000EA0BCE3ED95A6A3F8B9BCC3E7BAB6A3FB7
:100D6000AE2ACB3E8CFB6A3F53B9C93E0C4B6B3F5E
:100D70007C47C83EFB996B3F29D5C63E58E86B3F80
:100D80005C62C53E24366C3F15EFC33E5E836C3F0C
:100D9000557BC23E07D06C3F1E07C13E1D1C6D3FF8
:100DA0006F92BF3EA1676D3F4A1DBE3E93B26D3F3D
:100DB000AFA7BC3EF2FC6D3FA031BB3EBE466E3FCE
:100DC0001EBBB93EF88F6E3F2A44B83E9ED86E3F98
:100DD000C3CCB63EB0206F3FEC54B53E30686F3F99
:100DE000A5DCB33E1BAF6F3FEF63B23E73F56F3FC1
:100DF000CBEAB03E373B703F3A71AF3E6680703F02
:100E00003CF7AD3E02C5703FD47CAC3E0809713F53
:100E10000102AB3E7A4C713FC486A93E578F713FA9
:100E20001F0BA83E9FD1713F128FA63E5213723FF7
:100E30009F12A53E7054723FC595A33EF894723F31
:100E40008718A23EEBD4723FE59AA03E4714733F49
:100E5000DF1C9F3E0E53733F789E9D3E3F91733F34
:100E6000AF1F9C3ED9CE733F86A09A3EDD0B743FE8
:100E7000FE20993E4B48743F17A1973E2284743F51
:100E8000D220963E62BF743F31A0943E0BFA743F6D
:100E9000351F933E1D34753FDD9D913E976D753F27
:100EA0002C1C903E7BA6753F229A8E3EC6DE753F77
:100EB000C0178D3E7A16763F07958B3E974D763F4D
:100EC000F8118A3E1B84763F938E883E07BA763FA0
:100ED000DA0A873E5BEF763FCE86853E1724773F62
:100EE0007002843E3A58773FC07D823EC58B773F83
:100EF000C0F8803EB7BE773FE1E67E3E10F1773F17
:100F0000A4DB7B3ED122783FCCCF783EF853783FAC
:100F10005AC3753E8684783F51B6723E7BB4783FA3
:100F2000B2A86F3ED6E3783F7F9A6C3E9812793F25
:100F3000BA8B693EC040793F667C663E4E6E793F13
:100F4000836C633E439B793F135C603E9DC7793F52
:100F50001A4B5D3E5EF3793F97395A3E841E7A3FC5
:100F60008F27573E10497A3F0115543E02737A3F4E
:100F7000F101513E599C7A3F60EE4D3E16C57A3FD5
:100F80004FDA4A3E37ED7A3FC2C5473EBE147B3F3B
:100F9000B9B0443EAB3B7B3F379B413EFC617B3F5E
:100FA0003E853E3EB2877B3FCF6E3B3ECDAC7B3F26
:100FB000EC57383E4DD17B3F9840353E31F57B3F75
:100FC000D428323E7A187C3FA2102F3E283B7C3F2B
:100FD00004F82B3E3A5D7C3FFCDE283EB07E7C3F31
:100FE0008CC5253E8A9F7C3FB6AB223EC9BF7C3F65
:100FF0007B911F3E6CDF7C3FDE761C3E73FE7C3FA8
:10100000E05B193EDD1C7D3F8340163EAC3A7D3FE0
:10101000CA24133EDE577D3FB708103E74747D3FEF
:101020004AEC0C3E6E907D3F86CF093ECCAB7D3FB7
:101030006EB2063E8CC67D3F0295033EB1E07D3F19
:101040004577003E38FA7D3F73B2FA3D24137E3F68
:10105000C075F43D722B7E3F7638EE3D23437E3FD4
:101060009AFAE73D385A7E3F2EBCE13DB0707E3F94
:10107000377DDB3D8B867E3FB93DD53DC99B7E3FAD
:10108000B7FDCE3D69B07E3F36BDC83D6DC47E3FE5
:10109000397CC23DD4D77E3FC33ABC3D9DEA7E3FFA
:1010A000DAF8B53DC9FC7E3F80B6AF3D580E7F3FB4
:1010B000BA73A93D491F7F3F8C30A33D9D2F7F3FD1
:1010C000F9EC9C3D543F7F3F05A9963D6D4E7F3F17
:1010D000B464903DE95C7F3F0A208A3DC76A7F3F48
:1010E0000ADB833D08787F3F742B7B3DAB847F3FD9
:1010F00038A06E3DB1907F3F6814623D189C7F3FE1
:101100000E88553DE3A67F3F2FFB483D0FB17F3F43
:10111000D56D3C3D9EBA7F3F07E02F3D8FC37F3F9B
:10112000CC51233DE2CB7F3F2CC3163D98D37F3F6C
:101130002F340A3DAFDA7F3FB949FB3C29E17F3FBD
:101140007B2AE23C05E77F3FB00AC93C43EC7F3F86
:1011500069EAAF3CE3F07F3FB6C9963CE6F47F3FD7
:101160004B517B3C4AF87F3F900E493C11FB7F3F3F
:1011700059CB163C39FD7F3F890FC93BC4FE7F3FE9
:10118000C70F493BB1FF7F3F000000000000803FD8
:10119000C70F49BBB1FF7F3F890FC9BBC4FE7F3F6B
:1011A00059CB16BC39FD7F3F900E49BC11FB7F3FE8
:1011B0004B517BBC4AF87F3FB6C996BCE6F47F3FF3
:1011C00069EAAFBCE3F07F3FB00AC9BC43EC7F3FA4
:1011D0007B2AE2BC05E77F3FB949FBBC29E17F3FA1
:1011E0002F340ABDAFDA7F3F2CC316BD98D37F3FA3
:1011F000CC5123BDE2CB7F3F07E02FBD8FC37F3FA4
:10120000D56D3CBD9EBA7F3F2FFB48BD0FB17F3FE0
:101210000E8855BDE3A67F3F681462BD189C7F3FD2
:1012200038A06EBDB1907F3F742B7BBDAB847F3FF8
:101230000ADB83BD08787F3F0A208ABDC76A7F3FEB
:10124000B46490BDE95C7F3F05A996BD6D4E7F3FBC
:10125000F9EC9CBD543F7F3F8C30A3BD9D2F7F3F59
:10126000BA73A9BD491F7F3F80B6AFBD580E7F3FFF
:10127000DAF8B5BDC9FC7E3FC33ABCBD9DEA7E3FEE
:10128000397CC2BDD4D77E3F36BDC8BD6DC47E3F5C
:10129000B7FDCEBD69B07E3FB93DD5BDC99B7E3F90
:1012A000377DDBBD8B867E3F2EBCE1BDB0707E3FBF
:1012B0009AFAE7BD385A7E3F7638EEBD23437E3F2B
:1012C000C075F4BD722B7E3F73B2FABD24137E3F0E
:1012D000457700BE38FA7D3F029503BEB1E07D3F01
:1012E0006EB206BE8CC67D3F86CF09BECCAB7D3FBD
:1012F0004AEC0CBE6E907D3FB70810BE74747D3F03
:10130000CA2413BEDE577D3F834016BEAC3A7D3FF4
:10131000E05B19BEDD1C7D3FDE761CBE73FE7C3FAC
:101320007B911FBE6CDF7C3FB6AB22BEC9BF7C3F4A
:101330008CC525BE8A9F7C3FFCDE28BEB07E7C3FEC
:1013400004F82BBE3A5D7C3FA2102FBE283B7C3FA9
:10135000D42832BE7A187C3F984035BE31F57B3FA9
:10136000EC5738BE4DD17B3FCF6E3BBECDAC7B3F03
:101370003E853EBEB2877B3F379B41BEFC617B3FD3
:10138000B9B044BEAB3B7B3FC2C547BEBE147B3F3A
:101390004FDA4ABE37ED7A3F60EE4DBE16C57A3F52
:1013A000F10151BE599C7A3F011554BE02737A3F38
:1013B0008F2757BE10497A3F97395ABE841E7A3F0D
:1013C0001A4B5DBE5EF3793F135C60BE9DC7793FEB
:1013D000836C63BE439B793F667C66BE4E6E793FED
:1013E000BA8B69BEC040793F7F9A6CBE9812793F34
:1013F000B2A86FBED6E3783F51B672BE7BB4783FD9
:101400005AC375BE8684783FCCCF78BEF853783FF8
:10141000A4DB7BBED122783FE1E67EBE10F1773FB0
:10142000C0F880BEB7BE773FC07D82BEC58B773F18
:10143000700284BE3A58773FCE8685BE1724773F28
:10144000DA0A87BE5BEF763F938E88BE07BA763F97
:10145000F8118ABE1B84763F07958BBE974D763F69
:10146000C0178DBE7A16763F229A8EBEC6DE753FB5
:101470002C1C90BE7BA6753FDD9D91BE976D753F80
:10148000351F93BE1D34753F31A094BE0BFA743FD7
:10149000D22096BE62BF743F17A197BE2284743FCC
:1014A000FE2099BE4B48743F86A09ABEDD0B743F68
:1014B000AF1F9CBED9CE733F789E9DBE3F91733FB8
:1014C000DF1C9FBE0E53733FE59AA0BE4714733FC7
:1014D0008718A2BEEBD4723FC595A3BEF894723FA5
:1014E0009F12A5BE7054723F128FA6BE5213723F58
:1014F0001F0BA8BE9FD1713FC486A9BE578F713FF5
:101500000102ABBE7A4C713FD47CACBE0809713F7E
:101510003CF7ADBE02C5703F3A71AFBE6680703F0A
:10152000CBEAB0BE373B703FEF63B2BE73F56F3F9F
:10153000A5DCB3BE1BAF6F3FEC54B5BE30686F3F48
:10154000C3CCB6BEB0206F3F2A44B8BE9ED86E3F13
:101550001EBBB9BEF88F6E3FA031BBBEBE466E3F0C
:10156000AFA7BCBEF2FC6D3F4A1DBEBE93B26D3F3D
:101570006F92BFBEA1676D3F1E07C1BE1D1C6D3FB0
:10158000557BC2BE07D06C3F15EFC3BE5E836C3F78
:101590005C62C5BE24366C3F29D5C6BE58E86B3F99
:1015A0007C47C8BEFB996B3F53B9C9BE0C4B6B3F20
:1015B000AE2ACBBE8CFB6A3F8B9BCCBE7BAB6A3F1B
:1015C000EA0BCEBED95A6A3FCA7BCFBEA7096A3F93
:1015D0002AEBD0BEE4B7693F095AD2BE9165693F94
:1015E00067C8D3BEAE12693F4136D5BE3CBF683F27
:1015F00099A3D6BE396B683F6B10D8BEA816683F5A
:10160000B97CD9BE87C1673F80E8DABED86B673F37
:10161000C153DCBE9915673F79BEDDBECCBE663FC7
:10162000A928DFBE7167663F4F92E0BE880F663F14
:101630006AFBE1BE10B7653FFA63E3BE0B5E653F30
:10164000FECBE4BE7904653F7533E6BE59AA643F1C
:101650005D9AE7BEAC4F643FB700E9BE73F4633FE9
:101660008166EABEAC98633FBBCBEBBE5A3C633F9E
:101670006330EDBE7BDF623F7994EEBE1082623F45
:10168000FBF7EFBE1A24623FEA5AF1BE98C5613FEC
:1016900043BDF2BE8A66613F071FF4BEF206613F9A
:1016A0003580F5BECFA6603FCBE0F6BE2146603F59
:1016B000C840F8BEE9E45F3F2DA0F9BE27835F3F35
:1016C000F7FEFABEDB205F3F275DFCBE05BE5E3F36
:1016D000BBBAFDBEA65A5E3FB217FFBEBEF65D3F67
:1016E000063A00BF4D925D3FE4E700BF532D5D3FDA
:1016F000739501BFD1C75C3FB14202BFC7615C3F78
:101700009FEF02BF34FB5B3F3D9C03BF1A945B3FDE
:10171000894804BF792C5B3F84F404BF50C45A3F0E
:101720002CA005BFA05B5A3F824B06BF6AF2593F0F
:1017300086F606BFAD88593F36A107BF6A1E593FDE
:10174000924B08BFA1B3583F9BF508BF5348583F81
:101750004E9F09BF7FDC573FAD480ABF2670573FF9
:10176000B7F10ABF4803573F6B9A0BBFE595563F49
:10177000C9420CBFFE27563FD0EA0CBF93B9553F74
:1017800081920DBFA44A553FDA390EBF31DB543F79
:10179000DBE00EBF3B6B543F84870FBFC3FA533F60
:1017A000D52D10BFC789533FCDD310BF4918533F24
:1017B0006B7911BF49A6523FB01E12BFC633523FCC
:1017C0009AC312BFC2C0513F2A6813BF3D4D513F5B
:1017D0005F0C14BF37D9503F39B014BFAF64503FCE
:1017E000B75315BFA8EF4F3FD9F615BF1F7A4F3F2C
:1017F0009F9916BF17044F3F073C17BF908D4E3F70
:1018000012DE17BF89164E3FC07F18BF029F4D3FA3
:101810000F2119BFFD264D3F00C219BF79AE4C3FC5
:1018200093621ABF78354C3FC6021BBFF8BB4B3FD3
:1018300099A21BBFFA414B3F0C421CBF7FC74A3FD6
:101840001FE11CBF874C4A3FD17F1DBF12D1493FCA
:10185000221E1EBF2155493F12BC1EBFB3D8483FB0
:101860009F591FBFCA5B483FCBF61FBF65DE473F8E
:10187000939320BF8560473FF92F21BF2AE2463F5F
:10188000FBCB21BF5463463F996722BF03E4453F2A
:10189000D30223BF3964453FA99D23BFF5E3443FED
:1018A0001A3824BF3763443F25D224BF00E2433FA8
:1018B000CB6B25BF5160433F0A0526BF29DE423F5F
:1018C000E39D26BF895B423F563627BF70D8413F14
:1018D00061CE27BFE154413F056628BFDAD0403FC3
:1018E00041FD28BF5C4C403F159429BF67C73F3F6F
:1018F000802A2ABFFC413F3F82C02ABF1BBC3E3F1B
:101900001B562BBFC5353E3F4AEB2BBFF9AE3D3FC3
:101910000F802CBFB8273D3F69142DBF03A03C3F6B
:1019200059A82DBFD9173C3FDE3B2EBF3B8F3B3F15
:10193000F7CE2EBF29063B3FA5612FBFA47C3A3FBF
:10194000E6F32FBFACF2393FBB8530BF4268393F69
:10195000221731BF65DD383F1DA831BF1652383F11
:10196000AA3832BF55C6373FC9C832BF233A373FBE
:101970007A5833BF7FAD363FBCE733BF6C20363F6C
:101980008F7634BFE792353FF30435BFF304353F1C
:10199000E79235BF8F76343F6C2036BFBCE7333FCC
:1019A0007FAD36BF7A58333F233A37BFC9C8323F7D
:1019B00055C637BFAA38323F165238BF1DA8313F2F
:1019C00065DD38BF2217313F426839BFBB85303FE4
:1019D000ACF239BFE6F32F3FA47C3ABFA5612F3F9D
:1019E00029063BBFF7CE2E3F3B8F3BBFDE3B2E3F52
:1019F000D9173CBF59A82D3F03A03CBF69142D3F08
:101A0000B8273DBF0F802C3FF9AE3DBF4AEB2B3FBF
:101A1000C5353EBF1B562B3F1BBC3EBF82C02A3F75
:101A2000FC413FBF802A2A3F67C73FBF1594293F2B
:101A30005C4C40BF41FD283FDAD040BF0566283FDF
:101A4000E15441BF61CE273F70D841BF5636273F92
:101A5000895B42BFE39D263F29DE42BF0A05263F40
:101A6000516043BFCB6B253F00E243BF25D2243FEB
:101A7000376344BF1A38243FF5E344BFA99D233F91
:101A8000396445BFD302233F03E445BF9967223F32
:101A9000546346BFFBCB213F2AE246BFF92F213FCB
:101AA000856047BF9393203F65DE47BFCBF61F3F5E
:101AB000CA5B48BF9F591F3FB3D848BF12BC1E3FE7
:101AC000215549BF221E1E3F12D149BFD17F1D3F64
:101AD000874C4ABF1FE11C3F7FC74ABF0C421C3FD7
:101AE000FA414BBF99A21B3FF8BB4BBFC6021B3F3D
:101AF00078354CBF93621A3F79AE4CBF00C2193F94
:101B0000FD264DBF0F21193F029F4DBFC07F183FDB
:101B100089164EBF12DE173F908D4EBF073C173F10
:101B200017044FBF9F99163F1F7A4FBFD9F6153F35
:101B3000A8EF4FBFB753153FAF6450BF39B0143F44
:101B400037D950BF5F0C143F3D4D51BF2A68133F3A
:101B5000C2C051BF9AC3123FC63352BFB01E123F1C
:101B600049A652BF6B79113F491853BFCDD3103FDF
:101B7000C78953BFD52D103FC3FA53BF84870F3F8A
:101B80003B6B54BFDBE00E3F31DB54BFDA390E3F15
:101B9000A44A55BF81920D3F93B955BFD0EA0C3F7F
:101BA000FE2756BFC9420C3FE59556BF6B9A0B3FC7
:101BB000480357BFB7F10A3F267057BFAD480A3FE9
:101BC0007FDC57BF4E9F093F534858BF9BF5083FE6
:101BD000A1B358BF924B083F6A1E59BF36A1073FB9
:101BE000AD8859BF86F6063F6AF259BF824B063F61
:101BF000A05B5ABF2CA0053F50C45ABF84F4043FD9
:101C0000792C5BBF8948043F1A945BBF3D9C033F1E
:101C100034FB5BBF9FEF023FC7615CBFB142023F35
:101C2000D1C75CBF7395013F532D5DBFE4E7003F13
:101C30004D925DBF063A003FBEF65DBFB217FF3E54
:101C4000A65A5EBFBBBAFD3E05BE5EBF275DFC3E29
:101C5000DB205FBFF7FEFA3E27835FBF2DA0F93E72
:101C6000E9E45FBFC840F83E214660BFCBE0F63EE6
:101C7000CFA660BF3580F53EF20661BF071FF43E78
:101C80008A6661BF43BDF23E98C561BFEA5AF13E24
:101C90001A2462BFFBF7EF3E108262BF7994EE3EDA
:101CA0007BDF62BF6330ED3E5A3C63BFBBCBEB3E94
:101CB000AC9863BF8166EA3E73F463BFB700E93E48
:101CC000AC4F64BF5D9AE73E59AA64BF7533E63EE8
:101CD000790465BFFECBE43E0B5E65BFFA63E33E6D
:101CE00010B765BF6AFBE13E880F66BF4F92E03ECA
:101CF000716766BFA928DF3ECCBE66BF79BEDD3EF8
:101D0000991567BFC153DC3ED86B67BF80E8DA3EE8
:101D100087C167BFB97CD93EA81668BF6B10D83E93
:101D2000396B68BF99A3D63E3CBF68BF4136D53EEC
:101D3000AE1269BF67C8D33E916569BF095AD23EEA
:101D4000E4B769BF2AEBD03EA7096ABFCA7BCF3E82
:101D5000D95A6ABFEA0BCE3E7BAB6ABF8B9BCC3EA7
:101D60008CFB6ABFAE2ACB3E0C4B6BBF53B9C93E4E
:101D7000FB996BBF7C47C83E58E86BBF29D5C63E70
:101D800024366CBF5C62C53E5E836CBF15EFC33EFC
:101D900007D06CBF557BC23E1D1C6DBF1E07C13EE8
:101DA000A1676DBF6F92BF3E93B26DBF4A1DBE3E2D
:101DB000F2FC6DBFAFA7BC3EBE466EBFA031BB3EBE
:101DC000F88F6EBF1EBBB93E9ED86EBF2A44B83E88
:101DD000B0206FBFC3CCB63E30686FBFEC54B53E89
:101DE0001BAF6FBFA5DCB33E73F56FBFEF63B23EB1
:101DF000373B70BFCBEAB03E668070BF3A71AF3EF2
:101E000002C570BF3CF7AD3E080971BFD47CAC3E43
:101E10007A4C71BF0102AB3E578F71BFC486A93E99
:101E20009FD171BF1F0BA83E521372BF128FA63EE7
:101E3000705472BF9F12A53EF89472BFC595A33E21
:101E4000EBD472BF8718A23E471473BFE59AA03E39
:101E50000E5373BFDF1C9F3E3F9173BF789E9D3E24
:101E6000D9CE73BFAF1F9C3EDD0B74BF86A09A3ED8
:101E70004B4874BFFE20993E228474BF17A1973E41
:101E800062BF74BFD220963E0BFA74BF31A0943E5D
:101E90001D3475BF351F933E976D75BFDD9D913E17
:101EA0007BA675BF2C1C903EC6DE75BF229A8E3E67
:101EB0007A1676BFC0178D3E974D76BF07958B3E3D
:101EC0001B8476BFF8118A3E07BA76BF938E883E90
:101ED0005BEF76BFDA0A873E172477BFCE86853E52
:101EE0003A5877BF7002843EC58B77BFC07D823E73
:101EF000B7BE77BFC0F8803E10F177BFE1E67E3E07
:101F0000D12278BFA4DB7B3EF85378BFCCCF783E9C
:101F1000868478BF5AC3753E7BB478BF51B6723E93
:101F2000D6E378BFB2A86F3E981279BF7F9A6C3E15
:101F3000C04079BFBA8B693E4E6E79BF667C663E03
:101F4000439B79BF836C633E9DC779BF135C603E42
:101F50005EF379BF1A4B5D3E841E7ABF97395A3EB5
:101F600010497ABF8F27573E02737ABF0115543E3E
:101F7000599C7ABFF101513E16C57ABF60EE4D3EC5
:101F800037ED7ABF4FDA4A3EBE147BBFC2C5473E2B
:101F9000AB3B7BBFB9B0443EFC617BBF379B413E4E
:101FA000B2877BBF3E853E3ECDAC7BBFCF6E3B3E16
:101FB0004DD17BBFEC57383E31F57BBF9840353E65
:101FC0007A187CBFD428323E283B7CBFA2102F3E1B
:101FD0003A5D7CBF04F82B3EB07E7CBFFCDE283E21
:101FE0008A9F7CBF8CC5253EC9BF7CBFB6AB223E55
:101FF0006CDF7CBF7B911F3E73FE7CBFDE761C3E98
:10200000DD1C7DBFE05B193EAC3A7DBF8340163ED0
:10201000DE577DBFCA24133E74747DBFB708103EDF
:102020006E907DBF4AEC0C3ECCAB7DBF86CF093EA7
:102030008CC67DBF6EB2063EB1E07DBF0295033E09
:1020400038FA7DBF4577003E24137EBF73B2FA3D58
:10205000722B7EBFC075F43D23437EBF7638EE3DC4
:10206000385A7EBF9AFAE73DB0707EBF2EBCE13D84
:102070008B867EBF377DDB3DC99B7EBFB93DD53D9D
:1020800069B07EBFB7FDCE3D6DC47EBF36BDC83DD5
:10209000D4D77EBF397CC23D9DEA7EBFC33ABC3DEA
:1020A000C9FC7EBFDAF8B53D580E7FBF80B6AF3DA4
:1020B000491F7FBFBA73A93D9D2F7FBF8C30A33DC1
:1020C000543F7FBFF9EC9C3D6D4E7FBF05A9963D07
:1020D000E95C7FBFB464903DC76A7FBF0A208A3D38
:1020E00008787FBF0ADB833DAB847FBF742B7B3DC9
:1020F000B1907FBF38A06E3D189C7FBF6814623DD1
:10210000E3A67FBF0E88553D0FB17FBF2FFB483D33
:102110009EBA7FBFD56D3C3D8FC37FBF07E02F3D8B
:10212000E2CB7FBFCC51233D98D37FBF2CC3163D5C
:10213000AFDA7FBF2F340A3D29E17FBFB949FB3CAD
:1021400005E77FBF7B2AE23C43EC7FBFB00AC93C76
:10215000E3F07FBF69EAAF3CE6F47FBFB6C9963CC7
:102160004AF87FBF4B517B3C11FB7FBF900E493C2F
:1021700039FD7FBF59CB163CC4FE7FBF890FC93BD9
:10218000B1FF7FBFC70F493B000080BF00000000C8
:10219000B1FF7FBFC70F49BBC4FE7FBF890FC9BB5B
:1021A00039FD7FBF59CB16BC11FB7FBF900E49BCD8
:1021B0004AF87FBF4B517BBCE6F47FBFB6C996BCE3
:1021C000E3F07FBF69EAAFBC43EC7FBFB00AC9BC94
:1021D00005E77FBF7B2AE2BC29E17FBFB949FBBC91
:1021E000AFDA7FBF2F340ABD98D37FBF2CC316BD93
:1021F000E2CB7FBFCC5123BD8FC37FBF07E02FBD94
:102200009EBA7FBFD56D3CBD0FB17FBF2FFB48BDD0
:10221000E3A67FBF0E8855BD189C7FBF681462BDC2
:10222000B1907FBF38A06EBDAB847FBF742B7BBDE8
:1022300008787FBF0ADB83BDC76A7FBF0A208ABDDB
:10224000E95C7FBFB46490BD6D4E7FBF05A996BDAC
:10225000543F7FBFF9EC9CBD9D2F7FBF8C30A3BD49
:10226000491F7FBFBA73A9BD580E7FBF80B6AFBDEF
:10227000C9FC7EBFDAF8B5BD9DEA7EBFC33ABCBDDE
:10228000D4D77EBF397CC2BD6DC47EBF36BDC8BD4C
:1022900069B07EBFB7FDCEBDC99B7EBFB93DD5BD80
:1022A0008B867EBF377DDBBDB0707EBF2EBCE1BDAF
:1022B000385A7EBF9AFAE7BD23437EBF7638EEBD1B
:1022C000722B7EBFC075F4BD24137EBF73B2FABDFE
:1022D00038FA7DBF457700BEB1E07DBF029503BEF1
:1022E0008CC67DBF6EB206BECCAB7DBF86CF09BEAD
:1022F0006E907DBF4AEC0CBE74747DBFB70810BEF3
:10230000DE577DBFCA2413BEAC3A7DBF834016BEE4
:10231000DD1C7DBFE05B19BE73FE7CBFDE761CBE9C
:102320006CDF7CBF7B911FBEC9BF7CBFB6AB22BE3A
:102330008A9F7CBF8CC525BEB07E7CBFFCDE28BEDC
:102340003A5D7CBF04F82BBE283B7CBFA2102FBE99
:102350007A187CBFD42832BE31F57BBF984035BE99
:102360004DD17BBFEC5738BECDAC7BBFCF6E3BBEF3
:10237000B2877BBF3E853EBEFC617BBF379B41BEC3
:10238000AB3B7BBFB9B044BEBE147BBFC2C547BE2A
:1023900037ED7ABF4FDA4ABE16C57ABF60EE4DBE42
:1023A000599C7ABFF10151BE02737ABF011554BE28
:1023B00010497ABF8F2757BE841E7ABF97395ABEFD
:1023C0005EF379BF1A4B5DBE9DC779BF135C60BEDB
:1023D000439B79BF836C63BE4E6E79BF667C66BEDD
:1023E000C04079BFBA8B69BE981279BF7F9A6CBE24
:1023F000D6E378BFB2A86FBE7BB478BF51B672BEC9
:10240000868478BF5AC375BEF85378BFCCCF78BEE8
:10241000D12278BFA4DB7BBE10F177BFE1E67EBEA0
:10242000B7BE77BFC0F880BEC58B77BFC07D82BE08
:102430003A5877BF700284BE172477BFCE8685BE18
:102440005BEF76BFDA0A87BE07BA76BF938E88BE87
:102450001B8476BFF8118ABE974D76BF07958BBE59
:102460007A1676BFC0178DBEC6DE75BF229A8EBEA5
:102470007BA675BF2C1C90BE976D75BFDD9D91BE70
:102480001D3475BF351F93BE0BFA74BF31A094BEC7
:1024900062BF74BFD22096BE228474BF17A197BEBC
:1024A0004B4874BFFE2099BEDD0B74BF86A09ABE58
:1024B000D9CE73BFAF1F9CBE3F9173BF789E9DBEA8
:1024C0000E5373BFDF1C9FBE471473BFE59AA0BEB7
:1024D000EBD472BF8718A2BEF89472BFC595A3BE95
:1024E000705472BF9F12A5BE521372BF128FA6BE48
:1024F0009FD171BF1F0BA8BE578F71BFC486A9BEE5
:102500007A4C71BF0102ABBE080971BFD47CACBE6E
:1025100002C570BF3CF7ADBE668070BF3A71AFBEFA
:10252000373B70BFCBEAB0BE73F56FBFEF63B2BE8F
:102530001BAF6FBFA5DCB3BE30686FBFEC54B5BE38
:10254000B0206FBFC3CCB6BE9ED86EBF2A44B8BE03
:10255000F88F6EBF1EBBB9BEBE466EBFA031BBBEFC
:10256000F2FC6DBFAFA7BCBE93B26DBF4A1DBEBE2D
:10257000A1676DBF6F92BFBE1D1C6DBF1E07C1BEA0
:1025800007D06CBF557BC2BE5E836CBF15EFC3BE68
:1025900024366CBF5C62C5BE58E86BBF29D5C6BE89
:1025A000FB996BBF7C47C8BE0C4B6BBF53B9C9BE10
:1025B0008CFB6ABFAE2ACBBE7BAB6ABF8B9BCCBE0B
:1025C000D95A6ABFEA0BCEBEA7096ABFCA7BCFBE83
:1025D000E4B769BF2AEBD0BE916569BF095AD2BE84
:1025E000AE1269BF67C8D3BE3CBF68BF4136D5BE17
:1025F000396B68BF99A3D6BEA81668BF6B10D8BE4A
:1026000087C167BFB97CD9BED86B67BF80E8DABE27
:10261000991567BFC153DCBECCBE66BF79BEDDBEB7
:10262000716766BFA928DFBE880F66BF4F92E0BE04
:1026300010B765BF6AFBE1BE0B5E65BFFA63E3BE20
:10264000790465BFFECBE4BE59AA64BF7533E6BE0C
:10265000AC4F64BF5D9AE7BE73F463BFB700E9BED9
:10266000AC9863BF8166EABE5A3C63BFBBCBEBBE8E
:102670007BDF62BF6330EDBE108262BF7994EEBE35
:102680001A2462BFFBF7EFBE98C561BFEA5AF1BEDC
:102690008A6661BF43BDF2BEF20661BF071FF4BE8A
:1026A000CFA660BF3580F5BE214660BFCBE0F6BE49
:1026B000E9E45FBFC840F8BE27835FBF2DA0F9BE25
:1026C000DB205FBFF7FEFABE05BE5EBF275DFCBE26
:1026D000A65A5EBFBBBAFDBEBEF65DBFB217FFBE57
:1026E0004D925DBF063A00BF532D5DBFE4E700BFCA
:1026F000D1C75CBF739501BFC7615CBFB14202BF68
:1027000034FB5BBF9FEF02BF1A945BBF3D9C03BFCE
:10271000792C5BBF894804BF50C45ABF84F404BFFE
:10272000A05B5ABF2CA005BF6AF259BF824B06BFFF
:10273000AD8859BF86F606BF6A1E59BF36A107BFCE
:10274000A1B358BF924B08BF534858BF9BF508BF71
:102750007FDC57BF4E9F09BF267057BFAD480ABFE9
:10276000480357BFB7F10ABFE59556BF6B9A0BBF39
:10277000FE2756BFC9420CBF93B955BFD0EA0CBF64
:10278000A44A55BF81920DBF31DB54BFDA390EBF69
:102790003B6B54BFDBE00EBFC3FA53BF84870FBF50
:1027A000C78953BFD52D10BF491853BFCDD310BF14
:1027B00049A652BF6B7911BFC63352BFB01E12BFBC
:1027C000C2C051BF9AC312BF3D4D51BF2A6813BF4B
:1027D00037D950BF5F0C14BFAF6450BF39B014BFBE
:1027E000A8EF4FBFB75315BF1F7A4FBFD9F615BF1C
:1027F00017044FBF9F9916BF908D4EBF073C17BF60
:1028000089164EBF12DE17BF029F4DBFC07F18BF93
:10281000FD264DBF0F2119BF79AE4CBF00C219BFB5
:1028200078354CBF93621ABFF8BB4BBFC6021BBFC3
:10283000FA414BBF99A21BBF7FC74ABF0C421CBFC6
:10284000874C4ABF1FE11CBF12D149BFD17F1DBFBA
:10285000215549BF221E1EBFB3D848BF12BC1EBFA0
:10286000CA5B48BF9F591FBF65DE47BFCBF61FBF7E
:10287000856047BF939320BF2AE246BFF92F21BF4F
:10288000546346BFFBCB21BF03E445BF996722BF1A
:10289000396445BFD30223BFF5E344BFA99D23BFDD
:1028A000376344BF1A3824BF00E243BF25D224BF98
:1028B000516043BFCB6B25BF29DE42BF0A0526BF4F
:1028C000895B42BFE39D26BF70D841BF563627BF04
:1028D000E15441BF61CE27BFDAD040BF056628BFB3
:1028E0005C4C40BF41FD28BF67C73FBF159429BF5F
:1028F000FC413FBF802A2ABF1BBC3EBF82C02ABF0B
:10290000C5353EBF1B562BBFF9AE3DBF4AEB2BBFB3
:10291000B8273DBF0F802CBF03A03CBF69142DBF5B
:10292000D9173CBF59A82DBF3B8F3BBFDE3B2EBF05
:1029300029063BBFF7CE2EBFA47C3ABFA5612FBFAF
:10294000ACF239BFE6F32FBF426839BFBB8530BF59
:1029500065DD38BF221731BF165238BF1DA831BF01
:1029600055C637BFAA3832BF233A37BFC9C832BFAE
:102970007FAD36BF7A5833BF6C2036BFBCE733BF5C
:10298000E79235BF8F7634BFF30435BFF30435BF0C
:102990008F7634BFE79235BFBCE733BF6C2036BFBC
:1029A0007A5833BF7FAD36BFC9C832BF233A37BF6D
:1029B000AA3832BF55C637BF1DA831BF165238BF1F
:1029C000221731BF65DD38BFBB8530BF426839BFD4
:1029D000E6F32FBFACF239BFA5612FBFA47C3ABF8D
:1029E000F7CE2EBF29063BBFDE3B2EBF3B8F3BBF42
:1029F00059A82DBFD9173CBF69142DBF03A03CBFF8
:102A00000F802CBFB8273DBF4AEB2BBFF9AE3DBFAF
:102A10001B562BBFC5353EBF82C02ABF1BBC3EBF65
:102A2000802A2ABFFC413FBF159429BF67C73FBF1B
:102A300041FD28BF5C4C40BF056628BFDAD040BFCF
:102A400061CE27BFE15441BF563627BF70D841BF82
:102A5000E39D26BF895B42BF0A0526BF29DE42BF30
:102A6000CB6B25BF516043BF25D224BF00E243BFDB
:102A70001A3824BF376344BFA99D23BFF5E344BF81
:102A8000D30223BF396445BF996722BF03E445BF22
:102A9000FBCB21BF546346BFF92F21BF2AE246BFBB
:102AA000939320BF856047BFCBF61FBF65DE47BF4E
:102AB0009F591FBFCA5B48BF12BC1EBFB3D848BFD7
:102AC000221E1EBF215549BFD17F1DBF12D149BF54
:102AD0001FE11CBF874C4ABF0C421CBF7FC74ABFC7
:102AE00099A21BBFFA414BBFC6021BBFF8BB4BBF2D
:102AF00093621ABF78354CBF00C219BF79AE4CBF84
:102B00000F2119BFFD264DBFC07F18BF029F4DBFCB
:102B100012DE17BF89164EBF073C17BF908D4EBF00
:102B20009F9916BF17044FBFD9F615BF1F7A4FBF25
:102B3000B75315BFA8EF4FBF39B014BFAF6450BF34
:102B40005F0C14BF37D950BF2A6813BF3D4D51BF2A
:102B50009AC312BFC2C051BFB01E12BFC63352BF0C
:102B60006B7911BF49A652BFCDD310BF491853BFCF
:102B7000D52D10BFC78953BF84870FBFC3FA53BF7A
:102B8000DBE00EBF3B6B54BFDA390EBF31DB54BF05
:102B900081920DBFA44A55BFD0EA0CBF93B955BF6F
:102BA000C9420CBFFE2756BF6B9A0BBFE59556BFB7
:102BB000B7F10ABF480357BFAD480ABF267057BFD9
:102BC0004E9F09BF7FDC57BF9BF508BF534858BFD6
:102BD000924B08BFA1B358BF36A107BF6A1E59BFA9
:102BE00086F606BFAD8859BF824B06BF6AF259BF51
:102BF0002CA005BFA05B5ABF84F404BF50C45ABFC9
:102C0000894804BF792C5BBF3D9C03BF1A945BBF0E
:102C10009FEF02BF34FB5BBFB14202BFC7615CBF25
:102C2000739501BFD1C75CBFE4E700BF532D5DBF03
:102C3000063A00BF4D925DBFB217FFBEBEF65DBF44
:102C4000BBBAFDBEA65A5EBF275DFCBE05BE5EBF19
:102C5000F7FEFABEDB205FBF2DA0F9BE27835FBF62
:102C6000C840F8BEE9E45FBFCBE0F6BE214660BFD6
:102C70003580F5BECFA660BF071FF4BEF20661BF68
:102C800043BDF2BE8A6661BFEA5AF1BE98C561BF14
:102C9000FBF7EFBE1A2462BF7994EEBE108262BFCA
:102CA0006330EDBE7BDF62BFBBCBEBBE5A3C63BF84
:102CB0008166EABEAC9863BFB700E9BE73F463BF38
:102CC0005D9AE7BEAC4F64BF7533E6BE59AA64BFD8
:102CD000FECBE4BE790465BFFA63E3BE0B5E65BF5D
:102CE0006AFBE1BE10B765BF4F92E0BE880F66BFBA
:102CF000A928DFBE716766BF79BEDDBECCBE66BFE8
:102D0000C153DCBE991567BF80E8DABED86B67BFD8
:102D1000B97CD9BE87C167BF6B10D8BEA81668BF83
:102D200099A3D6BE396B68BF4136D5BE3CBF68BFDC
:102D300067C8D3BEAE1269BF095AD2BE916569BFDA
:102D40002AEBD0BEE4B769BFCA7BCFBEA7096ABF72
:102D5000EA0BCEBED95A6ABF8B9BCCBE7BAB6ABF97
:102D6000AE2ACBBE8CFB6ABF53B9C9BE0C4B6BBF3E
:102D70007C47C8BEFB996BBF29D5C6BE58E86BBF60
:102D80005C62C5BE24366CBF15EFC3BE5E836CBFEC
:102D9000557BC2BE07D06CBF1E07C1BE1D1C6DBFD8
:102DA0006F92BFBEA1676DBF4A1DBEBE93B26DBF1D
:102DB000AFA7BCBEF2FC6DBFA031BBBEBE466EBFAE
:102DC0001EBBB9BEF88F6EBF2A44B8BE9ED86EBF78
:102DD000C3CCB6BEB0206FBFEC54B5BE30686FBF79
:102DE000A5DCB3BE1BAF6FBFEF63B2BE73F56FBFA1
:102DF000CBEAB0BE373B70BF3A71AFBE668070BFE2
:102E00003CF7ADBE02C570BFD47CACBE080971BF33
:102E10000102ABBE7A4C71BFC486A9BE578F71BF89
:102E20001F0BA8BE9FD171BF128FA6BE521372BFD7
:102E30009F12A5BE705472BFC595A3BEF89472BF11
:102E40008718A2BEEBD472BFE59AA0BE471473BF29
:102E5000DF1C9FBE0E5373BF789E9DBE3F9173BF14
:102E6000AF1F9CBED9CE73BF86A09ABEDD0B74BFC8
:102E7000FE2099BE4B4874BF17A197BE228474BF31
:102E8000D22096BE62BF74BF31A094BE0BFA74BF4D
:102E9000351F93BE1D3475BFDD9D91BE976D75BF07
:102EA0002C1C90BE7BA675BF229A8EBEC6DE75BF57
:102EB000C0178DBE7A1676BF07958BBE974D76BF2D
:102EC000F8118ABE1B8476BF938E88BE07BA76BF80
:102ED000DA0A87BE5BEF76BFCE8685BE172477BF42
:102EE000700284BE3A5877BFC07D82BEC58B77BF63
:102EF000C0F880BEB7BE77BFE1E67EBE10F177BFF7
:102F0000A4DB7BBED12278BFCCCF78BEF85378BF8C
:102F10005AC375BE868478BF51B672BE7BB478BF83
:102F2000B2A86FBED6E378BF7F9A6CBE981279BF05
:102F3000BA8B69BEC04079BF667C66BE4E6E79BFF3
:102F4000836C63BE439B79BF135C60BE9DC779BF32
:102F50001A4B5DBE5EF379BF97395ABE841E7ABFA5
:102F60008F2757BE10497ABF011554BE02737ABF2E
:102F7000F10151BE599C7ABF60EE4DBE16C57ABFB5
:102F80004FDA4ABE37ED7ABFC2C547BEBE147BBF1B
:102F9000B9B044BEAB3B7BBF379B41BEFC617BBF3E
:102FA0003E853EBEB2877BBFCF6E3BBECDAC7BBF06
:102FB000EC5738BE4DD17BBF984035BE31F57BBF55
:102FC000D42832BE7A187CBFA2102FBE283B7CBF0B
:102FD00004F82BBE3A5D7CBFFCDE28BEB07E7CBF11
:102FE0008CC525BE8A9F7CBFB6AB22BEC9BF7CBF45
:102FF0007B911FBE6CDF7CBFDE761CBE73FE7CBF88
:10300000E05B19BEDD1C7DBF834016BEAC3A7DBFC0
:10301000CA2413BEDE577DBFB70810BE74747DBFCF
:103020004AEC0CBE6E907DBF86CF09BECCAB7DBF97
:103030006EB206BE8CC67DBF029503BEB1E07DBFF9
:10304000457700BE38FA7DBF73B2FABD24137EBF48
:10305000C075F4BD722B7EBF7638EEBD23437EBFB4
:103060009AFAE7BD385A7EBF2EBCE1BDB0707EBF74
:10307000377DDBBD8B867EBFB93DD5BDC99B7EBF8D
:10308000B7FDCEBD69B07EBF36BDC8BD6DC47EBFC5
:10309000397CC2BDD4D77EBFC33ABCBD9DEA7EBFDA
:1030A000DAF8B5BDC9FC7EBF80B6AFBD580E7FBF94
:1030B000BA73A9BD491F7FBF8C30A3BD9D2F7FBFB1
:1030C000F9EC9CBD543F7FBF05A996BD6D4E7FBFF7
:1030D000B46490BDE95C7FBF0A208ABDC76A7FBF28
:1030E0000ADB83BD08787FBF742B7BBDAB847FBFB9
:1030F00038A06EBDB1907FBF681462BD189C7FBFC1
:103100000E8855BDE3A67FBF2FFB48BD0FB17FBF23
:10311000D56D3CBD9EBA7FBF07E02FBD8FC37FBF7B
:10312000CC5123BDE2CB7FBF2CC316BD98D37FBF4C
:103130002F340ABDAFDA7FBFB949FBBC29E17FBF9D
:103140007B2AE2BC05E77FBFB00AC9BC43EC7FBF66
:1031500069EAAFBCE3F07FBFB6C996BCE6F47FBFB7
:103160004B517BBC4AF87FBF900E49BC11FB7FBF1F
:1031700059CB16BC39FD7FBF890FC9BBC4FE7FBFC9
:10318000C70F49BBB1FF7FBF00000080000080BFB8
:10319000C70F493BB1FF7FBF890FC93BC4FE7FBF4B
:1031A00059CB163C39FD7FBF900E493C11FB7FBFC8
:1031B0004B517B3C4AF87FBFB6C9963CE6F47FBFD3
:1031C00069EAAF3CE3F07FBFB00AC93C43EC7FBF84
:1031D0007B2AE23C05E77FBFB949FB3C29E17FBF81
:1031E0002F340A3DAFDA7FBF2CC3163D98D37FBF83
:1031F000CC51233DE2CB7FBF07E02F3D8FC37FBF84
:10320000D56D3C3D9EBA7FBF2FFB483D0FB17FBFC0
:103210000E88553DE3A67FBF6814623D189C7FBFB2
:1032200038A06E3DB1907FBF742B7B3DAB847FBFD8
:103230000ADB833D08787FBF0A208A3DC76A7FBFCB
:10324000B464903DE95C7FBF05A9963D6D4E7FBF9C
:10325000F9EC9C3D543F7FBF8C30A33D9D2F7FBF39
:10326000BA73A93D491F7FBF80B6AF3D580E7FBFDF
:10327000DAF8B53DC9FC7EBFC33ABC3D9DEA7EBFCE
:10328000397CC23DD4D77EBF36BDC83D6DC47EBF3C
:10329000B7FDCE3D69B07EBFB93DD53DC99B7EBF70
:1032A000377DDB3D8B867EBF2EBCE13DB0707EBF9F
:1032B0009AFAE73D385A7EBF7638EE3D23437EBF0B
:1032C000C075F43D722B7EBF73B2FA3D24137EBFEE
:1032D0004577003E38FA7DBF0295033EB1E07DBFE1
:1032E0006EB2063E8CC67DBF86CF093ECCAB7DBF9D
:1032F0004AEC0C3E6E907DBFB708103E74747DBFE3
:10330000CA24133EDE577DBF8340163EAC3A7DBFD4
:10331000E05B193EDD1C7DBFDE761C3E73FE7CBF8C
:103320007B911F3E6CDF7CBFB6AB223EC9BF7CBF2A
:103330008CC5253E8A9F7CBFFCDE283EB07E7CBFCC
:1033400004F82B3E3A5D7CBFA2102F3E283B7CBF89
:10335000D428323E7A187CBF9840353E31F57BBF89
:10336000EC57383E4DD17BBFCF6E3B3ECDAC7BBFE3
:103370003E853E3EB2877BBF379B413EFC617BBFB3
:10338000B9B0443EAB3B7BBFC2C5473EBE147BBF1A
:103390004FDA4A3E37ED7ABF60EE4D3E16C57ABF32
:1033A000F101513E599C7ABF0115543E02737ABF18
:1033B0008F27573E10497ABF97395A3E841E7ABFED
:1033C0001A4B5D3E5EF379BF135C603E9DC779BFCB
:1033D000836C633E439B79BF667C663E4E6E79BFCD
:1033E000BA8B693EC04079BF7F9A6C3E981279BF14
:1033F000B2A86F3ED6E378BF51B6723E7BB478BFB9
:103400005AC3753E868478BFCCCF783EF85378BFD8
:10341000A4DB7B3ED12278BFE1E67E3E10F177BF90
:10342000C0F8803EB7BE77BFC07D823EC58B77BFF8
:103430007002843E3A5877BFCE86853E172477BF08
:10344000DA0A873E5BEF76BF938E883E07BA76BF77
:10345000F8118A3E1B8476BF07958B3E974D76BF49
:10346000C0178D3E7A1676BF229A8E3EC6DE75BF95
:103470002C1C903E7BA675BFDD9D913E976D75BF60
:10348000351F933E1D3475BF31A0943E0BFA74BFB7
:10349000D220963E62BF74BF17A1973E228474BFAC
:1034A000FE20993E4B4874BF86A09A3EDD0B74BF48
:1034B000AF1F9C3ED9CE73BF789E9D3E3F9173BF98
:1034C000DF1C9F3E0E5373BFE59AA03E471473BFA7
:1034D0008718A23EEBD472BFC595A33EF89472BF85
:1034E0009F12A53E705472BF128FA63E521372BF38
:1034F0001F0BA83E9FD171BFC486A93E578F71BFD5
:103500000102AB3E7A4C71BFD47CAC3E080971BF5E
:103510003CF7AD3E02C570BF3A71AF3E668070BFEA
:10352000CBEAB03E373B70BFEF63B23E73F56FBF7F
:10353000A5DCB33E1BAF6FBFEC54B53E30686FBF28
:10354000C3CCB63EB0206FBF2A44B83E9ED86EBFF3
:103550001EBBB93EF88F6EBFA031BB3EBE466EBFEC
:10356000AFA7BC3EF2FC6DBF4A1DBE3E93B26DBF1D
:103570006F92BF3EA1676DBF1E07C13E1D1C6DBF90
:10358000557BC23E07D06CBF15EFC33E5E836CBF58
:103590005C62C53E24366CBF29D5C63E58E86BBF79
:1035A0007C47C83EFB996BBF53B9C93E0C4B6BBF00
:1035B000AE2ACB3E8CFB6ABF8B9BCC3E7BAB6ABFFB
:1035C000EA0BCE3ED95A6ABFCA7BCF3EA7096ABF73
:1035D0002AEBD03EE4B769BF095AD23E916569BF74
:1035E00067C8D33EAE1269BF4136D53E3CBF68BF07
:1035F00099A3D63E396B68BF6B10D83EA81668BF3A
:10360000B97CD93E87C167BF80E8DA3ED86B67BF17
:10361000C153DC3E991567BF79BEDD3ECCBE66BFA7
:10362000A928DF3E716766BF4F92E03E880F66BFF4
:103630006AFBE13E10B765BFFA63E33E0B5E65BF10
:10364000FECBE43E790465BF7533E63E59AA64BFFC
:103650005D9AE73EAC4F64BFB700E93E73F463BFC9
:103660008166EA3EAC9863BFBBCBEB3E5A3C63BF7E
:103670006330ED3E7BDF62BF7994EE3E108262BF25
:10368000FBF7EF3E1A2462BFEA5AF13E98C561BFCC
:1036900043BDF23E8A6661BF071FF43EF20661BF7A
:1036A0003580F53ECFA660BFCBE0F63E214660BF39
:1036B000C840F83EE9E45FBF2DA0F93E27835FBF15
:1036C000F7FEFA3EDB205FBF275DFC3E05BE5EBF16
:1036D000BBBAFD3EA65A5EBFB217FF3EBEF65DBF47
:1036E000063A003F4D925DBFE4E7003F532D5DBFBA
:1036F0007395013FD1C75CBFB142023FC7615CBF58
:103700009FEF023F34FB5BBF3D9C033F1A945BBFBE
:103710008948043F792C5BBF84F4043F50C45ABFEE
:103720002CA0053FA05B5ABF824B063F6AF259BFEF
:1037300086F6063FAD8859BF36A1073F6A1E59BFBE
:10374000924B083FA1B358BF9BF5083F534858BF61
:103750004E9F093F7FDC57BFAD480A3F267057BFD9
:10376000B7F10A3F480357BF6B9A0B3FE59556BF29
:10377000C9420C3FFE2756BFD0EA0C3F93B955BF54
:1037800081920D3FA44A55BFDA390E3F31DB54BF59
:10379000DBE00E3F3B6B54BF84870F3FC3FA53BF40
:1037A000D52D103FC78953BFCDD3103F491853BF04
:1037B0006B79113F49A652BFB01E123FC63352BFAC
:1037C0009AC3123FC2C051BF2A68133F3D4D51BF3B
:1037D0005F0C143F37D950BF39B0143FAF6450BFAE
:1037E000B753153FA8EF4FBFD9F6153F1F7A4FBF0C
:1037F0009F99163F17044FBF073C173F908D4EBF50
:1038000012DE173F89164EBFC07F183F029F4DBF83
:103810000F21193FFD264DBF00C2193F79AE4CBFA5
:1038200093621A3F78354CBFC6021B3FF8BB4BBFB3
:1038300099A21B3FFA414BBF0C421C3F7FC74ABFB6
:103840001FE11C3F874C4ABFD17F1D3F12D149BFAA
:10385000221E1E3F215549BF12BC1E3FB3D848BF90
:103860009F591F3FCA5B48BFCBF61F3F65DE47BF6E
:103870009393203F856047BFF92F213F2AE246BF3F
:10388000FBCB213F546346BF9967223F03E445BF0A
:10389000D302233F396445BFA99D233FF5E344BFCD
:1038A0001A38243F376344BF25D2243F00E243BF88
:1038B000CB6B253F516043BF0A05263F29DE42BF3F
:1038C000E39D263F895B42BF5636273F70D841BFF4
:1038D00061CE273FE15441BF0566283FDAD040BFA3
:1038E00041FD283F5C4C40BF1594293F67C73FBF4F
:1038F000802A2A3FFC413FBF82C02A3F1BBC3EBFFB
:103900001B562B3FC5353EBF4AEB2B3FF9AE3DBFA3
:103910000F802C3FB8273DBF69142D3F03A03CBF4B
:1039200059A82D3FD9173CBFDE3B2E3F3B8F3BBFF5
:10393000F7CE2E3F29063BBFA5612F3FA47C3ABF9F
:10394000E6F32F3FACF239BFBB85303F426839BF49
:103950002217313F65DD38BF1DA8313F165238BFF1
:10396000AA38323F55C637BFC9C8323F233A37BF9E
:103970007A58333F7FAD36BFBCE7333F6C2036BF4C
:103980008F76343FE79235BFF304353FF30435BFFC
:10399000E792353F8F7634BF6C20363FBCE733BFAC
:1039A0007FAD363F7A5833BF233A373FC9C832BF5D
:1039B00055C6373FAA3832BF1652383F1DA831BF0F
:1039C00065DD383F221731BF4268393FBB8530BFC4
:1039D000ACF2393FE6F32FBFA47C3A3FA5612FBF7D
:1039E00029063B3FF7CE2EBF3B8F3B3FDE3B2EBF32
:1039F000D9173C3F59A82DBF03A03C3F69142DBFE8
:103A0000B8273D3F0F802CBFF9AE3D3F4AEB2BBF9F
:103A1000C5353E3F1B562BBF1BBC3E3F82C02ABF55
:103A2000FC413F3F802A2ABF67C73F3F159429BF0B
:103A30005C4C403F41FD28BFDAD0403F056628BFBF
:103A4000E154413F61CE27BF70D8413F563627BF72
:103A5000895B423FE39D26BF29DE423F0A0526BF20
:103A60005160433FCB6B25BF00E2433F25D224BFCB
:103A70003763443F1A3824BFF5E3443FA99D23BF71
:103A80003964453FD30223BF03E4453F996722BF12
:103A90005463463FFBCB21BF2AE2463FF92F21BFAB
:103AA0008560473F939320BF65DE473FCBF61FBF3E
:103AB000CA5B483F9F591FBFB3D8483F12BC1EBFC7
:103AC0002155493F221E1EBF12D1493FD17F1DBF44
:103AD000874C4A3F1FE11CBF7FC74A3F0C421CBFB7
:103AE000FA414B3F99A21BBFF8BB4B3FC6021BBF1D
:103AF00078354C3F93621ABF79AE4C3F00C219BF74
:103B0000FD264D3F0F2119BF029F4D3FC07F18BFBB
:103B100089164E3F12DE17BF908D4E3F073C17BFF0
:103B200017044F3F9F9916BF1F7A4F3FD9F615BF15
:103B3000A8EF4F3FB75315BFAF64503F39B014BF24
:103B400037D9503F5F0C14BF3D4D513F2A6813BF1A
:103B5000C2C0513F9AC312BFC633523FB01E12BFFC
:103B600049A6523F6B7911BF4918533FCDD310BFBF
:103B7000C789533FD52D10BFC3FA533F84870FBF6A
:103B80003B6B543FDBE00EBF31DB543FDA390EBFF5
:103B9000A44A553F81920DBF93B9553FD0EA0CBF5F
:103BA000FE27563FC9420CBFE595563F6B9A0BBFA7
:103BB0004803573FB7F10ABF2670573FAD480ABFC9
:103BC0007FDC573F4E9F09BF5348583F9BF508BFC6
:103BD000A1B3583F924B08BF6A1E593F36A107BF99
:103BE000AD88593F86F606BF6AF2593F824B06BF41
:103BF000A05B5A3F2CA005BF50C45A3F84F404BFB9
:103C0000792C5B3F894804BF1A945B3F3D9C03BFFE
:103C100034FB5B3F9FEF02BFC7615C3FB14202BF15
:103C2000D1C75C3F739501BF532D5D3FE4E700BFF3
:103C30004D925D3F063A00BFBEF65D3FB217FFBE34
:103C4000A65A5E3FBBBAFDBE05BE5E3F275DFCBE09
:103C5000DB205F3FF7FEFABE27835F3F2DA0F9BE52
:103C6000E9E45F3FC840F8BE2146603FCBE0F6BEC6
:103C7000CFA6603F3580F5BEF206613F071FF4BE58
:103C80008A66613F43BDF2BE98C5613FEA5AF1BE04
:103C90001A24623FFBF7EFBE1082623F7994EEBEBA
:103CA0007BDF623F6330EDBE5A3C633FBBCBEBBE74
:103CB000AC98633F8166EABE73F4633FB700E9BE28
:103CC000AC4F643F5D9AE7BE59AA643F7533E6BEC8
:103CD0007904653FFECBE4BE0B5E653FFA63E3BE4D
:103CE00010B7653F6AFBE1BE880F663F4F92E0BEAA
:103CF0007167663FA928DFBECCBE663F79BEDDBED8
:103D00009915673FC153DCBED86B673F80E8DABEC8
:103D100087C1673FB97CD9BEA816683F6B10D8BE73
:103D2000396B683F99A3D6BE3CBF683F4136D5BECC
:103D3000AE12693F67C8D3BE9165693F095AD2BECA
:103D4000E4B7693F2AEBD0BEA7096A3FCA7BCFBE62
:103D5000D95A6A3FEA0BCEBE7BAB6A3F8B9BCCBE87
:103D60008CFB6A3FAE2ACBBE0C4B6B3F53B9C9BE2E
:103D7000FB996B3F7C47C8BE58E86B3F29D5C6BE50
:103D800024366C3F5C62C5BE5E836C3F15EFC3BEDC
:103D900007D06C3F557BC2BE1D1C6D3F1E07C1BEC8
:103DA000A1676D3F6F92BFBE93B26D3F4A1DBEBE0D
:103DB000F2FC6D3FAFA7BCBEBE466E3FA031BBBE9E
:103DC000F88F6E3F1EBBB9BE9ED86E3F2A44B8BE68
:103DD000B0206F3FC3CCB6BE30686F3FEC54B5BE69
:103DE0001BAF6F3FA5DCB3BE73F56F3FEF63B2BE91
:103DF000373B703FCBEAB0BE6680703F3A71AFBED2
:103E000002C5703F3CF7ADBE0809713FD47CACBE23
:103E10007A4C713F0102ABBE578F713FC486A9BE79
:103E20009FD1713F1F0BA8BE5213723F128FA6BEC7
:103E30007054723F9F12A5BEF894723FC595A3BE01
:103E4000EBD4723F8718A2BE4714733FE59AA0BE19
:103E50000E53733FDF1C9FBE3F91733F789E9DBE04
:103E6000D9CE733FAF1F9CBEDD0B743F86A09ABEB8
:103E70004B48743FFE2099BE2284743F17A197BE21
:103E800062BF743FD22096BE0BFA743F31A094BE3D
:103E90001D34753F351F93BE976D753FDD9D91BEF7
:103EA0007BA6753F2C1C90BEC6DE753F229A8EBE47
:103EB0007A16763FC0178DBE974D763F07958BBE1D
:103EC0001B84763FF8118ABE07BA763F938E88BE70
:103ED0005BEF763FDA0A87BE1724773FCE8685BE32
:103EE0003A58773F700284BEC58B773FC07D82BE53
:103EF000B7BE773FC0F880BE10F1773FE1E67EBEE7
:103F0000D122783FA4DB7BBEF853783FCCCF78BE7C
:103F10008684783F5AC375BE7BB4783F51B672BE73
:103F2000D6E3783FB2A86FBE9812793F7F9A6CBEF5
:103F3000C040793FBA8B69BE4E6E793F667C66BEE3
:103F4000439B793F836C63BE9DC7793F135C60BE22
:103F50005EF3793F1A4B5DBE841E7A3F97395ABE95
:103F600010497A3F8F2757BE02737A3F011554BE1E
:103F7000599C7A3FF10151BE16C57A3F60EE4DBEA5
:103F800037ED7A3F4FDA4ABEBE147B3FC2C547BE0B
:103F9000AB3B7B3FB9B044BEFC617B3F379B41BE2E
:103FA000B2877B3F3E853EBECDAC7B3FCF6E3BBEF6
:103FB0004DD17B3FEC5738BE31F57B3F984035BE45
:103FC0007A187C3FD42832BE283B7C3FA2102FBEFB
:103FD0003A5D7C3F04F82BBEB07E7C3FFCDE28BE01
:103FE0008A9F7C3F8CC525BEC9BF7C3FB6AB22BE35
:103FF0006CDF7C3F7B911FBE73FE7C3FDE761CBE78
:10400000DD1C7D3FE05B19BEAC3A7D3F834016BEB0
:10401000DE577D3FCA2413BE74747D3FB70810BEBF
:104020006E907D3F4AEC0CBECCAB7D3F86CF09BE87
:104030008CC67D3F6EB206BEB1E07D3F029503BEE9
:1040400038FA7D3F457700BE24137E3F73B2FABD38
:10405000722B7E3FC075F4BD23437E3F7638EEBDA4
:10406000385A7E3F9AFAE7BDB0707E3F2EBCE1BD64
:104070008B867E3F377DDBBDC99B7E3FB93DD5BD7D
:1040800069B07E3FB7FDCEBD6DC47E3F36BDC8BDB5
:10409000D4D77E3F397CC2BD9DEA7E3FC33ABCBDCA
:1040A000C9FC7E3FDAF8B5BD580E7F3F80B6AFBD84
:1040B000491F7F3FBA73A9BD9D2F7F3F8C30A3BDA1
:1040C000543F7F3FF9EC9CBD6D4E7F3F05A996BDE7
:1040D000E95C7F3FB46490BDC76A7F3F0A208ABD18
:1040E00008787F3F0ADB83BDAB847F3F742B7BBDA9
:1040F000B1907F3F38A06EBD189C7F3F681462BDB1
:10410000E3A67F3F0E8855BD0FB17F3F2FFB48BD13
:104110009EBA7F3FD56D3CBD8FC37F3F07E02FBD6B
:10412000E2CB7F3FCC5123BD98D37F3F2CC316BD3C
:10413000AFDA7F3F2F340ABD29E17F3FB949FBBC8D
:1041400005E77F3F7B2AE2BC43EC7F3FB00AC9BC56
:10415000E3F07F3F69EAAFBCE6F47F3FB6C996BCA7
:104160004AF87F3F4B517BBC11FB7F3F900E49BC0F
:1041700039FD7F3F59CB16BCC4FE7F3F890FC9BBB9
:10418000B1FF7F3FC70F49BB08000010100000209F
:104190001800003020000002280000123000002229
:1041A0003800003240000004480000145000002491
:1041B00058000034600000066800001670000026F9
:1041C0007800003680000008880000189000002861
:1041D00098000038A000000AA800001AB000002AC9
:1041E000B800003AC000000CC800001CD000002C31
:1041F000D800003CE000000EE800001EF000002E99
:10420000F800003E000100040801401010014020A9
:1042100018014030200140022801401230014022A4
:10422000380140324001400448014014500140240C
:104230005801403460014006680140167001402674
:1042400078014036800140088801401890014028DC
:1042500098014038A001400AA801401AB001402A44
:10426000B801403AC001400CC801401CD001402CAC
:10427000D801403CE001400EE801401EF001402E14
:10428000F801403E00020008080280101002802061
:104290001802803020028002280280123002802220
:1042A0003802803240028004480280145002802488
:1042B00058028034600280066802801670028026F0
:1042C0007802803680028008880280189002802858
:1042D00098028038A002800AA802801AB002802AC0
:1042E000B802803AC002800CC802801CD002802C28
:1042F000D802803CE002800EE802801EF002802E90
:10430000F802803E0003000C0803C0101003C02018
:104310001803C0302003800C2803C0123003C022D1
:104320003803C0324003C0044803C0145003C02403
:104330005803C0346003C0066803C0167003C0266B
:104340007803C0368003C0088803C0189003C028D3
:104350009803C038A003C00AA803C01AB003C02A3B
:10436000B803C03AC003C00CC803C01CD003C02CA3
:10437000D803C03CE003C00EE803C01EF003C02E0B
:10438000F803C03E08040011100400211804003195
:104390002004000C280400133004002338040033E8
:1043A0004004000548040015500400255804003559
:1043B00060040007680400177004002778040037C1
:1043C0008004000988040019900400299804003929
:1043D000A004000BA804001BB004002BB804003B91
:1043E000C004000DC804001DD004002DD804003DF9
:1043F000E004000FE804001FF004002FF804003F61
:104400000805401110054021180540312005000D18
:104410002805401330054023380540334805401532
:104420005005402558054035600540076805401790
:1044300070054027780540378005400988054019F8
:104440009005402998054039A005400BA805401B60
:10445000B005402BB805403BC005400DC805401DC8
:10446000D005402DD805403DE005400FE805401F30
:10447000F005402FF805403F00064008080680116F
:1044800010068021180680312006C00828068013F7
:1044900030068023380680334006400948068015E0
:1044A000500680255806803560068007680680170C
:1044B0007006802778068037800680098806801974
:1044C0009006802998068039A006800BA806801BDC
:1044D000B006802BB806803BC006800DC806801D44
:1044E000D006802DD806803DE006800FE806801FAC
:1044F000F006802FF806803F0007400C0807C01127
:104500001007C0211807C0312007C00C2807C013AE
:104510003007C0233807C0334007400D4807C01597
:104520005007C0255807C0356007C0076807C01787
:104530007007C0277807C0378007C0098807C019EF
:104540009007C0299807C039A007C00BA807C01B57
:10455000B007C02BB807C03BC007C00DC807C01DBF
:10456000D007C02DD807C03DE007C00FE807C01F27
:10457000F007C02FF807C03F000800100808081017
:104580001008082018080830200880102808081291
:10459000300808223808083240080011480808147A
:1045A0005008082458080834600880116808081664
:1045B0007008082678080836800808108808081847
:1045C0009008082898080838A008080AA808081AB7
:1045D000B008082AB808083AC008080CC808081C1F
:1045E000D008082CD808083CE008080EE808081E87
:1045F000F008082EF808083E0009001408094810C1
:104600001009482018094830200980142809481248
:104610003009482238094832400900154809481431
:10462000500948245809483460098015680948161B
:1046300070094826780948368009081488094818FE
:104640009009482898094838A009480AA809481A32
:10465000B009482AB809483AC009480CC809481C9A
:10466000D009482CD809483CE009480EE809481E02
:10467000F009482EF809483E000A0018080A881078
:10468000100A8820180A8830200A8018280A881200
:10469000300A8822380A8832400A0019480A8814E9
:1046A000500A8824580A8834600A8019680A8816D3
:1046B000700A8826780A8836800A0818880A8818B6
:1046C000900A8828980A8838A00A8818A80A881AA0
:1046D000B00A882AB80A883AC00A880CC80A881C16
:1046E000D00A882CD80A883CE00A880EE80A881E7E
:1046F000F00A882EF80A883E000B001C080BC81030
:10470000100BC820180BC830200B801C280BC812B7
:10471000300BC822380BC832400B001D480BC814A0
:10472000500BC824580BC834600B801D680BC8168A
:10473000700BC826780BC836800B081C880BC8186D
:10474000900BC828980BC838A00B881CA80BC81A57
:10475000B00BC82AB80BC83AC00BC80CC80BC81C91
:10476000D00BC82CD80BC83CE00BC80EE80BC81EF9
:10477000F00BC82EF80BC83E000C4010080C0811B6
:10478000100C0821180C0831200CC010280C08133C
:10479000300C0823380C0833400C4011480C081525
:1047A000500C0825580C0835600CC011680C08170F
:1047B000700C0827780C0837800C4810880C0819F2
:1047C000900C0829980C0839A00CC810A80C081BDC
:1047D000B00C082BB80C083BC00C080DC80C081D09
:1047E000D00C082DD80C083DE00C080FE80C081F71
:1047F000F00C082FF80C083F000D4014080D48116C
:10480000100D4821180D4831200DC014280D4813F3
:10481000300D4823380D4833400D4015480D4815DC
:10482000500D4825580D4835600DC015680D4817C6
:10483000700D4827780D4837800D4814880D4819A9
:10484000900D4829980D4839A00DC814A80D481B93
:10485000B00D482BB80D483BC00D4815C80D481D7C
:10486000D00D482DD80D483DE00D480FE80D481FEC
:10487000F00D482FF80D483F000E4018080E881123
:10488000100E8821180E8831200EC018280E8813AB
:10489000300E8823380E8833400E4019480E881594
:1048A000500E8825580E8835600EC019680E88177E
:1048B000700E8827780E8837800E4818880E881961
:1048C000900E8829980E8839A00EC818A80E881B4B
:1048D000B00E882BB80E883BC00E4819C80E881D34
:1048E000D00E882DD80E883DE00E880FE80E881F68
:1048F000F00E882FF80E883F000F401C080FC811DB
:10490000100FC821180FC831200FC01C280FC81362
:10491000300FC823380FC833400F401D480FC8154B
:10492000500FC825580FC835600FC01D680FC81735
:10493000700FC827780FC837800F481C880FC81918
:10494000900FC829980FC839A00FC81CA80FC81B02
:10495000B00FC82BB80FC83BC00F481DC80FC81DEB
:10496000D00FC82DD80FC83DE00FC81DE80FC81FD5
:10497000F00FC82FF80FC83F0010002008101010CB
:104980001010102018101030201080202810101245
:10499000301010223810103240100021481010142E
:1049A0005010102458101034601080216810101618
:1049B00070101026781010368010082088101018FB
:1049C0009010102898101038A0108820A810101AE5
:1049D000B010102AB810103AC0100821C810101CCE
:1049E000D010102CD810103CE0108821E810101EB8
:1049F000F010102EF810103E0011002408111024A1
:104A000010115020181150302011802428115012FC
:104A100030115022381150324011002548115014E5
:104A200050115024581150346011802568115016CF
:104A300070115026781150368011082488115018B2
:104A40009011502898115038A0118824A811501A9C
:104A5000B011502AB811503AC0110825C811501C85
:104A6000D011502CD811503CE0118825E811501E6F
:104A7000F011502EF811503E001200280812102894
:104A800010129020181290302012802828129012B4
:104A9000301290223812903240120029481290149D
:104AA0005012902458129034601280296812901687
:104AB000701290267812903680120828881290186A
:104AC0009012902898129038A0128828A812901A54
:104AD000B012902AB812903AC0120829C812901C3D
:104AE000D012902CD812903CE0128829E812901E27
:104AF000F012902EF812903E0013002C0813102C88
:104B00001013D0201813D0302013802C2813902C91
:104B10003013D0223813D0324013002D4813D01454
:104B20005013D0245813D0346013802D6813D0163E
:104B30007013D0267813D0368013082C8813D01821
:104B40009013D0289813D038A013882CA813D01A0B
:104B5000B013D02AB813D03AC013082DC813D01CF4
:104B6000D013D02CD813D03CE013882DE813D01EDE
:104B7000F013D02EF813D03E00144020081450201B
:104B800010141021181410312014C0202814D02023
:104B900030141023381410334014402148141015D9
:104BA00050141025581410356014C02168141017C3
:104BB00070141027781410378014482088141019A6
:104BC0009014102998141039A014C820A814101B90
:104BD000B014102BB814103BC0144821C814101D79
:104BE000D014102DD814103DE014C821E814101F63
:104BF000F014102FF814103F00154024081550240D
:104C000010155021181550312015C0242815D02416
:104C10003015502338155033401540254815501590
:104C200050155025581550356015C025681550177A
:104C3000701550277815503780154824881550195D
:104C40009015502998155039A015C824A815501B47
:104C5000B015502BB815503BC0154825C815501D30
:104C6000D015502DD815503DE015C825E815501F1A
:104C7000F015502FF815503F001640280816502800
:104C800010169021181690312016C0282816D0280A
:104C90003016902338169033401640294816502974
:104CA00050169025581690356016C0296816901732
:104CB0007016902778169037801648288816901915
:104CC0009016902998169039A016C828A816901BFF
:104CD000B016902BB816903BC0164829C816901DE8
:104CE000D016902DD816903DE016C829E816901FD2
:104CF000F016902FF816903F0017402C0817502CF4
:104D00001017D0211817D0312017C02C2817D02CFD
:104D10003017D0233817D0334017402D4817502D67
:104D20005017D0255817D0356017C02D6817D017E9
:104D30007017D0277817D0378017482C8817D019CC
:104D40009017D0299817D039A017C82CA817D01BB6
:104D5000B017D02BB817D03BC017482DC817D01D9F
:104D6000D017D02DD817D03DE017C82DE817D01F89
:104D7000F017D02FF817D03F001800300818103067
:104D80001018182018181830201880302818903063
:104D900030181822381818324018003148181031CD
:104DA0005018182458181834601880316818903139
:104DB0007018182678181836801808308818183097
:104DC0009018182898181838A0188830A818181A99
:104DD000B018182AB818183AC0180831C818181C82
:104DE000D018182CD818183CE0188831E818181E6C
:104DF000F018182EF818183E00190034081910344D
:104E00001019582018195830201980342819903456
:104E100030195822381958324019003548191035C0
:104E2000501958245819583460198035681990352C
:104E3000701958267819583680190834881918348A
:104E40009019582898195838A0198834A819581A50
:104E5000B019582AB819583AC0190835C819581C39
:104E6000D019582CD819583CE0198835E819581E23
:104E7000F019582EF819583E001A0038081A103840
:104E8000101A9820181A9830201A8038281A90384A
:104E9000301A9822381A9832401A0039481A1039B4
:104EA000501A9824581A9834601A8039681A903920
:104EB000701A9826781A9836801A0838881A18387E
:104EC000901A9828981A9838A01A8838A81A9838EA
:104ED000B01A982AB81A983AC01A0839C81A981CF1
:104EE000D01A982CD81A983CE01A8839E81A981EDB
:104EF000F01A982EF81A983E001B003C081B103C34
:104F0000101BD820181BD830201B803C281B903C3D
:104F1000301BD822381BD832401B003D481B103DA7
:104F2000501BD824581BD834601B803D681B903D13
:104F3000701BD826781BD836801B083C881B183C71
:104F4000901BD828981BD838A01B883CA81B983CDD
:104F5000B01BD82AB81BD83AC01B083DC81BD81CA8
:104F6000D01BD82CD81BD83CE01B883DE81BD81E92
:104F7000F01BD82EF81BD83E001C4030081C5030C7
:104F8000101C1821181C1831201CC030281CD030CF
:104F9000301C1823381C1833401C4031481C503139
:104FA000501C1825581C1835601CC031681CD031A5
:104FB000701C1827781C1837801C4830881C583003
:104FC000901C1829981C1839A01CC830A81CD8306F
:104FD000B01C182BB81C183BC01C4831C81C181D2D
:104FE000D01C182DD81C183DE01CC831E81C181F17
:104FF000F01C182FF81C183F001D4034081D5034B9
:10500000101D5821181D5831201DC034281DD034C2
:10501000301D5823381D5833401D4035481D50352C
:10502000501D5825581D5835601DC035681DD03598
:10503000701D5827781D5837801D4834881D5834F6
:10504000901D5829981D5839A01DC834A81DD83462
:10505000B01D582BB81D583BC01D4835C81D5835CC
:10506000D01D582DD81D583DE01DC835E81D581FCE
:10507000F01D582FF81D583F001E4038081E5038AC
:10508000101E9821181E9831201EC038281ED038B6
:10509000301E9823381E9833401E4039481E503920
:1050A000501E9825581E9835601EC039681ED0398C
:1050B000701E9827781E9837801E4838881E5838EA
:1050C000901E9829981E9839A01EC838A81ED83856
:1050D000B01E982BB81E983BC01E4839C81E5839C0
:1050E000D01E982DD81E983DE01EC839E81E981F86
:1050F000F01E982FF81E983F001F403C081F503CA0
:10510000101FD821181FD831201FC03C281FD03CA9
:10511000301FD823381FD833401F403D481F503D13
:10512000501FD825581FD835601FC03D681FD03D7F
:10513000701FD827781FD837801F483C881F583CDD
:10514000901FD829981FD839A01FC83CA81FD83C49
:10515000B01FD82BB81FD83BC01F483DC81F583DB3
:10516000D01FD82DD81FD83DE01FC83DE81FD83D1F
:10517000F01FD82FF81FD83F0820802010202020B3
:10518000182020302820802830202022382020326B
:10519000402000214820C0205020202458202034C6
:1051A000602010246820C028702020267820203617
:1051B000882080309020202898202038A020083097
:1051C000A8208038B020202AB820203AC02008210A
:1051D000C820C030D020202CD820203CE02008312E
:1051E000E820C038F020202EF820203E00210024A6
:1051F0000821802110211024182160302021202432
:105200002821802930216022382160324021002568
:105210004821C0215021602458216034602150244D
:105220006821C029702160267821603680210824F9
:10523000882180319021602898216038A02108348D
:10524000A8218039B021602AB821603AC021082500
:10525000C821C031D021602CD821603CE021083524
:10526000E821C039F021602EF821603E0022003094
:1052700008228030102208301822A030202210305E
:10528000282288283022A0223822A0324022403012
:105290004822C0305022A0245822A034602250302E
:1052A0006822C8287022A0267822A03680222030CA
:1052B000882288309022A0289822A038A022183076
:1052C000A8228838B022A02AB822A03AC022603092
:1052D000C822C830D022A02CD822A03CE02218310D
:1052E000E822C838F022A02EF822A03E0023003188
:1052F00008238031102308311823E0302023103197
:1053000028238829302318313823E03240234031C4
:105310004823C0315023E0245823E0346023503127
:105320006823C8297023E0267823E03680231824D8
:10533000882388319023E0289823E038A02318346C
:10534000A8238839B023E02AB823E03AC0231825DF
:10535000C823C831D023E02CD823E03CE023183503
:10536000E823C839F023E02EF823E03E0824802407
:1053700010242024182420312824802C302410319B
:1053800038242033402400254824C02450242025DC
:1053900058242035602410256824C02C7024202730
:1053A0007824203788248034902420299824203998
:1053B000A0244830A824803CB024202BB824203BD3
:1053C000C0240825C824C034D024202DD824203D52
:1053D000E0244831E824C03CF024202FF824203F6A
:1053E0000825802510252025182560312825802DA9
:1053F00030255031382560334825C025502560259B
:10540000582560356825C02D7025602778256037C0
:10541000882580359025602998256039A025483455
:10542000A825803DB025602BB825603BC825C03538
:10543000D025602DD825603DE0254835E825C03DC4
:10544000F025602FF825603F0026003408268034C0
:10545000102608341826A031202610342826882C3F
:10546000302618343826A033402640344826C0342D
:10547000502648345826A035602650346826C82C5B
:105480007026A0277826A0378026203488268834E6
:105490009026A0299826A039A0265830A826883C16
:1054A000B026A02BB826A03BC0266034C826C8343E
:1054B000D026A02DD826A03DE0265831E826C83CAD
:1054C000F026A02FF826A03F0027003508278035BA
:1054D000102708351827E031202710352827882D78
:1054E000302718353827E033402740354827C03566
:1054F000502748355827E035602750356827C82D94
:105500007027E0277827E0378027203588278835DF
:105510009027E0299827E039A0275834A827883D0C
:10552000B027E02BB827E03BC0276035C827C83537
:10553000D027E02DD827E03DE0275835E827C83DA3
:10554000F027E02FF827E03F08282028102880289F
:1055500018282830282890283028882838282832E9
:105560004028002C4828202C5028802C58282834EB
:105570006028082C6828D0287028882C782828369D
:105580008828903098282838A0282830A8289038D3
:10559000B028282AB828283AC028102CC828D0308B
:1055A000D028282CD828283CE028182CE828D038E7
:1055B000F028282EF828283E0029002C0829082C3D
:1055C0001029102C182968302029202C28299029EE
:1055D0003029D030382968324029402C4829602CA5
:1055E0005029C02C582968346029482C6829D029B2
:1055F0007029C82C782968368029802C8829903118
:105600009029282C98296838A0292834A82990396D
:10561000B029682AB829683AC029502CC829D03145
:10562000D029682CD829683CE029582CE829D039A1
:10563000F029682EF829683E002A0038082A203808
:10564000102A8038182AA830202A0838282A283812
:10565000302A8838382AA832402A003C482A203C80
:10566000502A803C582AA834602A083C682A283CE2
:10567000702A883C782AA836802A1038882A9830E0
:10568000902A9038982AA838A02A1838A82A98383A
:10569000B02A9838B82AA83AC02A103CC82AD8306C
:1056A000D02AA82CD82AA83CE02A183CE82AD838C6
:1056B000F02AA82EF82AA83E002B4038082B603884
:1056C000102BC038182BE830202B4838282B68388E
:1056D000302BC838382BE832402B403C482B603CFC
:1056E000502BC03C582BE834602B483C682B683C5E
:1056F000702BC83C782BE836802B5038882B98319B
:10570000902BD038982BE838A02B5838A82B9839F4
:10571000B02BD838B82BE83AC02B503CC82BD83126
:10572000D02BE82CD82BE83CE02B583CE82BD83980
:10573000F02BE82EF82BE83E082C202C102C802C87
:10574000182C2831282C902C302C9031382C2833D0
:10575000402C002D482C202D502C802D582C2835E5
:10576000602C082D682CD02C702C882D782C283794
:10577000882C9034982C2839A02C6830A82C903C88
:10578000B02C6838B82C283BC02C102DC82CD03435
:10579000D02C282DD82C283DE02C182DE82CD03CDE
:1057A000F02C282FF82C283F082D202D102D802D8F
:1057B000182D6831282D902D302DD031382D68339B
:1057C000482D602D502DC02D582D6835682DD02DB9
:1057D000702DC82D782D6837882D9035982D683913
:1057E000A02D6834A82D903DB02D683CB82D683BA5
:1057F000C82DD035D82D683DE02D6835E82DD03D39
:10580000F02D682FF82D683F002E0039082E203922
:10581000102E8039182EA831202E0839282E28392C
:10582000302E8839382EA833402E003D482E203D9A
:10583000502E803D582EA835602E083D682E283DFC
:10584000702E883D782EA837802E1039882E9834F7
:10585000902E9039982EA839A02E1839A82E983C51
:10586000B02E9839B82EA83BC02E103DC82ED83483
:10587000D02E903DD82EA83DE02E183DE82ED83CE5
:10588000F02EA82FF82EA83F002F4039082F60399E
:10589000102FC039182FE831202F4839282F6839A8
:1058A000302FC839382FE833402F403D482F603D16
:1058B000502FC03D582FE835602F483D682F683D78
:1058C000702FC83D782FE837802F5039882F9835B2
:1058D000902FD039982FE839A02F5839A82F983D0C
:1058E000B02FD839B82FE83BC02F503DC82FD8353E
:1058F000D02FD03DD82FE83DE02F583DE82FD83DA0
:10590000F02FD83DF82FE83F1830303038303032A3
:105910004030003148300831503010315830303488
:1059200060302031683028317030183478303036AB
:105930008830A03098303038A830A038B03088385F
:10594000B830303AC0308031C830E030D03090319B
:10595000D830303CE0308831E830E038F0308839F9
:10596000F830303E00310034083108341031103442
:105970001831183420312034283128343031303473
:1059800038317032403100354831083550311035EA
:1059900058317034603120356831283570315834D1
:1059A00078317036803180348831A0319031903434
:1059B00098317038A0318834A831A039B031883C92
:1059C000B831703AC0318035C831E031D0319035CE
:1059D000D831703CE0318835E831E039F031883D2C
:1059E000F831703E00320038083280381032083802
:1059F000183288382032103828329038303218382F
:105A00003832B032403240384832C03850324838EC
:105A10005832B034603250386832D038703258382A
:105A20007832B036803220388832A0389032283828
:105A30009832B038A0323038A832A838B03298380E
:105A4000B832B03AC0326038C832E038D032683844
:105A5000D832B03CE0327038E832E838F032983969
:105A6000F832B03E0033003908338039103308393A
:105A700018338839203310392833903930331839A6
:105A800038339839403340394833C0395033483976
:105A90005833F034603350396833D0397033583963
:105AA0007833F036803320398833A0399033283961
:105AB0009833F038A0339834A833A839B033983CE1
:105AC000B833F03AC0336039C833E039D03368397D
:105AD000D833F03CE0339835E833E839F033983D7B
