:020000040800F2
:1000000008DA0020D51C0508FD110508FF110508B8
:10001000011205080312050805120508000000007A
:10002000000000000000000000000000ADB7000864
:10003000071205080000000055B70008091205085E
:10004000051D0508091D05080D1D0508111D0508DC
:10005000151D0508191D05081D1D0508211D05088C
:10006000251D0508291D05082D1D0508311D05083C
:10007000351D0508391D05085512050859120508D2
:100080003D1D0508411D0508451D0508491D0508BC
:100090004D1D0508511D0508551D050813120508BD
:1000A000591D05085D1D0508611D0508651D05082C
:1000B000691D05086D1D0508711D0508751D0508DC
:1000C000791D05087D1D0508811D0508851D05088C
:1000D000891D05088D1D0508911D0508951D05083C
:1000E00027120508991D05089D1D0508A11D050875
:1000F000A51D0508A91D0508AD1D0508B11D0508AC
:10010000B51D050843120508B91D0508BD1D0508E4
:10011000C11D0508C51D050845AF0008C91D050816
:10012000CD1D05084D120508D11D05082F12050823
:10013000D51D050861120508D91D0508DD1D050836
:10014000E11D0508E51D0508E91D05080D12050856
:10015000ED1D0508F11D0508F51D0508F91D05082B
:10016000FD1D0508011E050847120508051E0508A6
:10017000091E05080D1E0508111E050800000000D7
:10018000151E0508191E050838B5044694F8200008
:1001900018B10020206184F820002369E068A56878
:1001A0004FF4805200A9A84708B9012032BD216947
:1001B000E061411821610098A061002032BD38B58E
:1001C00004460D46E06930B92046FFF7DDFFE069DF
:1001D00008B9012032BDA069401CA061401E007812
:1001E0002870E069401EE061002032BD90F82520B3
:1001F000521E80F82520D2B2121892F821200A70DF
:1002000090F8251011B9DFF8581D416000207047A3
:1002100090F82520042A01D101207047531C1218A0
:1002200080F8253082F82110DFF8541D416000204D
:10023000704738B500F020F810B900F0F3F808B1B5
:10024000012032BD00F011F82880002032BD38B501
:1002500000F012F810B900F0E5F808B1012032BD45
:1002600000F003F82860002032BD9DF801009DF8E1
:10027000001041EA0020704704460D4662680DF107
:100280000101104770B5044682B00D46626800A9AE
:10029000904730B99DF80000FF2814D100F0C2F853
:1002A00008B1012076BD9DF80000FF2608B92E7028
:1002B00076BD01462046FFF7ABFFFF212046FFF742
:1002C000A7FF2E7000E02870002076BD70B50446B0
:1002D0000D46A06AC5F1100120FA01F20121A940E2
:1002E000491E01EA0206E16A491B012982B0E16266
:1002F00029DA0DF101012046FFF7C4FF20B900A95A
:100300002046FFF7BFFF08B1FF2076BDE06AA16A73
:100310004519C5F12002D141A16289B29DF80120A1
:1003200041EA02619DF8002041EA0241424200F1A7
:10033000200301FA02F221FA03F545EA0201103026
:10034000A162E06203E0C5F12001C841A06230462D
:1003500076BD10B504461020E062102100F0A6FC26
:100360002046BDE810401021B0E738B50D46012DFC
:1003700004460CDB03E02D1A2046FFF705FFE06979
:10038000A842F8DBA1696918401BA161E06131BD99
:100390002DE9FC4100F00BF9002840D10198DFF86D
:1003A000E48B801E01900198012837DB00F03AF8B9
:1003B000002834D19DF80000060900F00F00042841
:1003C0008DF800002BD204EBC01101F5E24704EBDD
:1003D000800047F2103110370F50002576B10DF133
:1003E00002012046FFF725FF002802BF15F808008C
:1003F000BDF8021027F8101007D010E000F0D2F876
:1004000068B99DF8010027F815006D1C402DE5DB4B
:100410000198002E0CBF41388138C3E700B101209C
:10042000BDE8F681626800A920461047F0B583B0A8
:1004300000F0BDF8002856D1251D0DF101012A68F4
:100440002046904700284ED104F116012046FFF7C0
:10045000F0FE002847D104F114012046FFF7E9FE21
:10046000002840D147F220362A68311920469047AB
:10047000002838D1019808380190688A00281CBFEC
:10048000288A00282FD0305D05282CDA019900EB4E
:100490004000814227D1002700E07F1C305D874269
:1004A00023DA381900F5E6412A682D3120469047B5
:1004B000C8B92A68FFF7B7FFA8B938199DF8001026
:1004C00000F5E640090900F8211F9DF8001001F031
:1004D0000F010171381900F5E6412A6829312046DB
:1004E00090470028D9D00120FEBD0020FEBDF0B508
:1004F00083B000F05CF8002850D10198801E01E024
:100500000198401B01900198112849DBFFF78AFFF1
:10051000002843D19DF800109DF80000890800F0E4
:100520000F0001F0040108188DF800009DF800008C
:10053000082833DA0019012180F8301000259DF8D1
:10054000000000EB0010001900F13806102706F833
:10055000015B00F027F808BB9DF8010006F8010BCD
:100560007F1E9DF8010055FA80F5F2D101981138EF
:10057000FF2D019012DCA84210DB9DF8000004EB77
:10058000002000F1C00600E07F1CAF42B8DA6268CC
:10059000314620469047761C0028F5D00120FEBD4C
:1005A0000020FEBD62680DF101012046104704469F
:1005B00001A94CE670B584B0FFF7F9FF002852D1CD
:1005C000FFF7F0FF00284ED19DF80100019942008D
:1005D000921D914247D1052845DAC81E019004F5C5
:1005E000E64520359DF80100687400261BE0401C9C
:1005F0002978884237DA011901F5E6419DF8022091
:1006000011F82D3F9A42F2D1321947F23233761C5B
:1006100098549DF80000000948729DF8000000F011
:100620000F00001D48739DF80100626886420DDAD4
:100630000DF1020120469047A8B9FFF7F3FE00280C
:1006400011D10198801E01900020D1E702A9204617
:10065000904740B962680DF103012046904710B9F8
:10066000FFF7E0FE08B101201EE004F5E6409DF82A
:10067000001078300909C1709DF8001001F00F01D9
:10068000817047F21141095D29B19DF80810017090
:100690009DF8031001E001703F2141700198C01ED8
:1006A000019000F003F8002004B070BD0146204620
:1006B0005BE630B583B004460D4607E000F070F805
:1006C00020B90098801E0090FFF7F0FF00F064F85A
:1006D00000285FD19DF80400FF2804D000F05CF8EA
:1006E0000028F7D056E000F057F8002852D19DF8C6
:1006F0000400FF28F7D00028E8D02870401E49D019
:10070000BF3803281BD9001F1BD0401E022816D952
:10071000C01E3FD0401E022811D9C01E3AD0401E34
:1007200002280CD9C01E072834D90838022806D957
:10073000C01E0BD0801E0DD0113818D0BEE700208F
:100740003EBD2046FFF7D3FE20BBBFE72046FFF7A4
:100750001FFEF9E700F024F8E0B90098042819D149
:1007600004F5E8413C312046FFF771FDECE700F06D
:1007700017F878B90098801E0C2800900ADB0B212E
:10078000FFF795FF00F008F8002804BF9DF804006B
:1007900001289BD001203EBD626801A92046104778
:1007A00000A9204653E570B504460D46A06AC0F383
:1007B000072055F82060002E0ED5082100F076FAAB
:1007C00000F073FAF143491C081A05EB8000D0F8D9
:1007D0000065002EF4D404E0701990F8001400F0C5
:1007E00065FA304670BD2DE9F043002300F5E6417F
:1007F00088B000241D46203147F221320AE02E182D
:10080000961937783679BC42B8BF3C46B342B8BF78
:1008100033466D1C0E78B542F1DB002500F114075C
:100820000DF1000C0DF1100E26E02E189619B7F8F8
:10083000008096F8009009FB0848A8F1010898FB91
:10084000F4F808F107084FEAA80908EB59784FEACD
:10085000E8084EF825803679B7F8028006FB08369E
:10086000761E96FBF3F6F61D4FEAA60806EB5876C1
:10087000F6104CF825606D1C0E78B542D5DB00F5FE
:10088000E8464D7C4836012D07D18B7C5EF823303D
:1008900033608B7C5CF8233015E03D88ED1D4FEA1A
:1008A000A50C05EB5C7504EBE5056D1E95FBF4F4FA
:1008B00034607C88E41DA51004EB557403EBE4045C
:1008C000641E94FBF3F373604B7C012B06D1887C90
:1008D000F0600120B06008B0BDE8F0830023B36091
:1008E0000FE0B46804F1010CC6F808C000EB840402
:1008F00047F2544C4CF804503C46671E002CF0D193
:100900005B1C4C7CA342E6DA1C1847F232352D5DA5
:100910002C181419277824796743EDE738B5044675
:100920004FF4FA65FFF77EFDF0B99DF80000FF284F
:1009300002D06D1EF6D117E02DB915E09DF800002C
:10094000FF2808D16D1E012D04DBFFF76BFD002889
:10095000F4D009E045B104F5E8453835E9689DF87B
:100960000000D031884201D0012032BD47F2203052
:100970000021005D820004F5E640683002F0EAFAEA
:10098000002028606868A860E868401C00F0070044
:10099000E8602046FFF7DDFC002032BD012900EBB6
:1009A000021002D0022904D007E000F5E6407C30B6
:1009B000704700F5E640BC307047002070472DE9D5
:1009C000F04182B080460C4615461F4602F0B9FD44
:1009D00000F02DF8064600980099281800F5E6402A
:1009E00001F5E84110F8213F51F8142F5A433260C5
:1009F000496800794843706007FB07F04000B06029
:100A000002F098F9B068316848437168484302F0D1
:100A100029FE070008D000F069FE00F008F8C76062
:100A200002F088F9002000E00120BDE8F681009086
:100A30002A462146B2E72DE9F84381460C46904606
:100A40001D4602F07EFD00F02DF80746009847F2A3
:100A5000144147F221320858009941440026515C64
:100A60004843386048F2A84100980858786005FB70
:100A700005F04000B86002F05DF9B8683968484395
:100A80007968484302F0EEFD050008D001F0BCFF94
:100A900000F008F8074602F04DF9FD6000E001267D
:100AA00002F049BA00904246214677E72DE9F84323
:100AB000144600F504429846089E099F12F8A03F8C
:100AC00083B920688045BCBF6068864223DA00F0A5
:100AD00025F8386005FB0800226805FB06F102FBDB
:100AE000010019E000EB810048F2B04151F800909C
:100AF0004E45A1BF90684844401EB0420BDB00F059
:100B00000DF83860A6EB090122686943514305FBE3
:100B10000811081800E00020BDE8F283A568E0682D
:100B200002F00FBD2DE9F04184B000F033F80F461C
:100B3000134604EB071000F5E6427C3201F00BFA95
:100B40000025060024D0381947F2363100F0A4F809
:100B50005FEA00080FD0414600F0A8F8DFF86C1BF0
:100B600051F828108842BDBFDFF8641B51F82810E7
:100B700001EB0008804604EB870047F268310A5811
:100B800042440A5000F077F9308001F0BFF800E0ED
:100B9000012521E0044602A80190009370472DE949
:100BA000F0410E4684B0044690461F460121FFF7EF
:100BB0008DFB002580B102A80190009704EB061080
:100BC00000F5E64243467C32314601F0C4F910B1EB
:100BD00001F094F800E00125284604B0BDE8F0815A
:100BE0002DE9FE4F044647F2384689463059002524
:100BF00010B1401E30514AE0FFF7CDFF04EB091061
:100C000001F0A5F95FEA000840D047F27830DFF83C
:100C1000BCAA075D17E0C719402F25DA594600F036
:100C200045F85AF82B108842BDBFDFF8A41A51F8D6
:100C30002B1001EB000B834600F09AF90BFA00F041
:100C400028F811007F1C00F08DF91CDB09EB040073
:100C500000F020F80146081111F00F0BDBD10F282E
:100C600004D10F37402FEDDB01250CE0012181403D
:100C7000315128B1014600F019F83159401830516E
:100C80003059401E305101F041F800E0012528465E
:100C9000BDE8FE8F47F23A31085C4FF4506111FB1A
:100CA000004000F50C6120467DE501212046FFF75C
:100CB0000DBB2DE9F24F044604F5E64078300121E2
:100CC000807801FA00F984B04FF0FF3101FA00F0AA
:100CD0000290009303A8019013460498049904EB32
:100CE000001001F035F900904FF0000847F278301D
:100CF000075D009800287CD047F238452859B0B1EC
:100D00002859012871DB53E0761E06D104F5E64030
:100D100078307F1C4078874221DBBAF1000F05D084
:100D2000402F03DA00F06BF820F811A07F1C00F0D0
:100D30006AF8E5DA04980019FFF7ACFF061110F025
:100D40000F0A25D0BAF1010F02D04FF001084CE094
:100D5000FFF7ABFF00280CBFDDF808A0CA4600F083
:100D60004EF800EB410BBBF900000028CCD0FFF798
:100D70009CFF0028CAD0BBF9000010EA090FC5D1BA
:100D8000002846BF029908184844ABF80000BDE7A8
:100D90000F2EE4D00120B0402851002EB0D03146B3
:100DA000FFF784FF295940182851A9E730807F1C9C
:100DB00000F029F816DA00F022F800EB4106B6F947
:100DC00000000028F3D0FFF770FF0028EFD0B6F93D
:100DD000000010EA090FEAD1002852BF48440299E6
:100DE0000818E3E72859401E285103A802F0B4FB75
:100DF00001E04FF00108404605B0BDE8F08F6149C1
:100E00000098795C704704F5E64078304078874276
:100E10007047FEB5FFF7BEFE0E46134604EB061004
:100E200000F5E6427C3201F096F80546301947F2AB
:100E30003631FFF731FF07000ED03946FFF736FF96
:100E4000DFF8881851F827108842BDBFDFF8D41B9F
:100E500051F827100F18074604EB860047F2683157
:100E60000A58D2190A5025B100F005F8288000F080
:100E70004DFF0020FEBD47F27A30005702FA00F025
:100E80007047FEB50D46044616461F460121FFF782
:100E90001DFA70B102A80190009704EB051000F54F
:100EA000E64233467C32294601F055F808B100F09D
:100EB00025FF0020FEBD2DE9FE4F044647F23845D0
:100EC0008B46285910B1401E285146E0FFF763FEBB
:100ED00004EB0B1001F03BF8064647F27830DFF8E0
:100EE000F087075DDFF8E49717E0CF19402F31DA7C
:100EF0005146FFF7DBFE014659F82A008142BABF8E
:100F000058F82A0000EB010A8A462EB100F030F8AA
:100F10000AFA00F026F811007F1C00F023F819DB14
:100F20000BEB0400FFF7B6FE011110F00F0ADCD145
:100F30000F2903D10F37402FEEDB0BE00120884053
:100F4000285121B1FFF7B2FE2959401828512859DC
:100F5000401E28510EB100F0D9FE0020BDE8FE8FE2
:100F6000BF01000804F5E64078304078B842704789
:100F700004F5E6407830034990F90200795C704747
:100F8000ED010008E81E0008012070472DE9F24F2E
:100F90008AB004461022002101A801F0DBFF0020E6
:100FA00004F5E84500903C350DF1140911E000F01E
:100FB000C8FF01A93A1951F827109A5C51FA82F139
:100FC00001AA42F8271000F0AFF9F0DB0098401CAE
:100FD000009000982969884263DA1022002105A850
:100FE00001F0B8FF4FF0000804E06868401E686038
:100FF00008F10108E868804540DA00262868B34611
:1010000020B1686810B92046FFF788FCB24616E0A8
:10101000381900F5E6400BF1010B10F8211F8B4544
:1010200001BF4FF0000B761C0079864205D159F8BC
:1010300027000026081849F827000AF1010A686904
:101040008245D2DA04EB8A0047F254410F58DDF8AA
:1010500028C001A8394650F82700331859F827004E
:101060000BEB00022046E04708B101201AE000F037
:1010700063FFCDD159F82700401CDCE700F05CFF8E
:101080000BD104F5E640313001A9407851F8201029
:1010900001AA491C42F8201098E7002047F22533A6
:1010A00091E700200BB0BDE8F08F2DE9F04FADF2D5
:1010B0000C5D8946FFAD804692460024012108352B
:1010C000012002E06155641C401C09EB09124244F6
:1010D0008A1892F838208242F4DA491C1129EFDB91
:1010E0000020605500229DF80404114600AE08E07F
:1010F00046F82120491C521C4B5D8342F8D0520017
:10110000401C4B5D002BF7D14FF48062002150460C
:1011100001F020FF4FF4006200210AF5A06001F009
:1011200019FF4FF4807200210AF5806001F012FF70
:101130004FF0FF334FF0000C0AE0110458BFBE46D9
:10114000CEF100010AEB8101C1F8FC040CF1010CA5
:10115000A44546DA08EB0920604490F8C00056F830
:101160002C201CF8051000EB0A07092987F8001449
:101170000DDAC1F108018A40012707FA01F10129BE
:10118000A2BF4AF82200521C491EF8DADEE7A1F19C
:10119000080E22FA0EF7FFB25AF827E0BEF1000F50
:1011A00003D19E464AF827E09B1EC1F11807BA40BA
:1011B00001E05200491E0A29AEF10107BDDB5FEADA
:1011C000024B58BFBE46CEF1000E0AEB8E07D7F891
:1011D000FCE4BEF1000FECD1C7F8FC349E469B1E28
:1011E000E7E70DF20C5DBDE8F08FF8B5044604F5B5
:1011F000E641002011F8786F47F2363500E0401CD8
:1012000047F23132125D90421CDA021947F2323352
:101210009A5C1219AA181378092B11DA002E02BF52
:101220001B1993F83030002B0AD01379092B07DAF9
:101230004A78002AE3D01A1992F83020002ADED129
:101240000120F2BD00274FF4506606FB074000F571
:101250000C6239462046FFF728FF7F1C082FF4DB7D
:10126000002018E004EB800147F2544201F5E0470A
:101270005258131906FB0242EB5C02F50C6247F868
:10128000C02FBA62401C04EB830202F5E64247F22B
:10129000403368325A5047F2504109598842E1DBE5
:1012A0000020F2BD10B582B0044600A9FFF701FA94
:1012B000002804BF9DF80000DA2833D12046FFF74C
:1012C00079F978BB2046FFF78EFA2046FFF78DFFAD
:1012D00040BB0EE0011947F23232515C091947F266
:1012E0002932515C04EB810147F210325158C9B1E7
:1012F000401C00F019F8EDDB04F5E6401022002157
:10130000683001F027FE04F5E840002140F8381F5E
:10131000416811B181600021C1602046FFF719F8D2
:10132000002016BD012016BD47F23131095D88420B
:1013300070472DE9F843044604F5E8454FF00009ED
:1013400000211435822647F2213847F220370BE07E
:10135000081940442A68037800795A436B685A4355
:10136000504306FB0099491C385D8142F0DB02F0D6
:1013700008F9484527D204F50442012102F8A01FCC
:10138000002300210AE001EB040ED5F800C018F894
:101390000EE00EFB0CFC06FB0C33491C17F804C0D6
:1013A0006145F0DBB0FBF3F0906008B901200BE081
:1013B000E18AC91D8B1001EB537100EBE101491E5D
:1013C00091FBF0F050600020BDE8F2832DE9F84376
:1013D000804602F0B6F847F22035009000242F5CDA
:1013E00001F0A8FC042F13D0002600E0761CBE42BA
:1013F00010DA0123324601214046FFF7E0FA38B9FE
:101400000823324602214046FFF7D9FA0028EDD0E2
:1014100001205AE000F06AF90090DFF80C66DFF86E
:101420000C86DFF80C76DFF80C960098FFF73AFF91
:101430000028009833D100F5E64010F878CFC27844
:1014400090F801E0BCF101018941C90F130018BFF8
:101450000123E64521D319B1BEF1000F08D01CE0ED
:10146000DDF800C0AC449CF811C0BCF1010F14D1F0
:10147000002B1EBF8078521E90420ED121B1002B4E
:101480000CBF3946494603E0002B14BF41463146A4
:101490000098FFF77BFD0028C7D0012412E0281830
:1014A00000260178417404E0301847F232310E54BE
:1014B000761C009847F23131085C86420098F3DBD5
:1014C000FFF791F901F036FC2046BDE8F2832DE9E3
:1014D000F04F83B0804602F034F800F5E642009009
:1014E000002412F8203F012B47F21C4147F2124022
:1014F00005D1009BC454009A8918012217E0032BE0
:1015000004BF9378012B2DD19379012B01BFD378A0
:10151000012BD379012B25D15378012B0AD1527994
:10152000012A14D1009BC254009A891803220A6030
:10153000082221E0022B15D15279012A11D1009BFA
:10154000022200F0CDF810228A60082215E0022A5B
:1015500008D1009B032200F0C3F808228A60102201
:101560000BE0022A40F08A80009B0422C254009AB9
:10157000891806220A6010228A60CA600099009ABF
:1015800032F8146F01F5E84114310B6900F0A2F84C
:101590000B6056884B6900F09DF84B6053888B6751
:1015A000CC67009BC35C002B0CBF012304238B6121
:1015B0004FF6F07312880F321A408B695A43CA6192
:1015C000009A875C08688A6802FB00F5CD600020FD
:1015D000D1F81CA04100A1F58071009A4BF2743340
:1015E0004B4302EB800203F5004347F2A0461B1475
:1015F000B35047F6A0064EF2D0234B4303F5004309
:101600001B14B35047F6A046DFF82C344B43B350BD
:10161000401CDFF82834594348F2A003FF289950B2
:10162000D8DD01F087FBE80102F01CF80646A801AE
:1016300002F018F88346284602F014F80546504692
:1016400002F010F8032F18BF042F814604D1504632
:1016500002F008F8824600E0A246002E18BFBBF157
:10166000000F0BD0002D18BFB9F1000F06D0BAF152
:10167000000F05D1032F18BF042F01D101241FE053
:1016800000F034F8009000F5E84040F87C6FC0F8B6
:1016900008B04560C0F81890C0F81CA0406801F080
:1016A00050FF0190002003E0019A40218154401C2A
:1016B000009947F2204251588842F5DB01F09DF92C
:1016C00001F038FB2046BDE8FE8F0000741C0008C6
:1016D000B41C000813FA86F6761E96FBF3F37047E7
:1016E000C254009A891804220A607047404601F0EB
:1016F00028BF2DE9F14F0A4685B00821B0F90490C2
:10170000B0F90280B0F90640B0F90830B0F90AE04B
:10171000B0F90CA0B0F90EB049EA080626431E4302
:101720004EEA06064AEA06065BEA060606D1835F2B
:101730009B0000F08FF900F08DF986E00AEB0906B6
:1017400041F251157543BE4E16FB0A5641F67E070F
:1017500017FB0959B0F9005000945F19EB1A7F0389
:101760005D0306EB050AAE1B09EB070304EB0B0553
:10177000A7EB090908EB0E0404EB050C42F2A15794
:1017800007FB0CF7049708EB0B0CAE4F07FB0CF7AD
:101790000397DDF800C0AC4FF44407FB0CF7029749
:1017A000DFF8A8C2049F0CFB057CA94D05FB04755E
:1017B000019540F68E14039D029F14FB0B5B029D66
:1017C00044F2B31414FB0E5E019CA644009C46F246
:1017D0005425E34405FB0474A444039D43F20B0425
:1017E00014FB0858019CA04408EB030404F5806432
:1017F000A3EB0803E41203F580630480DB12C381CA
:101800000CEB0A0303F58063DB124380AAEB0C03A5
:1018100003F58063DB1283810EEB060303F580631F
:10182000DB128380A6EB0E0303F58063DB1243819A
:101830000BEB090303F58063DB12C380A9EB0B03F9
:1018400003F58063DB1203811030491E7FF456AF2D
:1018500005980821B0F92090B0F91080B0F9304017
:10186000B0F94030B0F950E0B0F96050B0F970B064
:1018700049EA080626431E434EEA06062E435BEA63
:10188000060613D130F9023B10335B11803383F32A
:101890000803137013721374137682F8203082F8E1
:1018A000283082F8303082F83830B3E005EB090692
:1018B00041F251177743624E16FB057641F67E05DD
:1018C00015FB0979B0F9005000945F19EB1A7F03FA
:1018D0005D0306EB050A09EB0703AE1BA7EB09093D
:1018E0005C4408EB0E0505EB040C42F2A15707FB24
:1018F0000CF7049708EB0B0C524F07FB0CF7039700
:10190000DDF800C0504FF44407FB0CF70297DFF8F6
:101910003CC1049F0CFB047C4D4C04FB05750195F8
:1019200040F68E14039D029F14FB0B5B029D44F254
:10193000B31414FB0E5E019CA644009C46F2542591
:10194000E34405FB0474A444039D43F20B0414FB1D
:101950000858019CA04408EB030404F50034A414C7
:10196000803414F47F4F04D044F3C73484F0FF0470
:10197000E4B2A3EB080303F500339B14803313F4A4
:101980007F4F147004D043F3C73383F0FF03DBB2FF
:1019900082F838300CEB0A0303F500339B148033D4
:1019A00013F47F4F04D043F3C73383F0FF03DBB25C
:1019B0001372AAEB0C0303F500339B14803313F46A
:1019C0007F4F04D043F3C73383F0FF03DBB282F8C9
:1019D00030300EEB060303F500339B14803313F411
:1019E0007F4F04D043F3C73383F0FF03DBB213749C
:1019F000A6EB0E0300F037F882F828300BEB090352
:101A000000F031F81376A9EB0B0300F02CF882F804
:101A10002030801C521C491E7FF41CAF06B0BDE86C
:101A2000F08F0000B41C0008E10B0008B30C0008A4
:101A3000250B00089F0B000898A4FFFFF4D3FFFFBD
:101A4000DFC4FFFF33E3FFFFFDADFFFF3BC1FFFF3F
:101A500084F3FFFF20F8023B20F8023B20F8023B12
:101A600020F8023B704703F500339B14803313F4D6
:101A70007F4F04D043F3C73383F0FF03DBB27047DB
:101A80002DE9F04F87B0834600200490002700F036
:101A900031F90FF25446406C01F053FD009001976C
:101AA0000AE000F027F90BF5E84140683C31401EA0
:101AB00048600198401C01900BF5E8413C310198C9
:101AC000C968884280F2D08047F23C4050F80B0051
:101AD00030B100F00FF9406810B95846FEF71EFF0C
:101AE0004FF000081DE0A05D002329F81030641CB1
:101AF0000846411E0028F6D11446641C402C6ADBBF
:101B0000544507DA20460022815D29F81120401C47
:101B10005045F9DB00983C547F1C00F0F7F808F1C1
:101B2000010800F0E7F840698045BADA0498002817
:101B3000B7D10BEB880047F254410D5800F0DAF8AA
:101B4000006C01F0FEFC029000EBC71905EB0B00E6
:101B500000F5E64447F2103114F8290F0BEB800032
:101B6000085803904FF45061607B11FB00B000F502
:101B70000C615846FEF717FE824680B15146584622
:101B8000FEF7A4FB0FF2EC0151F82A108842BDBF0A
:101B90000FF2201151F82A1001EB000A82460BEBDC
:101BA000850047F26831095801EB0A0547F26831B0
:101BB0000D504FF450610398008815FB00F0A9F810
:101BC0000000009817F800A0607C11FB00B000F541
:101BD0000C600590012405995846FEF7E4FD014686
:101BE000081111F00F05AAEB04012CD090B10219D5
:101BF000402A2FDA54450CDA884206DD084604E014
:101C0000A15D002329F81130641C0146481E0029FB
:101C1000F6D1144629465846FEF758FB0FF25401F8
:101C200051F825108842BDBF0FF2880151F82510E8
:101C30000D180546039931F81410A05D15FB01F14C
:101C400029F8101059E70F287FF45AAF04F10F025A
:101C5000402A02DB012004905FE75445BFF64CAFF9
:101C6000112900DB102143E701F064F8002000F0A7
:101C70003FBD000000000000010000000200000065
:101C80000400000008000000100000002000000018
:101C90004000000080000000000100000002000081
:101CA00000040000000800000010000000200000F8
:101CB0000040000000000000FFFFFFFFFDFFFFFFEE
:101CC000F9FFFFFFF1FFFFFFE1FFFFFFC1FFFFFF94
:101CD00081FFFFFF01FFFFFF01FEFFFF01FCFFFF90
:101CE00001F8FFFF01F0FFFF01E0FFFF01C0FFFF70
:101CF0000180FFFF0BF5E8403C30704747F27A3334
:101D000001221B5701889A401143018002A801F06B
:101D100023BC2DE9F04F8FB004460020059010221F
:101D200000210BA801F016F9002001E00498401CE6
:101D3000049047F2484104980959884280F2AA80E9
:101D400000254FF00009029514E030786D1C8542A3
:101D500001BF002509F101093179894507D10BA996
:101D6000A94651F8271040180BA941F827000298FE
:101D7000401C029004F5E841483102988968884285
:101D8000D4DA04EB800047F254410F5804F5E840E0
:101D9000483004EB071B406B01F0D3FB059903901F
:101DA00000EBC118381900F5E646213647F210312C
:101DB000307A04EB80000BF5E64208580A9047F2AF
:101DC000FC310BA87C3250F827002818079004EB50
:101DD00087000858079B48440690394609A8019097
:101DE0000698009000F0B7F8824608A801900BF51D
:101DF000E6420698079B0090BC32394600F0ABF8EB
:101E00008346BAF1000F18BFBBF1000F25D0BAF816
:101E10000000A8F800007E220BF1020108F1020088
:101E200001F032FC3F200FF2C001415C38F8111084
:101E300011B9401E0128F6DA00280ED40FF2A801CD
:101E4000415C38F8112032B10A9B33F8103012FB94
:101E500003F228F81120401EEEE7039810B103A802
:101E600001F07AFBBBF1000F1CBF08A801F074FB66
:101E7000BAF1000F1CBF09A801F06EFB0598401CC9
:101E8000059000F059F87FF460AF0BA850F82700D8
:101E9000401C69E700F050F80DD104F5E640313000
:101EA00047F2FC31407804EB800047F2FC320958DD
:101EB000491C115014E0002047F225350DE000F0D8
:101EC00040F804EB870147F2FC323B195258EB5CB7
:101ED00052FA83F247F2FC335A50FFF725FAEEDB51
:101EE00000200FB0BDE8F08F000108100902030ABE
:101EF00011182019120B04050C131A21283029225D
:101F00001B140D06070E151C232A313839322B24D9
:101F10001D160F171E252C333A3B342D261F272E56
:101F2000353C3D362F373E3F3F3F3F3F3F3F3F3FF2
:101F30003F3F3F3F3F3F3F3F47F23130005D012889
:101F40007047011947F23232401C575C7047134604
:101F500000F5E642BC322046FEF7A8BD2DE9FE4F53
:101F6000814609F5E840A030029009F5E84709F5F7
:101F7000F040A0300090143709F5F84000F1A00AB5
:101F800009F5004000F1A00B7869F96F441A47F297
:101F9000944050F8090001F0D4FA019048F2C0438F
:101FA000796F3F680FF2507201EBC40107E0001D2A
:101FB0000CF1010CBCF1080F05DBC0317F1E012FB5
:101FC00068DB4FF0000C0CEB010453F8095094F857
:101FD00040801CF801E094F88040202D1DD1FF25A1
:101FE000C570029D55F824507544AD1895F8005100
:101FF00085705AF824405BF828502C190EEB2444C5
:10200000A41894F800414470009C54F82840A64459
:1020100096449EF80041047036E0029E56F8246013
:102020007644B618102D96F8006119D1F5085AF8C3
:1020300024405BF8286034190EEB2444A41894F86B
:102040000041A408640144EAC524009D55F82850C5
:10205000AE4496449EF8005144EAD504048017E04B
:1020600006705AF824405BF828502C190EEB2444D3
:10207000A41894F800414470009C54F82840A644E9
:1020800096449EF80041847053F80940102C8ED17C
:10209000801C8DE700F0B1FCBDE8F78F2DE9F14F12
:1020A00088B000F5E840A03006904FF0FF0908988E
:1020B00000F5F040A0300590089800F5F840A030F9
:1020C0000490089800F50040A0300390089800F5AF
:1020D000E84000F114056869E96F461A089800F5B0
:1020E000E84757F8940F01F02CFA029004467868FC
:1020F00001F027FA0190082E6A6FB1BF02EBC6010A
:1021000006F0070102EBC1018031731002EBC3023C
:102110002B68009302F580720FF2DC5310E0083454
:102120000830521CBF1C082F11DB4031BAF1010AE4
:102130000CD1009D6D1E01F5807102F5BC720095F9
:10214000009D012DC0F21D814FF0020A0027069D5F
:1021500092F840E055F82EC0049D55F82EE0039DFE
:1021600092F8008055F82850AE44059D55F8288017
:10217000089D48F2C04675597E18202D4CD13578FF
:1021800084F803900CEB0506F61896F80061A6702B
:1021900005EB2E46F618454496F800616670ED187A
:1021A00095F8005125707D186D7884F807900CEB38
:1021B0000506F61896F80061A67105EB2E46F6188E
:1021C000454496F800616671ED1895F80051257147
:1021D0007D182D7A80F803900CEB0506F61896F81A
:1021E0000061867005EB2E46F618454496F80061AE
:1021F0004670ED1895F8005105707D186D7A80F8DD
:102200000790AC449C449CF80061867105EB2E4C11
:1022100000F0BDF80571AAE0102D35780CEB05062D
:1022200064D105EB2E4B9B44F6189BF800B196F851
:1022300000614544ED184FEA9B0BF6084FEA4B1B33
:1022400095F800514BEAC62646EAD50525807D184B
:102250006D7805EB2E4B0CEB05069B44F6189BF8AE
:1022600000B196F800614544ED184FEA9B0BF60863
:102270004FEA4B1B95F800514BEAC62646EAD505B6
:1022800065807D182D7A05EB2E4B0CEB05069B44E3
:10229000F6189BF800B196F800614544ED184FEA36
:1022A0009B0BF6084FEA4B1B95F800514BEAC626EC
:1022B00046EAD50505807D186D7A05EB2E4EAC44B7
:1022C0009E449C449EF800E19CF800614FEA9E0EFB
:1022D000F6084FEA4E1E4EEAC62608EB050E9E444F
:1022E0009EF8005146EAD505458047E0F61896F875
:1022F0000061267005EB2E46F618454496F80061FD
:102300006670ED1895F80051A5707D186D780CEB8E
:102310000506F61896F80061267105EB2E46F618AC
:10232000454496F800616671ED1895F80051A57165
:102330007D182D7A0CEB0506F61896F800610670EC
:1023400005EB2E46F618454496F800614670ED18E8
:1023500095F8005185707D186D7AAC449C449CF8CA
:102360000061067105EB2E4C00F011F8857148F202
:10237000C046089D7559102D7FF4D1AE241D001D57
:10238000CFE6FFF7C3FC00F038FB00F039BB9C44FC
:102390009CF80061467108EB050C9C449CF80051C8
:1023A00070472DE9F14F86B000F5E840A030049069
:1023B000069800F5F040A0300390069800F5F8402C
:1023C000A0300290069800F50040A03001900698D9
:1023D00000F5E84414346069E16F451A069847F245
:1023E0009441085801F0ADF800900146606F2468F0
:1023F0000FF2043300EBC50000F180020EE008315B
:102400000831521C0AF1010ABAF1040F0DDB403009
:10241000B9F1010907D18030F832641E012CC0F2F5
:10242000A7804FF002094FF0000A049F92F840C0C5
:10243000029D57F82C7055F82CC0019D92F800E0D1
:1024400055F82E50AC44039D55F82EE0069D48F2F9
:10245000C04600EB4A087559202D29D110F81A50B2
:10246000FF26CE707E19F61896F800618E7005EB87
:102470002C46F618754496F800614E70ED1895F8E4
:1024800000510D70FF2598F80160CD713744FF1899
:1024900097F800718F7106EB2C47FF1897F80071C1
:1024A0004F710EEB0607FF1897F800710F7156E099
:1024B000102D10F81A502FD105EB2C4B7E199B4490
:1024C000F6189BF800B196F800617544ED184FEAD4
:1024D0009B0BF6084FEA4B1B95F800514BEAC626BA
:1024E00046EAD5050D8098F8015005EB2C4C2F4499
:1024F0009C44FF189CF8006197F800710EEB050CE6
:102500009C44B608FF0876019CF8005146EAC727AC
:1025100047EAD5074F8029E07E19F61896F8006142
:102520000E7005EB2C46F618754496F800614E7057
:10253000ED1895F800518D7098F801502F44FF1850
:1025400097F800710F7105EB2C47FF1897F8007191
:102550004F710EEB0507FF1897F800718F7148F265
:10256000C045069FEF59102F7FF449AF091D47E77B
:10257000BCE02DE9F04F824687B00AF5E840A03074
:1025800005900AF5E8460AF5F040A03004901436AC
:102590000AF5F840A03003900AF50040A030029000
:1025A000F16F7069471A0AF5E84000F19404206859
:1025B00000F0C7FF01900546606800F0C2FF009080
:1025C000082F716FB1BF01EBC70107F0070201EBE4
:1025D000C2014031726F7B10376802EBC302803258
:1025E0000FF21413FF2634E00EEB040B9B449BF810
:1025F00000B185F800B004EB284B9B444C449BF899
:1026000000B185F801B0E41894F80041AC700CEB0F
:102610000104247AA6449E449EF800E180F800E07C
:1026200004EB284E9E449EF800E180F801E009EB9F
:10263000040E9E449EF8004184702D1D001D0CF177
:10264000010CBCF1080F08DB01F5807102F5807206
:102650007F1E012F48DB4FF0000C0CEB020494F8B6
:102660004080059C54F828E0039C54F82880029C84
:102670001CF8029054F82940A044049C54F8299076
:1026800048F2C04454F80A40202C1CF80140ABD159
:102690000EEB040B9B44EE709BF800B185F802B082
:1026A00004EB284B9B444C449BF800B185F801B0E7
:1026B000E41894F800412C700CEB0104247AC670E5
:1026C000A6449E449EF800E180F802E004EB284E08
:1026D0009E449EF800E180F801E009EB040E9E4460
:1026E0009EF800410470A8E700F087F900F022FB93
:1026F00007B0BDE8F08F00000000000000000000FF
:1027000000000000000000000000000000000000C9
:1027100000000000000000000000000000000000B9
:1027200000000000000000000000000000000000A9
:102730000000000000000000000000000000000099
:102740000000000000000000000000000000000089
:102750000000000000000000000000000000000079
:102760000000000000000000000000000000000069
:102770000000000000000000000000000000000059
:102780000000000000000000000000000000000049
:102790000000000000000000000000000000000039
:1027A0000000000000000000000000000000000029
:1027B0000000000000000000000000000000000019
:1027C0000000000000000000000000000000000009
:1027D00000000000000000000000000000000000F9
:1027E00000000000000000000000000000000000E9
:1027F00000000000000000000001020304050607BD
:1028000008090A0B0C0D0E0F1011121314151617D0
:1028100018191A1B1C1D1E1F2021222324252627C0
:1028200028292A2B2C2D2E2F3031323334353637B0
:1028300038393A3B3C3D3E3F4041424344454647A0
:1028400048494A4B4C4D4E4F505152535455565790
:1028500058595A5B5C5D5E5F606162636465666780
:1028600068696A6B6C6D6E6F707172737475767770
:1028700078797A7B7C7D7E7F808182838485868760
:1028800088898A8B8C8D8E8F909192939495969750
:1028900098999A9B9C9D9E9FA0A1A2A3A4A5A6A740
:1028A000A8A9AAABACADAEAFB0B1B2B3B4B5B6B730
:1028B000B8B9BABBBCBDBEBFC0C1C2C3C4C5C6C720
:1028C000C8C9CACBCCCDCECFD0D1D2D3D4D5D6D710
:1028D000D8D9DADBDCDDDEDFE0E1E2E3E4E5E6E700
:1028E000E8E9EAEBECEDEEEFF0F1F2F3F4F5F6F7F0
:1028F000F8F9FAFBFCFDFEFFFFFFFFFFFFFFFFFF04
:10290000FFFFFFFFFFFFFFFFFFFFFFFFFFFFFFFFD7
:10291000FFFFFFFFFFFFFFFFFFFFFFFFFFFFFFFFC7
:10292000FFFFFFFFFFFFFFFFFFFFFFFFFFFFFFFFB7
:10293000FFFFFFFFFFFFFFFFFFFFFFFFFFFFFFFFA7
:10294000FFFFFFFFFFFFFFFFFFFFFFFFFFFFFFFF97
:10295000FFFFFFFFFFFFFFFFFFFFFFFFFFFFFFFF87
:10296000FFFFFFFFFFFFFFFFFFFFFFFFFFFFFFFF77
:10297000FFFFFFFFFFFFFFFFFFFFFFFFFFFFFFFF67
:10298000FFFFFFFFFFFFFFFFFFFFFFFFFFFFFFFF57
:10299000FFFFFFFFFFFFFFFFFFFFFFFFFFFFFFFF47
:1029A000FFFFFFFFFFFFFFFFFFFFFFFFFFFFFFFF37
:1029B000FFFFFFFFFFFFFFFFFFFFFFFFFFFFFFFF27
:1029C000FFFFFFFFFFFFFFFFFFFFFFFFFFFFFFFF17
:1029D000FFFFFFFFFFFFFFFFFFFFFFFFFFFFFFFF07
:1029E000FFFFFFFFFFFFFFFFFFFFFFFFFFFFFFFFF7
:1029F000FFFFFFFFFFFFFFFF086001A800F0ACBD75
:102A000009B0BDE8F08F0746484600F09ABD30B5E2
:102A100083B000F096FD01900120019981F820001B
:102A200000240199DFF8140548600199CC610DF18B
:102A30000201019D6A682846904720BB6A6800A988
:102A400028469047002801BF9DF80200FF289DF806
:102A50000000D82817D18DF801000DF1010101986F
:102A6000FDF727FE78B99DF80100C038012806D986
:102A7000801E09D1019947F211420120505401985A
:102A8000FDF7D4FC00B10124FFF7B7FF20463EBD9F
:102A9000F8B5044604F5E64515F8200F042835D0AE
:102AA0002046FEF7FFFB28B12878687447F23232DF
:102AB000002030E004F5E64010F8781FC37847782E
:102AC0004A1E9241D20F1E0018BF01268F421DD30D
:102AD0000AB11FB11AE0697C012917D1002E1CBF71
:102AE0008078984212D132B1002E0CBFDFF850141A
:102AF000DFF8501405E0002E14BFDFF84C14DFF8A7
:102B00004C142046FEF742FA0028C9D00120F2BD3D
:102B100001195054401C697C8842F9DB2046FDF7BE
:102B200062FE0020F2BDF8B5054605F5E8440C3418
:102B3000E06F20B105F5E840883000F00DFD05F5A7
:102B4000E84656F8940F08B100F058FD706808B1D7
:102B500000F054FD206F08B100F050FDA06F08B1E7
:102B600000F04CFD00260DE005EB061000F5E647F1
:102B70008837386C08B100F041FD386808B100F0C2
:102B80003DFD761C47F22030405D8642ECDB20683C
:102B900008B100F033FD606F00281CBFBDE8F240B3
:102BA00000F02CBDF1BD70B547F29046044604F527
:102BB000E845305982B01035F0B9687800282046D1
:102BC00003D0FFF7A6F888B914E0FEF759FF68B9FB
:102BD000A869E96F88420BDB00A92046FDF769FD73
:102BE000002804BF9DF80000D92801D0012076BD3F
:102BF00001202870A86930513059401E3051E86FCB
:102C0000401EE867002076BD2DE9F041804608F5BA
:102C1000E84508F5E84455F8900FA2B01034F0B933
:102C200060780028404607D0FFF773F8A8B9012064
:102C30002070A069286014E0FEF722FF68B9A0693F
:102C4000E16F8842F3DB01A94046FDF732FD002821
:102C500004BF9DF80400D928E9D0012067E020785E
:102C600008B3A06F18B9606F00F06BFCA067A76F86
:102C7000E06E00F066FC009098B100260CE0009831
:102C800000EBC611802202A800F0FEFC394602A823
:102C9000FEF72FFD4037761C20698642EFDB00F0FF
:102CA00049F800202070A078F0B102280BD017D38B
:102CB000042801D00BD333E02878C0070ED4404657
:102CC000FFF7ECF92AE04046FFF76BFB26E0287897
:102CD000C00703D44046FFF74CFC1FE001201EE074
:102CE0004046FFF73BF919E0A0692968461A686871
:102CF00000F027FC00900746A06F00EBC60866684E
:102D000008E008224146384600F0BEFC08F14008C1
:102D10000837761E012EF4DA00F00CF80020287334
:102D20002868401E2860E06F401EE067002022B047
:102D3000BDE8F08100A800F00FBC000030B50268CB
:102D400013785478957802EB8101016043EA0420FE
:102D500040EA054030BD0000026813788918016020
:102D60007B485843704738B50446FFF750FE0500CE
:102D700023D12046FEF7ABFB05001ED1204600F014
:102D8000E0FB009047F21141085C002800980FD04A
:102D9000FEF7CFFA050001BF009848F2A041085C99
:102DA000002808D1FFF7C6FF2046FEF70FFB32BD13
:102DB000FEF778FA0546FFF7BDFF284632BD2DE93C
:102DC000F041804608F50440A83041680268511877
:102DD000416008F5E64582B00021203548F2B04256
:102DE00047F2253401E0D650491C2B7899420DDA80
:102DF0006F784668022F08EB8103F4D101EB0807D6
:102E0000E75DC7F1030796FBF7F6ECE700261FE046
:102E100008EB061707F5E6447C3407F5E647FDF7AF
:102E20007EFE0090BC37A06821684843616800F0CE
:102E300023F8FFF77FFFF86800F083FB0090761C13
:102E4000B86839684843796800F016F8FFF772FFF0
:102E500028788642DCDB08F5E64010220021FC30B1
:102E600000F078F808F5E840B8F8161040F88C1F24
:102E700000214160BDE8F38101FB00F200980021D0
:102E800000F068B870B582B0044600F05AFB47F213
:102E90002031009000260D5CFFF74CFF00E0761C0F
:102EA000AE4210DA0123324601212046FDF7C3FD70
:102EB00038B90823324602212046FDF7BCFD002820
:102EC000EDD0012076BD002076BD70B582B00446FD
:102ED0000D46FFF79CFD064655B1204600F031FB3C
:102EE0000090808A28600098C08A6860FFF722FFFF
:102EF000304676BD2DE9F041044682B00D461646B7
:102F000048F2C44000F0AEFB01275FEA00080FD092
:102F100000F017FB0090C56000988460FFF70AFF7F
:102F200031464046FFF7D1FF0746404600F066FBBA
:102F30003846BDE8F6813046BDE8F283BF0100089F
:102F4000130E0008830E0008890F0008B70E000852
:102F50000101010010B502E000F8011B521E002A19
:102F600018BF10F00303F7D193081AD04FF00134C3
:102F700002F003024C4308E040F8044B40F8044BD5
:102F800040F8044B40F8044B1B1F042BF4DA002BD1
:102F90001CBF40F8044B5B1EF9D102E000F8011B96
:102FA000521E002AFAD110BD0F21DFF8AC2602EB29
:102FB000C1031B6C984201D2491EF8D508467047E0
:102FC0000160006142608360101840F8042C704773
:102FD00010B504466068FFF7E7FFDFF87C1663680A
:102FE0000A68D21A0A6001EBC00004F108014430FB
:102FF0000A68496802B1516009B10A6010BD0260F7
:1030000010BDF8B5DFF850460546A06B0E46E168E6
:103010000818AF19401EB84203D3386808B900F049
:1030200030F8A06BB04207D256F8040C371A386853
:1030300010B900F026F83E462846FFF7B5FF04EB2E
:10304000C0072A467B6C00213046FFF7B9FF07F125
:10305000440006F10801026802B151600A600022D2
:103060004A600160206894F829102818206031B95E
:10307000E168081AA168814238BF0146A16028466C
:10308000F2BD786845193846A2E72DE9F143DFF82B
:10309000C845A56BE06882B04019401E01902846E3
:1030A0004768016899BB019A791991422FD28946E4
:1030B0000091D9F80480D9F8001041B3626B12F87E
:1030C0003120012A23D1E26A91420CBF0126002659
:1030D000FFF77EFF606BD9F8001000EBC10042469D
:1030E00045604946284600F00FFB26B1606B009909
:1030F000401A2818606308EB05013846FFF781FF86
:10310000029919B1884201D3002005E04746019891
:103110007D198542C3D30120BDE8FE83F8B50023A5
:103120000446002504E000F06FF844F8046B6D1CC1
:10313000B5EB910FF7D30546002400E0641CB4EB17
:10314000910F0BD200F05AF855F8046BCCEB0C2C15
:10315000A7EB0C07BE42F1D00320F2BD5B1C022B93
:10316000DED300230446002504E000F04DF824F8E7
:10317000026B6D1CB5EB510FF7D30546002400E040
:10318000641CB4EB510F0CD200F038F8CCEB0C2CD3
:1031900035F8026BA7EB0C07BFB2BE42F0D002209D
:1031A000F2BD5B1C022BDDD300230246002409E0A4
:1031B0001D19FF26B5FBF6F6C6EB0626AD1B02F879
:1031C000015B641C8C42F3D30246002400E0641CC3
:1031D0008C420BD21E19FF27B6FBF7F712F8015BE2
:1031E000BE19F6B2B542F2D00120F2BD5B1C022B33
:1031F000DBD309B100F0C4FA0020F2BD1F194FF073
:10320000FF0CB7FBFCFC70475E19FF27B6FBF7F716
:10321000C7EB0727F61B704710B5DFF83C440020CA
:1032200084F828008022002104F14000FFF792FE7C
:10323000C02200212046FFF78DFEBDE810400C2281
:103240000021DFF81804FFF785BE2DE9F041DFF813
:103250000844E06A40B9DFF8040441688068083037
:10326000B1FBF0F0851C03E0206900EBD000051DE8
:10327000E80000F08CF85FEA000827D0616BE76A8D
:1032800001EBC800406800F108062069C200304622
:1032900000F00AFA20696663C4F82C806A1E01E017
:1032A000401C4860904206EBC001F9D30020486002
:1032B000206921696062256160682818401A606091
:1032C00017B1384600F09AF9002000E00120BDE86F
:1032D000F08170B5DFF8805305F1280420780028CC
:1032E00044D10120DFF87463207071683068B1F553
:1032F000205F88BF4FF42051FFF710FFB06810B96E
:1033000070688008B060DFF85803F06006F10C00C8
:1033100000F0F1FA281D5A21C1610021102205EBAD
:10332000C1038A40491C10291A64F7D30221C160E5
:103330003268716881608B18143BE3602261002160
:1033400005E0E3684A1C03EBC1014A601146C2680C
:10335000521E9142F5D30121016202602169806809
:10336000FFF74FFEFFF771FF0120A06070BD10B5A1
:10337000DFF8E4124A684B6A521C4A604A6B02EB5F
:10338000C0046360002302F83030486210BD2DE9AC
:10339000F0410546FFF79DFFDFF8BC42206C8542F7
:1033A00002D3E81C8008800000F10C052068A842C8
:1033B0001BD3206B6168884207D3401E2063FFF750
:1033C00044FF216B491C216378B96068D4F82480DC
:1033D000401E6060606B00EBC801496861620121BA
:1033E00000F83810B8F1000F01D100203FE0284666
:1033F000FFF7DAFD002601E066B9401C102811D263
:1034000004EBC001496C39B18E68002EF5D07168AB
:10341000A94211D2B16809B90026EEE78E68716839
:10342000A942E9D346B92846FFF72FFE0028DED08F
:103430004046FFF79CFFD8E77768216C781B0C317A
:10344000884238BF3D463046FFF7C2FD606B00EB57
:10345000C800002346602A4641463046FFF7B0FDCB
:10346000BD4203DAA919781BFFF7CBFD4046BDE842
:10347000F08128B17849CA6B026002B15060C8631C
:1034800070472DE9F8430446FFF723FFE01C80084E
:103490008000714CE66B051D206C854238BF0546E7
:1034A00000E006468EB156F8041C3068A942F8D1F7
:1034B00008B171684160706808B131680160E06B03
:1034C000B0422ED13068E0632BE0A06BE16801EBE5
:1034D0000008A8F10409D9F80000A8EB0007386833
:1034E00030B10020FFF7D1FDD9F80000A8EB0007AC
:1034F0003868B0B97868A84213DBC019401B061DB4
:103500003846FFF765FDE068401BE06060692818F9
:1035100060617868401B1CBF3946FFF772FD46F8B2
:10352000045C3046BDE8F283002818BFFFF72FBFC8
:10353000704728B14849496B01EBC000406808302A
:1035400070474549CA69521CCA61496B01EBC00109
:103550000A78521C0A70ECE703683F4953F8083CAC
:103560004A6B02EBC3021378022B03DBCB690BB16E
:103570005B1ECB611178491E117000210160002093
:10358000704710B5FFF7A5FE00240F21324800EB6D
:10359000C100406C10B9491EF8D508E0806830B110
:1035A000416880688C4238BF0C460028F6D1A4F1EF
:1035B0000C0010BD80B5FFF7E4FF2749096AB0F59C
:1035C000800F04D9642290FBF2F0484302BD4843C7
:1035D0006421B0FBF1F002BD204A10608808800031
:1035E00050607047002138B11B49496B01EBC000A6
:1035F00040684068A0F10C010846704710B504000F
:103600001FBF1548406B10F8341000290BD0022959
:1036100009DA00EBC40041684868FFF7F2FC204675
:10362000BDE81040A3E610BD10B504462068FFF7C2
:10363000E5FF0020206010BDF8B504460D460026C9
:1036400007E004EB8607761C3868FFF7D7FF0020F9
:103650003860AE42F5DBF1BDCCC2002084D0002042
:103660001932000838B50446FFF75EFF050009D09F
:10367000FFF767FF009022460021FFF76BFC00A8D0
:10368000FFF76AFF284632BD62B38B0708D0521E8F
:1036900011F8013B00F8013B00F024808B07F6D1C4
:1036A000830740F0208000BF103A07D330B4B1E860
:1036B0003810103AA0E83810F9D230BC530724BFB4
:1036C000B1E80810A0E8081044BF51F8043B40F8E6
:1036D000043BD20724BF31F8022B20F8022B44BF51
:1036E0000B7803707047083A07D3B1E80810083A1E
:1036F00040F8043B40F804CBF7D25307E4E77047A7
:10370000704770477047704781423ABF53189842DC
:10371000FFF7BABF8018990707D0521E24BF13F8CD
:10372000011D00F8011DF6D8704781071CD1103A21
:1037300007D330B433E93210103A20E93210F9D20D
:1037400030BC1032121F24BF53F8041D40F8041D72
:10375000F8D838BF121D521E24BF13F8011D00F8FF
:10376000011DF8D8704700BF083A07D333E90210AB
:10377000083A40F804CD40F8041DF7D20832EAE7D1
:10378000002200F0DBB80268531C03601170704720
:1037900010B55B495B4C0020086070220021204678
:1037A000FFF7D8FB04F17800BDE8104008220021A3
:1037B000FFF7D0BB5349086770472DE9FC41054628
:1037C0000E4617469846042000F014F904464D486A
:1037D000406FC16C006D4D198619CF198044ADF84A
:1037E0000050ADF80470ADF80260ADF8068000A896
:1037F00001F0D2F848B143463A463146284600F037
:1038000070F901F0AEF80028F5D1204600F0F2F88A
:10381000BDE8F38180B50021002001F037FCBDE850
:103820000050394943F6FF7213460846C5E710B504
:10383000334C206858B90120206001F031FC01F0C0
:1038400059FC32486060201DBDE8104053E010BDB7
:1038500070B52F48016849084900016001212D48D1
:1038600081602D49016000682C49884200D0FEE744
:10387000FFF7DDFF2A4C2E20207001F097FC214934
:1038800001F1680501F11406E868021DC263806356
:10389000006400F108023260407C01EB80000831D6
:1038A000806FC268126B90470FF280003065A86885
:1038B000B060E868083030600120307101F07AFCB7
:1038C0007063032028706FF07040F0613062002058
:1038D00000F047FB6FF07F4000F047FB114860604D
:1038E00000F0D5FA04460021002001F06FFC01F041
:1038F0004EFB204670BD0C490A6842600860704764
:10390000D8D000205012002001C0FFFF91370008DE
:10391000002000E000300240C2A507F4CDB5E8B5B4
:1039200038D10020481A0508ACD10020593A0008C7
:10393000FF39000862F30F2262F31F42401810F0B3
:10394000030308D0C91A1FD3DB0748BF00F8012DB5
:1039500028BF20F8022D130030B414461546103944
:1039600028BF20E93C00FAD8490728BF20E90C000D
:1039700048BF40F8042D890028BF20F8022D48BF19
:1039800000F8012D30BC7047C91818BF00F8012D90
:10399000CB0728BF00F8012D7047704780B500F0B5
:1039A00054F94A6B824205D0486300F0B6FABDE88C
:1039B0000240CDE201BD80B500F047F90A6B8242BA
:1039C00005D0086300F0A9FABDE80240B7E201BDE6
:1039D00070B5DFF8A0150A68117C80EA01035B0767
:1039E00005D5936BD56B1C682E681E602C60107417
:1039F000084670BDDFF8801509688968084738B542
:103A0000DFF870251268B2F90A309942A4BFB2F902
:103A10000E308B421FDBB2F908309842A4BFB2F9D6
:103A20000C30834217DBDFF85435547C53F82440C4
:103A3000137CE568DB0707D50A460146EB6920469B
:103A400001B0BDE830401847D26B13680A46014602
:103A50002046AC69A04731BD10B5DFF818351B68AA
:103A6000B3F90A40A142A4BFB3F90E408C420FDB68
:103A7000B3F90840A042B8BF2046B3F90C409442C5
:103A8000B8BF2246824203DB00F020F8A468A047BA
:103A900010BD10B5DFF8DC341B68B3F90840A04254
:103AA000A4BFB3F90C4084420FDBB3F90A40A14232
:103AB000B8BF2146B3F90E409442B8BF22468A42AD
:103AC00003DB00F003F8E468A04710BDDFF8AC4466
:103AD0005B7C54F8234013460A4601462046E468BE
:103AE000704738B5DFF88C442468B4F90850A84210
:103AF000B8BF2846B4F90C509542B8BF2A46824256
:103B000018DBB4F90A50A942B8BF2946B4F90E50DF
:103B10009D42B8BF2B468B420CDBDFF86054647CBF
:103B200055F82440009313460A4601462046E468AF
:103B30002469A04731BD2DE9F84F00F086F986B021
:103B400000F037F902D000F070F949E05818421E31
:103B50002819431E1098DDF844C04CEA00000128E3
:103B60003FD1DFF810040068B0F90AE0AEEB0107BE
:103B7000012F09DB0699C91B0129069130DBDDF80D
:103B80004CC071460CFB0766B0F90E70D71B012FB5
:103B900004DB069AD21B012A069221DBB0F90C2025
:103BA0009A1A012AA8BFAD1A169AB0F90830A41AB9
:103BB0009C4217460BDADF193F1BEB1ABA1AE518BD
:103BC00006EBE70622F00702141907F00707012D9C
:103BD00006DBDFF8A823407C52F8200000F03AF919
:103BE00048E100F0FCF801E000F0EFF801980699D8
:103BF0008842F5DA00F00DF9A2BFB0F90E00009985
:103C00008842F1DB00F0CFF807E000F0FAF800F0AE
:103C1000D6F80AF1010A10988144AA45E4DA00F0C6
:103C2000E5F800F00AF810B90A7C9207F1D400F028
:103C3000B4F8EAD052F82000E7E70499FFB227FA77
:103C400001F012998F40A8EB0108CA490968704732
:103C50002DE9F84F00F0F9F886B000F0AAF802D08C
:103C600000F0E3F86CE0DDF844C05818109B2A1906
:103C7000401E521E4CEA0303012B62D1BD4B1B6850
:103C8000B3F90AE0AEEB0107012F09DB0699C91B66
:103C90000129069154DBDDF84CC071460CFB076628
:103CA000B3F90E70C71B012F04DB0698C01B012857
:103CB000069045DBB3F90C00101A0128A8BF2D1A95
:103CC000B3F908000027844232DA071B129AED1B71
:103CD000012A0CD0022A12D0042A18D0082A1ED099
:103CE000102A1ED0182A18BF202A1DD020E006EB6B
:103CF000E70627F00700041907F0070718E006EBAE
:103D0000A70627F00300041907F0030710E006EBED
:103D1000670627F00100041907F0010708E0BE1943
:103D200004E006EB470601E006EB870604460027A1
:103D3000012D05DB91485A7C50F8220000F08AF8EA
:103D400098E000F04CF801E000F03FF80198069987
:103D50008842F5DA00F05DF8A2BFB0F90E000099D4
:103D60008842F1DB00F01FF807E000F04AF800F0AD
:103D700026F80AF1010A10988144AA45E4DA00F015
:103D800035F8FFF75AFF10B90A7C9207F1D400F01A
:103D900004F8EAD052F82000E7E7C96B159AD1F889
:103DA00000B0002A70474FF000080396A146C246B3
:103DB00070470027149EBCF1000F154670476D48F0
:103DC0000068C06BC0F800B0704701981199401CA2
:103DD000019000980818009013988619704712985F
:103DE0000091C0F10800049001977047B8F1000FEE
:103DF00006D10398401C03904FF0080810F8017D8D
:103E0000704708601098029B00994844421E48463B
:103E100067E6119800990818401E029055480068FE
:103E20000299B0F90A20914270471598069B0590B7
:103E3000049613980390129802901198019010988C
:103E400000902046DCF80040204704464C48D0F85B
:103E500000C07047159A0592049703962B46139A53
:103E60000292129A0192069A00920A462146C4686A
:103E70006468204707B0BDE8F08F3E4801683F48BE
:103E80004A7C50F82200C268126B0831104770B5A6
:103E900082B0FFF7F2FF01F0B9F9040013D1002559
:103EA000284601F04FFA009050B1009AD268526A49
:103EB0000C2100A8904701002DD0009888470443AA
:103EC0006D1C022DECDB24BB01F0D7F9012543F674
:103ED000FF76284601F036FA0090C0B1284601F07E
:103EE000C7FA0420FFF786FD334632460021002042
:103EF000FFF7F7FD0020FFF77DFD009AD268526AB8
:103F00000E2100A8904701001CBF009888476D1E35
:103F1000DFD5204676BD012076BD164A17491268C6
:103F2000527C51F82210096909680847114A13495F
:103F30001268527C51F822100969496808470D49F6
:103F400009680A7C52074CBF896BC96B08607047CF
:103F5000084909680A7C52074CBFC96B896B086025
:103F600070470549096849680847034909680968AD
:103F700008470000C412002054220020C81200206C
:103F8000A8D10020DFF8182C136A0021984201D133
:103F900008467047526A01219042F9D04FF0FF3035
:103FA00070473EB50446DFF8FC0B0568696C19B92B
:103FB000204601F077FA37BD00F0A5FEDFF8E00BF0
:103FC000C06D00B9A86CFFF7BCFA009001A900F021
:103FD0001DF900F082FB214601A801F07BFA01A83F
:103FE00001F060FA37BD70B504460D46164600F084
:103FF00028FE32462946806AC0032046BDE870404C
:104000004CBF4FF4804320236CE1FEB506460C46BE
:104010001546FFF78EFA0090876AB80735D5204617
:1040200000F09BF900281EBF40F60100384001282F
:104030002BD000F05BFA00900246214600F0EBF92D
:1040400001A800F08AF9F0B10098806A44F22001DA
:10405000084207D0009800F1080101AA083001F0D9
:1040600059FA10E00098083001A900F04DFE0098C0
:104070000099806A28438862DFF8240B818B491CF1
:10408000818301F079FA00F028FBF7BD2022BCE71C
:1040900038B504460D4602E0054600F01EFB00F070
:1040A00082F800F01AF903D400F017FB002032BDAB
:1040B0000099204601F00EFA009880690028EBD1A3
:1040C00000F00BFB2846FFF75DFFC043C00F32BD79
:1040D000DFF8D00A10B50068DFF8C44A483084B071
:1040E000017B21B104F10800FFF75BFF1FBD0068F1
:1040F000FFF727FA009001A8009900F005FE00F0F4
:10410000ECFAE16D11B101A8FFF7C2FF01A8FFF7BA
:1041100048FF1FBD70B50D0084B0044642D0FFF7C4
:1041200010FA01900020019908620198856100F061
:104130003AF80290019890F8280000F008050298DB
:10414000C6691EB900F080FD02A829E000F0CEF992
:10415000009065B990F82800000708D5019806621C
:10416000029800F071FD00F0F9FB00A818E000F0E3
:10417000F5FB00F0B2FA00F049F900900098066AE9
:104180000EB904620BE000F041F9002DF5D190F872
:1041900028100907F1D5009804620198066201A869
:1041A000FFF7DAF97FBD2846FFF7CBB970B50446B3
:1041B000FFF7BFF90546A869A0B1FFF7BAF90646AF
:1041C000F169A14205D10846FFF7B3F9006AF06131
:1041D00070BD39B10846FFF7ACF9016AA142F8D1C8
:1041E000296A016270BD10B582B000F031FD009007
:1041F000816941B1026A00F0AEF82046FFF7D6FFB0
:1042000000990020886100F068FA13BD0B46B0F9F0
:104210000220B0F90010184601F0D2B910B50446DA
:10422000DFF87C09C06B02E0FFF783F9406910B149
:10423000A042F9D1012010BD10B5040082B021D0F8
:10424000FFF77FF900F049F81AD50098406A002876
:104250001EBFDFF8D81C0968A14204D001F069FA3A
:10426000009900204862204601F040FB044605E02A
:104270002046FFF7E1FF00F0CDFA046A002CF7D1E9
:1042800000F02BFA13BD70B5040084B00D4616463D
:1042900022D0FFF756F900F020F804D5009A2946FD
:1042A00000F0B9F810B900F018FA7FBD00F015FA67
:1042B000324601A92046FFF7A8FE204601F016FB72
:1042C000044607E0324601A92046FFF7DCFF00F074
:1042D000A1FA046A002CF5D17FBD009090F8280067
:1042E000800770472DE9F0410F0084B00646144660
:1042F00098462ED03846FFF724F90090856AA80723
:1043000025D5009A314600F086F800B340F601004A
:104310002840012807D10098026A8169434601A814
:10432000FFF7E0FF04E0424601A93846FFF76DFEC3
:104330000098C66907E0424601A93046FFF7A3FF8F
:1043400000F064F8066A002E18BFA642F3D100F010
:10435000C4F9BDE8FF812023C4E7B0F90410B0F927
:1043600000209142A2BFB0F90610B0F902008142CC
:1043700001DA002070470120704770B584B006460E
:104380000C4615460BE001AA21463046FFF7F5FF23
:1043900000F03CF8066A002EF5D100F09CF9002EE2
:1043A00033D000F0A3F80090866AB007F5D515B1B8
:1043B00000F02FF801E000F0A5FC00F065F80028FF
:1043C000EBD0F0071ED40098B0F90200002D04D005
:1043D000B5F902108142A8BF0846B4F90210814223
:1043E00009DABDF90600B4F90620411E9142D4DA7B
:1043F000401EE080D1E7BDF90A00B4F906108842FA
:10440000CBDAF6E70098C669C5E77FBD3046FFF70F
:1044100090B800992A4601A801F06FBAFEB5074688
:104420000C461546002610E001AA21463846FFF743
:10443000F5FF00B101263846FFF77BF8076A002F29
:10444000F2D10098076A00F048F9DFB13846FFF76B
:1044500078F80090876AB807F3D515B1FFF7D9FF50
:1044600001E000F04FFC00F00FF80028E9D0F80759
:1044700005D4BDF80800401C20800126E1E7009823
:10448000C769DCE73046FEBD01A9204601F066BAE7
:1044900070B584B006460C4615460BE001AA2146CD
:1044A0003046FFF7F5FFFFF7B1FF066A002EF5D1A2
:1044B00000F011F9CEB100F019F80090866AB0074B
:1044C000F6D515B1FFF7A5FF01E000F01BFCFFF7E3
:1044D000DBFF0028ECD0F00704D4BDF80400401E38
:1044E000A080E5E70098C669E0E77FBD3046FFF7AA
:1044F00028B8002818BF01F04DBA704700B585B044
:104500000091019000A901F045FA05B000BD00221C
:104510004A800A8003888288D21A8A80C2884088AA
:10452000101AC880704770B5040086B00D4630D0B0
:10453000FFF707F80090866AB00728D500F0E2FB85
:10454000F00344BF2046FFF777FE5DB103A829467C
:1045500000F0DAFB009803A9FFF758FE03A901A8B1
:1045600000F0B8FF214601A8FFF792FD78B140F6B0
:1045700001003040012806D10098026A816901A833
:10458000FFF7E9FE03E001A92046FFF77FFD00F0F9
:10459000A4F806B070BD0021C5E72DE9F04F83B047
:1045A000DFF89C4A074688460D98E16C0C9E9146C0
:1045B0009A4641EA000546B9608B50B3DFF8E4053E
:1045C0000068407C04EB8000066A16F1010F08BF0A
:1045D00000261ED0EEB1FFF789FF01900199B0F9D6
:1045E0000000B1F90210C719B9F1000F884405D1D4
:1045F000019AB2F90420101A00F10109BAF1000F72
:1046000005D10198B0F90600401A00F1010A00F046
:104610001CFB0F982C30FFF725F85FEA000B57D0F2
:10462000608B401C60835846FEF78BFF009007802C
:104630000098A0F8028009EB07000099401E8880CE
:104640000AEB08000099401EC88000990E98086186
:10465000DFF8F0190098806A2940084300998862C1
:1046600000F03BF8E06B50B1FEF763FF0746584699
:10467000FEF75FFF79694161C7F814B001E0C4F843
:104680003CB031465846FFF745FDA80644BF5846A2
:1046900000F0A5F8E80702D5A06D401CA0656806EB
:1046A00044BF584601F096F9A8070DD55846FEF7C5
:1046B00048FF00900099806A40F00200886200F094
:1046C0000CF85846FFF767FF01215846FFF716FF21
:1046D0005846BDE8FE8F0098066A00A8FEF73CBF6A
:1046E000F8B5040064D0FFF799FD002860D020469B
:1046F00000F05FF805460B212046FFF7FFFE20463D
:1047000001F0C2F92046FEF71CFF0090406A08B194
:1047100001F00FF8DFF8286900207066B06B06EB37
:104720008000016BA14204BF00210163816AA142A4
:1047300004BF00218162306C05E04168A14204BFE2
:104740000021416000680028F7D10721204601F0D0
:1047500029FA009FF869FFF7C3FFF8690028F9D12B
:104760002046FFF740FDF06B48B1FEF7E2FE07463A
:104770007869A042F8D100F04DF84069786100985E
:10478000806AC10702D5B16D491EB165800602D5A8
:10479000B08B401EB083FFF7A0FF708B401E70836C
:1047A0002046FEF72BFF06EB8500006A00F017F8A5
:1047B000F1BD10B50446FEF7BCFE80690028F9D1B2
:1047C0002046BDE81040FFF7DDBB80B5FFF7F1FFE5
:1047D00000285CBFBDE8024000F04ABE01BD70B5D4
:1047E000DFF8C05304002868866C04BFDFF8501857
:1047F000CC6B84642046FFF7E8FFFFF73EFB00F038
:1048000009F82968B0F90020CA64B0F90200086507
:10481000304670BD2046FEF78CBEDFF82C080068DD
:10482000806C704770B5DFF8184884B0D4E9020195
:10483000CDE90001206920B92088ADF8000060882A
:1048400011E0A089401CADF800006089BDF900109E
:10485000ADF80200B4F90400884206DA2088ADF809
:104860000000E089401CADF80200B4F90600BDF973
:104870000210884264DBDFF8D05700F095F902900F
:10488000B4F90010BDF90000884217D1E088ADF8F6
:104890000600A088ADF804002868806C08E0FEF7E8
:1048A00048FE06460022306A00A9FFF766FDB0699F
:1048B0000028F4D100F04DF8FFF75FFDBDF80000CF
:1048C000ADF804002868806C0AE0FEF732FE064668
:1048D0000022306A00A9FFF7A1FD0028EED1B069DF
:1048E0000028F2D100F035F8FFF798FD0028E5D157
:1048F000BDF90010B4F90400ADF80400884206DAEE
:10490000DDE90001C4E9020100F028F8A6E7286803
:10491000806C08E0FEF70DFE05460022286A00A91B
:10492000FFF7B6FDA8690028F4D100F012F8FFF7F0
:10493000AFFD00F013F8206944F62161884201DBE5
:10494000002004E0DDE90001C4E90201012004B017
:1049500070BD0298C069002200A9704702A8FEF746
:10496000FBBD9048006890F8540000B9704710B53E
:10497000DFF8CC466069022805DA2069401C206116
:10498000FFF750FF20B96069401E6061002010BD34
:10499000FFF79EFB012010BD70B5824C06462068D3
:1049A000483086B0017B11B9FFF792FB06E0DFF8D3
:1049B00090566969491C0229696101DB012055E0B3
:1049C0000068FEF7BEFD00904FF0FF302861287EA2
:1049D00020B3009902A8083100F096F91EB13146C3
:1049E00002A800F077FD2068416C29B3009801907F
:1049F000082204A8FEF748FEE86D28B100F025F96A
:104A0000E86DFEF79EFD019004A90198FFF7FEFBFB
:104A100004A902A800F05EFD01A80EE0009890F83D
:104A20002800800702D5009902A8D5E76869401ED2
:104A30006861FFF752FE11E000A8FEF78DFDE96DF9
:104A400019B102A8FFF724FB28B12068816C02A8E5
:104A5000FFF71EFB20B96869401E6861002005E071
:104A6000DDE90201C5E90001FFF77BFF06B070BD7B
:104A700080B501F0A1F8DFF8D0150968002048647E
:104A800001BD70B588B000F0E3F80090866A056952
:104A9000009901A8083100F037F9FFF71EFE45B371
:104AA000B00726D52E21204601F0A6F8DFF8905554
:104AB000287E401C2876F00406D500F01CF803A9D7
:104AC000204600F067FF0DE001A8FFF765FF48B141
:104AD00000F011F803A9204600F05CFFFFF741FF4A
:104AE0000028F5D1287E401E28762F21204601F08F
:104AF00083F808B070BD0F200390049401A80690BD
:104B0000B6E710B50446FEF714FD806AC0032046E0
:104B1000BDE810404CBFDFF83415DFF83415084706
:104B20002DE9FC411F4D804600F03EF801904046C3
:104B3000FEF707FD009001460198083000F00EFFD7
:104B400028B32868C66C076D01980099DFF8F04417
:104B500000F1080201F1080000F0CFFE00F075F846
:104B60000099C4F85C802868B1F90010C16400990C
:104B7000B1F902100165FFF7B0FD4046FFF7C1FF34
:104B80000020E0652868C6640765012004E000F0A5
:104B90005CF8FFF7A2FD0020BDE8F68100000000F0
:104BA00068C90020C41200202868806CFEF7C9BCC8
:104BB00030B585B000F04CF8FFF78FFB3DD500987D
:104BC000C56938E0FFF7EFFA019090F8280000F08F
:104BD000030003282BD1009800F10801019800F090
:104BE000BDFE20B3009902A8083100F08DF8FFF750
:104BF00074FD00F02AF82846FFF792FF58B100F044
:104C000020F801902846FFF7D3FF00F01AF8019032
:104C1000FFF700FE00902046FEF793FC0090FFF7A0
:104C2000C2FA019002A90098083000F06DF80198CE
:104C3000056A00F00AF8002DC4D1FFF74EFD05B05B
:104C400030BD2846FEF775BCC46101A8FEF784BCE0
:104C50000446FEF776BC38B5FFF7FAFF009040F641
:104C60000101806A0840012804D0FFF736FD204684
:104C7000FFF747FFDFF8C803806D00B32046FFF75A
:104C800097FFFFF7C7FD8469056A16E0FFF7D9FFB4
:104C900090F8280000F00300032804BF2846FFF71F
:104CA0003FFF2846FFF784FFFFF7CBFF056A002D83
:104CB000ECD1FFF7AFFD056A8469002CF7D131BD57
:104CC0003EB5DFF884530446FFF76EFF009001A85D
:104CD0000099083100F018F8009829680830083168
:104CE0000822FEF7D1FCFFF7F8FC2068FFF7B3FFBE
:104CF000FFF75AFF009001A9083000F005F8FFF710
:104D0000ECFC37BD009901A80822FEF7BDBCF1B547
:104D100084B0FEF716FC019002A801990831FFF754
:104D2000F3FF0198856A86690769FFF78EFF002403
:104D300044F22000054231D0EFB1049902A8FFF7F8
:104D4000A7F9C0B10498FFF74AFD68070FD5002EF8
:104D50000EBF012005F0010080F00100009000234B
:104D600004AADFF8F01202A800F050FF03E0049854
:104D7000FFF771FF01240498FEF7E3FB0190B649A9
:104D8000806A08408104019948BF40F004008862AD
:104D9000FFF75BFFAA48818B491E8183204605B03F
:104DA000F0BD80B5FEF7C5FB816A41F40041816228
:104DB0000120A349886601BD2DE9F047A04C206E73
:104DC000002501009EB002D0804700E00125A06EC2
:104DD000B8B1E66B06E037460646FFF77EFC38467C
:104DE000FFF77EFC5EB1FFF781FB00900099896AB6
:104DF00040690904EFD40646FFF76FFCF2E7002094
:104E0000A066206D010018BF80479448006801002B
:104E100002D080470028D9D18B4E306890F85400DA
:104E200000284DD000F094FF0028CFD1306890F8D2
:104E3000540000281CBFA08B002841D0606D10B129
:104E40000068804704E0012000F0EBFF00E001254E
:104E5000306890F8540060B3A08B50B3676E4FF089
:104E6000010807B9E76B01A800F0E4FF3068D0F84B
:104E70003090D0F834A057B90EE03846FFF747FF1E
:104E800008B1A8F101083846FEF753FB4769002F27
:104E900018BFB8F1000FF0D16766484600F0DCFF9C
:104EA000504600F0D7FF01A800F0CAFFA08B0028F1
:104EB000CDD1606D10B14068804701E000F0B1FFD6
:104EC00028461EB0BDE8F08710B5044620680E28BD
:104ED00002D00F2809D017E0E0684168012917D1F6
:104EE000BDE81040006800F02DBF6068FFF74AF889
:104EF000534901EB80006FF07041406C884203D051
:104F000000F0A8FFFEF786FC2046BDE810400FE049
:104F100010BD4D490968012081F8540070474A4985
:104F20000968002081F85400FEF7A7BFB0D1002027
:104F300010B50446216860680E290ED0142906D0E9
:104F4000172908D022290DD028290ED002E0E168C7
:104F500000F084FF0020E06010BD2146BDE8104055
:104F600000F09CBF6FF07040F5E7BDE81040FFF720
:104F700012BB33480021417681660164016381627E
:104F80004163C1628165C165C164416570472DE9B6
:104F9000F0432B4C607E002885B04DD12A4DE06354
:104FA0006066002629682E4F4864A083608343F61C
:104FB000FF78304600F0C6F9A8B1002003900297B0
:104FC0000220019043464FF0FF30009042460021FE
:104FD0000020FFF7E2FA04EB86016FF070420862EE
:104FE0004A64FFF7D8FA761C022EE2DB0026DFF8CF
:104FF00074801D4FDFF8749009EBC60000F05CFF71
:1050000007EBC60000F058FF08EBC60000F054FFA5
:10501000761C022EF0DB206AFFF7E1FB29680120F5
:1050200081F85400607605B01148E06604F16C0028
:10503000BDE8F043FEF75FBC05B0BDE8F0830000BB
:1050400068C900209F3F3F00C412002063FD040890
:10505000834A0008C14C0008DFBFFFFF98D1002041
:10506000C94E000800CD0020F0CC0020C420002054
:10507000734F00080449096888840020704702497A
:105080000968488400207047C412002038B50C46D7
:10509000FFF7F5FF05462046FFF7ECFF284332BD3A
:1050A00080B54FF448310448FEF796FABDE8024057
:1050B0000248FEF77FBB00BF0000006024810408A7
:1050C000C0B200F0D3BF01B50221684600F0BDFFB9
:1050D00001BD490000F0B9BF38B504460D4604E0F3
:1050E000002000F0C7FF24F8020B2846451E0028C8
:1050F000F6D131BD10B5A0B06846142101F0F4F925
:1051000005A8682101F0F0F9002300221C491D4880
:1051100000F086F904464FF4A072F021002001F05F
:10512000FBF94FF4A072F021002001F0E1F9062014
:1051300002906946204601F0FFFC1348134B144AC5
:105140000D9005A913480E90134810901348149021
:10515000204601F010FD20B010BD10B5002401293B
:1051600002D003290AD007E00D484068804775281F
:1051700004D101F03DFD01E04FF0FF34204610BDA9
:105180001C1C05082C190508C1500008519B040877
:10519000ABD50408C7500008D3500008D950000808
:1051A0004418002002F02EB901F0B3BF70477047D9
:1051B00070470000034904480968497C50F8210001
:1051C000704700BFC412002088C90020074A084B5E
:1051D0001080084A11801B68074A5B7C52F8233014
:1051E0000A4601461846DB681B6A1847FED10020B4
:1051F000C412002000D20020C812002010B53A4C82
:105200006068FEF736F90020606010BD10B5364CBE
:10521000606868B920688000FEF733F9606008B9FB
:10522000012010BD3148A06004F10800FEF763FBC7
:10523000002010BDF8B500281CBF8468002C06D0E3
:10524000294D696819B10668B6F5807F01DD002037
:10525000F2BD2868B042B8BF0646002707E054F800
:105260002700FEF75AFE696841F827007F1CB74205
:10527000F5DB6868F2BDDDE7DCE72DE9F84F02F009
:1052800005FC80460024DFF86890DFF868A01A4F1C
:105290000DE0F0B2FEF74AFE0246F1B2204601F000
:1052A00085F9761C5E45F4DB38684574641C44451A
:1052B00017DA204600F046F80028F7D03868457C19
:1052C0004474204602F016FC0928EDDA5AF824004E
:1052D00000694845E8D0204602F00EFC83460026CF
:1052E000E0E7BDE8F18F00003C210020FD510008FF
:1052F000641C0508C8120020C41200208169514AAC
:1053000052F82130834204BF036842F821304168DB
:1053100009B102680A60016809B142684A60002167
:1053200001604160704702280ADA464A52F82000BC
:1053300000E0006820B1C26812688A42F9D1704763
:1053400000207047022801DB002070473D4951F8DA
:10535000200000E0006800281EBFC168096800291D
:10536000F8D17047FEF785B8F8B51F46022F0446FE
:105370000D46164603DA1C20FEF783F808B9002014
:10538000F2BD0DB105610AE02E4951F8271031B187
:1053900000E011460A68002AFBD1096901618761B2
:1053A0008682C4600021016041608160F2BDA5E792
:1053B00070B560B381690C46022C28DA214A52F894
:1053C00024301BB942F8240028E023465C68002CF6
:1053D000FBD1E3B1DC68C56824682E68A642B8BF7B
:1053E0001B68F6DBB44204BF848A012C06D11C681A
:1053F00024B12346DC682468B442F8DA5C68002CE7
:105400001DBF20605968416042F8210001E0012081
:1054100070BD5860984208BF00230360002070BD33
:1054200038B51C46FFF7A0FF050009D0FFF7C0FF05
:10543000E868006820B90448006800EB84008565CE
:10544000284632BDC8120020C412002000210228C4
:105450003CBF0E4951F820100846704738B50C463D
:10546000154601F0B7F810B100202060286031BD6A
:1054700038B5044606480068457C022C3CBF44749D
:1054800002F0C4FB03480460284632BD50D100201E
:10549000C4120020A0C9002001F068B801F03CB897
:1054A00001F04EB830B5094D2968497C04460848DA
:1054B00050F82100C268126B83B000A99047286899
:1054C00000AA2146083000F018FA37BDC4120020A7
:1054D000C8120020B1F90020B0F900309342B8BFE3
:1054E0000280B0F90220B1F902309A42B8BF1A46E0
:1054F0004280B0F90430B1F904209A42C8BF1A467C
:105500008280B0F90630B1F906209A42C8BF1A4627
:10551000C280704700B9704710B509B30AB3B2F939
:105520000030B1F900409C42B8BF23460380B2F975
:105530000240B1F90230A342C8BF23464380B1F90B
:105540000440B2F90430A342B8BF23468380B1F9C6
:105550000640B2F90630A342B8BF2346C38010BD4F
:105560001146BDE810400822FEF78EB811480068C9
:10557000010018BF004770470F480068010018BFBE
:105580000047704710B50D4C206858B102F0ABFBD6
:1055900058B102F0AEFB58B121680A0008D0BDE84E
:1055A0001040084702F09FFB10B9BDE81040DDE74E
:1055B00010BD00005C220020C4D10020C8D1002012
:1055C00058B10388CB1803808388C918818041882B
:1055D00051184180C1885118C1807047F8B5044600
:1055E0000D461646FDF7ADFF00901621009A126891
:1055F000D268526A00209047074600F0B7F838009A
:1056000003D0324629462046B847F1BD2DE9F14F77
:1056100000F0E8F884B01E46437CDDF840800F9827
:105620008946934600224146FFF79EFE002704006C
:1056300046D020698068804702F0CFFA82460AFB94
:105640000BF0C01DC0080290FDF7B4FF0E9DE907E6
:1056500005D4411000EB9170801000EB4000012E4A
:105660000BDA029900291ABF1838B0FBF1F00020BC
:1056700071420E468642C8BF0646E80707D4049822
:10568000009733465A46494602F0F3FC0746012E7E
:1056900003DA2046FFF766FE12E0029870431830E6
:1056A000E90702D5FDF740FF01E0FDF7DBFF05004C
:1056B00008D12046FFF756FE17B13846FDF79EFF8A
:1056C000002021E0FDF73DFF01900460019904985E
:1056D00088800198A0F806900198A0F808B0019879
:1056E000468101990298C8600198C0F810A00198FD
:1056F000476101A8FDF730FFC4F81080A56000F0F5
:1057000071F8407CA061284605B0BDE8F08F10B567
:1057100082B0002458B1FDF714FF009000680069C2
:105720008068804702F059FA044600F01FF82046CE
:1057300016BD10B5040082B017D068480068006E2E
:10574000A04208BF02F062FA2046FDF7FAFE009080
:10575000406908B102F0C6FC00980068FFF702FE3D
:1057600000F004F82046FDF749FF13BD00A8FDF73F
:10577000F3BE2DE9F047044600F034F8407C88463B
:10578000574951F8207084B091469A460026F9682E
:105790000968042903D03F68002FF8D100E017B949
:1057A000FFF7D0FD0746FA68D26A012138469047D4
:1057B000050013D03F690C9EB868804710F1010FB7
:1057C00004BF484F46F001060297019500965346E4
:1057D0004A4641462046FFF719FF0646304604B0C8
:1057E000BDE8F0873D480068704710B582B00024DE
:1057F0000094FFF7BEFF16BD70B5384D0400286851
:10580000066E82B002D102F001FA14E00EB102F08D
:10581000FDF9FFF784FB2046FDF793FE0090286812
:10582000046600980068FFF7C3FDFFF79FFF02F0D2
:1058300081FCFEF722FB304676BD2DE9FE430400D5
:105840008846914645D0002002F086FC0546FFF7C9
:10585000C9FF066E2046FDF774FE0090006880695F
:10586000FFF706FE07462048804504D10098B0F9AE
:105870000480B0F906900099ADF80480BDF80400EA
:105880000989ADF806900818401E0099ADF8080087
:105890004989BDF806000818401EADF80A00FFF758
:1058A00038FBFFF763FF01A8FFF776F840B14A46DF
:1058B0004146204602F02FFFFFF753F80028F6D1AB
:1058C0003846FFF7D5FD3046FFF796FF284602F031
:1058D00043FCBDE8F783044A1146AEE7C41200203A
:1058E000C8120020341C050801F0FFFF00B9704702
:1058F00080B5FDF71EFEC06902BD10B5B1F90030DC
:10590000B2F900409C42A8BF23460380B1F902408F
:10591000B2F90230A342B8BF23464380B2F9044033
:10592000B1F90430A342C8BF23468380B2F90640D0
:10593000B1F90630B0F90410A342C8BF2346C380B2
:10594000B0F900209142A2BFB0F90610B0F90200F0
:10595000814201DA002010BD012010BDB1F90620FE
:10596000B0F902309A42A2BFB0F90620B1F9023074
:105970009A420DDBB1F90420B0F900309A42A2BF7F
:10598000B0F90400B1F90010884201DB0120704732
:105990000020704770B50E4C0546206814280E464E
:1059A00014DA2846FDF7C5FD01697560080008D0C6
:1059B0002068401C2060304688472068401E2060D8
:1059C00070BD3046BDE87040FFF7B2BA70BD00BF91
:1059D000CCD100202DE9F041040086B039D0FDF78C
:1059E000B0FD009003A800990822FDF74DFE009835
:1059F000056A866A00A8FDF7AFFD204602F0AEFEFC
:105A0000070026D0204602F0BAFE8046B00704D533
:105A10002A46414603A8FEF79EFC2046FDF791FD6D
:105A200000904046FDF78DFD01903846FDF789FD59
:105A30000290056201980099C06908620198C461EA
:105A400000A8FDF789FD01A8FDF786FD02A8FDF776
:105A500083FD06B0BDE8F08130B504460FF2341086
:105A60000FC885B000AD85E80F00606850B1FDF744
:105A700060FD40F21311406800916168039100A934
:105A8000FEF737FD05B030BD70B582B0044600A802
:105A900002F046F9054608E0009E00A9284602F0FB
:105AA0004FF90546304600F015F895B1012128461A
:105AB00002F02EFA009959B150B10846FDF739FDB0
:105AC0004068A042E8D000A9284602F039F9E1E791
:105AD000F9E773BD10B5040082B00AD0FDF731FDBF
